{
  "contractName": "ERC721PresetMinterPauserAutoId",
  "abi": [
    {
      "inputs": [
        {
          "internalType": "string",
          "name": "name",
          "type": "string"
        },
        {
          "internalType": "string",
          "name": "symbol",
          "type": "string"
        },
        {
          "internalType": "string",
          "name": "baseTokenURI",
          "type": "string"
        }
      ],
      "stateMutability": "nonpayable",
      "type": "constructor"
    },
    {
      "anonymous": false,
      "inputs": [
        {
          "indexed": true,
          "internalType": "address",
          "name": "owner",
          "type": "address"
        },
        {
          "indexed": true,
          "internalType": "address",
          "name": "approved",
          "type": "address"
        },
        {
          "indexed": true,
          "internalType": "uint256",
          "name": "tokenId",
          "type": "uint256"
        }
      ],
      "name": "Approval",
      "type": "event"
    },
    {
      "anonymous": false,
      "inputs": [
        {
          "indexed": true,
          "internalType": "address",
          "name": "owner",
          "type": "address"
        },
        {
          "indexed": true,
          "internalType": "address",
          "name": "operator",
          "type": "address"
        },
        {
          "indexed": false,
          "internalType": "bool",
          "name": "approved",
          "type": "bool"
        }
      ],
      "name": "ApprovalForAll",
      "type": "event"
    },
    {
      "anonymous": false,
      "inputs": [
        {
          "indexed": false,
          "internalType": "address",
          "name": "account",
          "type": "address"
        }
      ],
      "name": "Paused",
      "type": "event"
    },
    {
      "anonymous": false,
      "inputs": [
        {
          "indexed": true,
          "internalType": "bytes32",
          "name": "role",
          "type": "bytes32"
        },
        {
          "indexed": true,
          "internalType": "bytes32",
          "name": "previousAdminRole",
          "type": "bytes32"
        },
        {
          "indexed": true,
          "internalType": "bytes32",
          "name": "newAdminRole",
          "type": "bytes32"
        }
      ],
      "name": "RoleAdminChanged",
      "type": "event"
    },
    {
      "anonymous": false,
      "inputs": [
        {
          "indexed": true,
          "internalType": "bytes32",
          "name": "role",
          "type": "bytes32"
        },
        {
          "indexed": true,
          "internalType": "address",
          "name": "account",
          "type": "address"
        },
        {
          "indexed": true,
          "internalType": "address",
          "name": "sender",
          "type": "address"
        }
      ],
      "name": "RoleGranted",
      "type": "event"
    },
    {
      "anonymous": false,
      "inputs": [
        {
          "indexed": true,
          "internalType": "bytes32",
          "name": "role",
          "type": "bytes32"
        },
        {
          "indexed": true,
          "internalType": "address",
          "name": "account",
          "type": "address"
        },
        {
          "indexed": true,
          "internalType": "address",
          "name": "sender",
          "type": "address"
        }
      ],
      "name": "RoleRevoked",
      "type": "event"
    },
    {
      "anonymous": false,
      "inputs": [
        {
          "indexed": true,
          "internalType": "address",
          "name": "from",
          "type": "address"
        },
        {
          "indexed": true,
          "internalType": "address",
          "name": "to",
          "type": "address"
        },
        {
          "indexed": true,
          "internalType": "uint256",
          "name": "tokenId",
          "type": "uint256"
        }
      ],
      "name": "Transfer",
      "type": "event"
    },
    {
      "anonymous": false,
      "inputs": [
        {
          "indexed": false,
          "internalType": "address",
          "name": "account",
          "type": "address"
        }
      ],
      "name": "Unpaused",
      "type": "event"
    },
    {
      "inputs": [],
      "name": "DEFAULT_ADMIN_ROLE",
      "outputs": [
        {
          "internalType": "bytes32",
          "name": "",
          "type": "bytes32"
        }
      ],
      "stateMutability": "view",
      "type": "function",
      "constant": true
    },
    {
      "inputs": [],
      "name": "MINTER_ROLE",
      "outputs": [
        {
          "internalType": "bytes32",
          "name": "",
          "type": "bytes32"
        }
      ],
      "stateMutability": "view",
      "type": "function",
      "constant": true
    },
    {
      "inputs": [],
      "name": "PAUSER_ROLE",
      "outputs": [
        {
          "internalType": "bytes32",
          "name": "",
          "type": "bytes32"
        }
      ],
      "stateMutability": "view",
      "type": "function",
      "constant": true
    },
    {
      "inputs": [
        {
          "internalType": "address",
          "name": "to",
          "type": "address"
        },
        {
          "internalType": "uint256",
          "name": "tokenId",
          "type": "uint256"
        }
      ],
      "name": "approve",
      "outputs": [],
      "stateMutability": "nonpayable",
      "type": "function"
    },
    {
      "inputs": [
        {
          "internalType": "address",
          "name": "owner",
          "type": "address"
        }
      ],
      "name": "balanceOf",
      "outputs": [
        {
          "internalType": "uint256",
          "name": "",
          "type": "uint256"
        }
      ],
      "stateMutability": "view",
      "type": "function",
      "constant": true
    },
    {
      "inputs": [
        {
          "internalType": "uint256",
          "name": "tokenId",
          "type": "uint256"
        }
      ],
      "name": "burn",
      "outputs": [],
      "stateMutability": "nonpayable",
      "type": "function"
    },
    {
      "inputs": [
        {
          "internalType": "uint256",
          "name": "tokenId",
          "type": "uint256"
        }
      ],
      "name": "getApproved",
      "outputs": [
        {
          "internalType": "address",
          "name": "",
          "type": "address"
        }
      ],
      "stateMutability": "view",
      "type": "function",
      "constant": true
    },
    {
      "inputs": [
        {
          "internalType": "bytes32",
          "name": "role",
          "type": "bytes32"
        }
      ],
      "name": "getRoleAdmin",
      "outputs": [
        {
          "internalType": "bytes32",
          "name": "",
          "type": "bytes32"
        }
      ],
      "stateMutability": "view",
      "type": "function",
      "constant": true
    },
    {
      "inputs": [
        {
          "internalType": "bytes32",
          "name": "role",
          "type": "bytes32"
        },
        {
          "internalType": "uint256",
          "name": "index",
          "type": "uint256"
        }
      ],
      "name": "getRoleMember",
      "outputs": [
        {
          "internalType": "address",
          "name": "",
          "type": "address"
        }
      ],
      "stateMutability": "view",
      "type": "function",
      "constant": true
    },
    {
      "inputs": [
        {
          "internalType": "bytes32",
          "name": "role",
          "type": "bytes32"
        }
      ],
      "name": "getRoleMemberCount",
      "outputs": [
        {
          "internalType": "uint256",
          "name": "",
          "type": "uint256"
        }
      ],
      "stateMutability": "view",
      "type": "function",
      "constant": true
    },
    {
      "inputs": [
        {
          "internalType": "uint256",
          "name": "tokenId",
          "type": "uint256"
        }
      ],
      "name": "getScoreHashByTokenId",
      "outputs": [
        {
          "internalType": "string",
          "name": "",
          "type": "string"
        }
      ],
      "stateMutability": "view",
      "type": "function",
      "constant": true
    },
    {
      "inputs": [
        {
          "internalType": "bytes32",
          "name": "role",
          "type": "bytes32"
        },
        {
          "internalType": "address",
          "name": "account",
          "type": "address"
        }
      ],
      "name": "grantRole",
      "outputs": [],
      "stateMutability": "nonpayable",
      "type": "function"
    },
    {
      "inputs": [
        {
          "internalType": "bytes32",
          "name": "role",
          "type": "bytes32"
        },
        {
          "internalType": "address",
          "name": "account",
          "type": "address"
        }
      ],
      "name": "hasRole",
      "outputs": [
        {
          "internalType": "bool",
          "name": "",
          "type": "bool"
        }
      ],
      "stateMutability": "view",
      "type": "function",
      "constant": true
    },
    {
      "inputs": [
        {
          "internalType": "address",
          "name": "owner",
          "type": "address"
        },
        {
          "internalType": "address",
          "name": "operator",
          "type": "address"
        }
      ],
      "name": "isApprovedForAll",
      "outputs": [
        {
          "internalType": "bool",
          "name": "",
          "type": "bool"
        }
      ],
      "stateMutability": "view",
      "type": "function",
      "constant": true
    },
    {
      "inputs": [],
      "name": "name",
      "outputs": [
        {
          "internalType": "string",
          "name": "",
          "type": "string"
        }
      ],
      "stateMutability": "view",
      "type": "function",
      "constant": true
    },
    {
      "inputs": [
        {
          "internalType": "uint256",
          "name": "tokenId",
          "type": "uint256"
        }
      ],
      "name": "ownerOf",
      "outputs": [
        {
          "internalType": "address",
          "name": "",
          "type": "address"
        }
      ],
      "stateMutability": "view",
      "type": "function",
      "constant": true
    },
    {
      "inputs": [],
      "name": "paused",
      "outputs": [
        {
          "internalType": "bool",
          "name": "",
          "type": "bool"
        }
      ],
      "stateMutability": "view",
      "type": "function",
      "constant": true
    },
    {
      "inputs": [
        {
          "internalType": "bytes32",
          "name": "role",
          "type": "bytes32"
        },
        {
          "internalType": "address",
          "name": "account",
          "type": "address"
        }
      ],
      "name": "renounceRole",
      "outputs": [],
      "stateMutability": "nonpayable",
      "type": "function"
    },
    {
      "inputs": [
        {
          "internalType": "bytes32",
          "name": "role",
          "type": "bytes32"
        },
        {
          "internalType": "address",
          "name": "account",
          "type": "address"
        }
      ],
      "name": "revokeRole",
      "outputs": [],
      "stateMutability": "nonpayable",
      "type": "function"
    },
    {
      "inputs": [
        {
          "internalType": "address",
          "name": "from",
          "type": "address"
        },
        {
          "internalType": "address",
          "name": "to",
          "type": "address"
        },
        {
          "internalType": "uint256",
          "name": "tokenId",
          "type": "uint256"
        }
      ],
      "name": "safeTransferFrom",
      "outputs": [],
      "stateMutability": "nonpayable",
      "type": "function"
    },
    {
      "inputs": [
        {
          "internalType": "address",
          "name": "from",
          "type": "address"
        },
        {
          "internalType": "address",
          "name": "to",
          "type": "address"
        },
        {
          "internalType": "uint256",
          "name": "tokenId",
          "type": "uint256"
        },
        {
          "internalType": "bytes",
          "name": "_data",
          "type": "bytes"
        }
      ],
      "name": "safeTransferFrom",
      "outputs": [],
      "stateMutability": "nonpayable",
      "type": "function"
    },
    {
      "inputs": [
        {
          "internalType": "address",
          "name": "operator",
          "type": "address"
        },
        {
          "internalType": "bool",
          "name": "approved",
          "type": "bool"
        }
      ],
      "name": "setApprovalForAll",
      "outputs": [],
      "stateMutability": "nonpayable",
      "type": "function"
    },
    {
      "inputs": [],
      "name": "symbol",
      "outputs": [
        {
          "internalType": "string",
          "name": "",
          "type": "string"
        }
      ],
      "stateMutability": "view",
      "type": "function",
      "constant": true
    },
    {
      "inputs": [
        {
          "internalType": "uint256",
          "name": "index",
          "type": "uint256"
        }
      ],
      "name": "tokenByIndex",
      "outputs": [
        {
          "internalType": "uint256",
          "name": "",
          "type": "uint256"
        }
      ],
      "stateMutability": "view",
      "type": "function",
      "constant": true
    },
    {
      "inputs": [
        {
          "internalType": "address",
          "name": "owner",
          "type": "address"
        },
        {
          "internalType": "uint256",
          "name": "index",
          "type": "uint256"
        }
      ],
      "name": "tokenOfOwnerByIndex",
      "outputs": [
        {
          "internalType": "uint256",
          "name": "",
          "type": "uint256"
        }
      ],
      "stateMutability": "view",
      "type": "function",
      "constant": true
    },
    {
      "inputs": [
        {
          "internalType": "uint256",
          "name": "tokenId",
          "type": "uint256"
        }
      ],
      "name": "tokenURI",
      "outputs": [
        {
          "internalType": "string",
          "name": "",
          "type": "string"
        }
      ],
      "stateMutability": "view",
      "type": "function",
      "constant": true
    },
    {
      "inputs": [],
      "name": "totalSupply",
      "outputs": [
        {
          "internalType": "uint256",
          "name": "",
          "type": "uint256"
        }
      ],
      "stateMutability": "view",
      "type": "function",
      "constant": true
    },
    {
      "inputs": [
        {
          "internalType": "address",
          "name": "from",
          "type": "address"
        },
        {
          "internalType": "address",
          "name": "to",
          "type": "address"
        },
        {
          "internalType": "uint256",
          "name": "tokenId",
          "type": "uint256"
        }
      ],
      "name": "transferFrom",
      "outputs": [],
      "stateMutability": "nonpayable",
      "type": "function"
    },
    {
      "inputs": [
        {
          "internalType": "address",
          "name": "to",
          "type": "address"
        },
        {
          "internalType": "string",
          "name": "scorehash",
          "type": "string"
        }
      ],
      "name": "mint",
      "outputs": [],
      "stateMutability": "nonpayable",
      "type": "function"
    },
    {
      "inputs": [],
      "name": "pause",
      "outputs": [],
      "stateMutability": "nonpayable",
      "type": "function"
    },
    {
      "inputs": [],
      "name": "unpause",
      "outputs": [],
      "stateMutability": "nonpayable",
      "type": "function"
    },
    {
      "inputs": [
        {
          "internalType": "bytes4",
          "name": "interfaceId",
          "type": "bytes4"
        }
      ],
      "name": "supportsInterface",
      "outputs": [
        {
          "internalType": "bool",
          "name": "",
          "type": "bool"
        }
      ],
      "stateMutability": "view",
      "type": "function",
      "constant": true
    }
  ],
  "bytecode": "0x60806040523480156200001157600080fd5b506040516200542e3803806200542e833981810160405281019062000037919062000508565b8282816002908051906020019062000051929190620003e6565b5080600390805190602001906200006a929190620003e6565b5050506000600d60006101000a81548160ff02191690831515021790555080600f9080519060200190620000a0929190620003e6565b50620000c56000801b620000b96200015060201b60201c565b6200015860201b60201c565b620001067f9f2df0fed2c77648de5860a4cc508cd0818c85b8b8a1ab4ceeef8d981c8956a6620000fa6200015060201b60201c565b6200015860201b60201c565b620001477f65d7a28e3265b37a6474929f336521b332c1681b933f6cb9f3376673440d862a6200013b6200015060201b60201c565b6200015860201b60201c565b50505062000719565b600033905090565b6200016f8282620001a060201b620013ec1760201c565b6200019b8160016000858152602001908152602001600020620001b660201b620013fa1790919060201c565b505050565b620001b28282620001ee60201b60201c565b5050565b6000620001e6836000018373ffffffffffffffffffffffffffffffffffffffff1660001b620002df60201b60201c565b905092915050565b6200020082826200035960201b60201c565b620002db57600160008084815260200190815260200160002060000160008373ffffffffffffffffffffffffffffffffffffffff1673ffffffffffffffffffffffffffffffffffffffff16815260200190815260200160002060006101000a81548160ff021916908315150217905550620002806200015060201b60201c565b73ffffffffffffffffffffffffffffffffffffffff168173ffffffffffffffffffffffffffffffffffffffff16837f2f8788117e7eff1d82e926ec794901d17c78024a50270940304540a733656f0d60405160405180910390a45b5050565b6000620002f38383620003c360201b60201c565b6200034e57826000018290806001815401808255809150506001900390600052602060002001600090919091909150558260000180549050836001016000848152602001908152602001600020819055506001905062000353565b600090505b92915050565b600080600084815260200190815260200160002060000160008373ffffffffffffffffffffffffffffffffffffffff1673ffffffffffffffffffffffffffffffffffffffff16815260200190815260200160002060009054906101000a900460ff16905092915050565b600080836001016000848152602001908152602001600020541415905092915050565b828054620003f4906200063e565b90600052602060002090601f01602090048101928262000418576000855562000464565b82601f106200043357805160ff191683800117855562000464565b8280016001018555821562000464579182015b828111156200046357825182559160200191906001019062000446565b5b50905062000473919062000477565b5090565b5b808211156200049257600081600090555060010162000478565b5090565b6000620004ad620004a784620005d2565b620005a9565b905082815260208101848484011115620004c657600080fd5b620004d384828562000608565b509392505050565b600082601f830112620004ed57600080fd5b8151620004ff84826020860162000496565b91505092915050565b6000806000606084860312156200051e57600080fd5b600084015167ffffffffffffffff8111156200053957600080fd5b6200054786828701620004db565b935050602084015167ffffffffffffffff8111156200056557600080fd5b6200057386828701620004db565b925050604084015167ffffffffffffffff8111156200059157600080fd5b6200059f86828701620004db565b9150509250925092565b6000620005b5620005c8565b9050620005c3828262000674565b919050565b6000604051905090565b600067ffffffffffffffff821115620005f057620005ef620006d9565b5b620005fb8262000708565b9050602081019050919050565b60005b83811015620006285780820151818401526020810190506200060b565b8381111562000638576000848401525b50505050565b600060028204905060018216806200065757607f821691505b602082108114156200066e576200066d620006aa565b5b50919050565b6200067f8262000708565b810181811067ffffffffffffffff82111715620006a157620006a0620006d9565b5b80604052505050565b7f4e487b7100000000000000000000000000000000000000000000000000000000600052602260045260246000fd5b7f4e487b7100000000000000000000000000000000000000000000000000000000600052604160045260246000fd5b6000601f19601f8301169050919050565b614d0580620007296000396000f3fe608060405234801561001057600080fd5b50600436106101f05760003560e01c80636779288f1161010f578063b88d4fde116100a2578063d539139311610071578063d5391393146105db578063d547741f146105f9578063e63ab1e914610615578063e985e9c514610633576101f0565b8063b88d4fde14610543578063c87b56dd1461055f578063ca15c8731461058f578063d0def521146105bf576101f0565b806391d14854116100de57806391d14854146104bb57806395d89b41146104eb578063a217fddf14610509578063a22cb46514610527576101f0565b80636779288f1461042157806370a08231146104515780638456cb59146104815780639010d07c1461048b576101f0565b80632f745c591161018757806342966c681161015657806342966c68146103875780634f6ccce7146103a35780635c975abb146103d35780636352211e146103f1576101f0565b80632f745c591461031557806336568abe146103455780633f4ba83a1461036157806342842e0e1461036b576101f0565b806318160ddd116101c357806318160ddd1461028f57806323b872dd146102ad578063248a9ca3146102c95780632f2ff15d146102f9576101f0565b806301ffc9a7146101f557806306fdde0314610225578063081812fc14610243578063095ea7b314610273575b600080fd5b61020f600480360381019061020a91906136cf565b610663565b60405161021c9190613cc2565b60405180910390f35b61022d610675565b60405161023a9190613cf8565b60405180910390f35b61025d60048036038101906102589190613721565b610707565b60405161026a9190613c5b565b60405180910390f35b61028d600480360381019061028891906135f2565b61078c565b005b6102976108a4565b6040516102a4919061405a565b60405180910390f35b6102c760048036038101906102c29190613498565b6108b1565b005b6102e360048036038101906102de919061362e565b610911565b6040516102f09190613cdd565b60405180910390f35b610313600480360381019061030e9190613657565b610930565b005b61032f600480360381019061032a91906135f2565b610964565b60405161033c919061405a565b60405180910390f35b61035f600480360381019061035a9190613657565b610a09565b005b610369610a3d565b005b61038560048036038101906103809190613498565b610ab7565b005b6103a1600480360381019061039c9190613721565b610ad7565b005b6103bd60048036038101906103b89190613721565b610b33565b6040516103ca919061405a565b60405180910390f35b6103db610bca565b6040516103e89190613cc2565b60405180910390f35b61040b60048036038101906104069190613721565b610be1565b6040516104189190613c5b565b60405180910390f35b61043b60048036038101906104369190613721565b610c93565b6040516104489190613cf8565b60405180910390f35b61046b60048036038101906104669190613433565b610d38565b604051610478919061405a565b60405180910390f35b610489610df0565b005b6104a560048036038101906104a09190613693565b610e6a565b6040516104b29190613c5b565b60405180910390f35b6104d560048036038101906104d09190613657565b610e99565b6040516104e29190613cc2565b60405180910390f35b6104f3610f03565b6040516105009190613cf8565b60405180910390f35b610511610f95565b60405161051e9190613cdd565b60405180910390f35b610541600480360381019061053c9190613562565b610f9c565b005b61055d600480360381019061055891906134e7565b61111d565b005b61057960048036038101906105749190613721565b61117f565b6040516105869190613cf8565b60405180910390f35b6105a960048036038101906105a4919061362e565b611226565b6040516105b6919061405a565b60405180910390f35b6105d960048036038101906105d4919061359e565b61124a565b005b6105e36112dc565b6040516105f09190613cdd565b60405180910390f35b610613600480360381019061060e9190613657565b611300565b005b61061d611334565b60405161062a9190613cdd565b60405180910390f35b61064d6004803603810190610648919061345c565b611358565b60405161065a9190613cc2565b60405180910390f35b600061066e8261142a565b9050919050565b6060600280546106849061433e565b80601f01602080910402602001604051908101604052809291908181526020018280546106b09061433e565b80156106fd5780601f106106d2576101008083540402835291602001916106fd565b820191906000526020600020905b8154815290600101906020018083116106e057829003601f168201915b5050505050905090565b6000610712826114a4565b610751576040517f08c379a000000000000000000000000000000000000000000000000000000000815260040161074890613f1a565b60405180910390fd5b6007600083815260200190815260200160002060009054906101000a900473ffffffffffffffffffffffffffffffffffffffff169050919050565b600061079782610be1565b90508073ffffffffffffffffffffffffffffffffffffffff168373ffffffffffffffffffffffffffffffffffffffff161415610808576040517f08c379a00000000000000000000000000000000000000000000000000000000081526004016107ff90613f7a565b60405180910390fd5b8073ffffffffffffffffffffffffffffffffffffffff16610827611510565b73ffffffffffffffffffffffffffffffffffffffff161480610856575061085581610850611510565b611358565b5b610895576040517f08c379a000000000000000000000000000000000000000000000000000000000815260040161088c90613e9a565b60405180910390fd5b61089f8383611518565b505050565b6000600b80549050905090565b6108c26108bc611510565b826115d1565b610901576040517f08c379a00000000000000000000000000000000000000000000000000000000081526004016108f890613f9a565b60405180910390fd5b61090c8383836116af565b505050565b6000806000838152602001908152602001600020600101549050919050565b61093a828261190b565b61095f81600160008581526020019081526020016000206113fa90919063ffffffff16565b505050565b600061096f83610d38565b82106109b0576040517f08c379a00000000000000000000000000000000000000000000000000000000081526004016109a790613d9a565b60405180910390fd5b600960008473ffffffffffffffffffffffffffffffffffffffff1673ffffffffffffffffffffffffffffffffffffffff168152602001908152602001600020600083815260200190815260200160002054905092915050565b610a138282611934565b610a3881600160008581526020019081526020016000206119b790919063ffffffff16565b505050565b610a6e7f65d7a28e3265b37a6474929f336521b332c1681b933f6cb9f3376673440d862a610a69611510565b610e99565b610aad576040517f08c379a0000000000000000000000000000000000000000000000000000000008152600401610aa49061401a565b60405180910390fd5b610ab56119e7565b565b610ad28383836040518060200160405280600081525061111d565b505050565b610ae8610ae2611510565b826115d1565b610b27576040517f08c379a0000000000000000000000000000000000000000000000000000000008152600401610b1e90613ffa565b60405180910390fd5b610b3081611a89565b50565b6000610b3d6108a4565b8210610b7e576040517f08c379a0000000000000000000000000000000000000000000000000000000008152600401610b7590613fba565b60405180910390fd5b600b8281548110610bb8577f4e487b7100000000000000000000000000000000000000000000000000000000600052603260045260246000fd5b90600052602060002001549050919050565b6000600d60009054906101000a900460ff16905090565b6000806004600084815260200190815260200160002060009054906101000a900473ffffffffffffffffffffffffffffffffffffffff169050600073ffffffffffffffffffffffffffffffffffffffff168173ffffffffffffffffffffffffffffffffffffffff161415610c8a576040517f08c379a0000000000000000000000000000000000000000000000000000000008152600401610c8190613eda565b60405180910390fd5b80915050919050565b6060600660008381526020019081526020016000208054610cb39061433e565b80601f0160208091040260200160405190810160405280929190818152602001828054610cdf9061433e565b8015610d2c5780601f10610d0157610100808354040283529160200191610d2c565b820191906000526020600020905b815481529060010190602001808311610d0f57829003601f168201915b50505050509050919050565b60008073ffffffffffffffffffffffffffffffffffffffff168273ffffffffffffffffffffffffffffffffffffffff161415610da9576040517f08c379a0000000000000000000000000000000000000000000000000000000008152600401610da090613eba565b60405180910390fd5b600560008373ffffffffffffffffffffffffffffffffffffffff1673ffffffffffffffffffffffffffffffffffffffff168152602001908152602001600020549050919050565b610e217f65d7a28e3265b37a6474929f336521b332c1681b933f6cb9f3376673440d862a610e1c611510565b610e99565b610e60576040517f08c379a0000000000000000000000000000000000000000000000000000000008152600401610e5790613dfa565b60405180910390fd5b610e68611b9a565b565b6000610e918260016000868152602001908152602001600020611c3d90919063ffffffff16565b905092915050565b600080600084815260200190815260200160002060000160008373ffffffffffffffffffffffffffffffffffffffff1673ffffffffffffffffffffffffffffffffffffffff16815260200190815260200160002060009054906101000a900460ff16905092915050565b606060038054610f129061433e565b80601f0160208091040260200160405190810160405280929190818152602001828054610f3e9061433e565b8015610f8b5780601f10610f6057610100808354040283529160200191610f8b565b820191906000526020600020905b815481529060010190602001808311610f6e57829003601f168201915b5050505050905090565b6000801b81565b610fa4611510565b73ffffffffffffffffffffffffffffffffffffffff168273ffffffffffffffffffffffffffffffffffffffff161415611012576040517f08c379a000000000000000000000000000000000000000000000000000000000815260040161100990613e3a565b60405180910390fd5b806008600061101f611510565b73ffffffffffffffffffffffffffffffffffffffff1673ffffffffffffffffffffffffffffffffffffffff16815260200190815260200160002060008473ffffffffffffffffffffffffffffffffffffffff1673ffffffffffffffffffffffffffffffffffffffff16815260200190815260200160002060006101000a81548160ff0219169083151502179055508173ffffffffffffffffffffffffffffffffffffffff166110cc611510565b73ffffffffffffffffffffffffffffffffffffffff167f17307eab39ab6107e8899845ad3d59bd9653f200f220920489ca2b5937696c31836040516111119190613cc2565b60405180910390a35050565b61112e611128611510565b836115d1565b61116d576040517f08c379a000000000000000000000000000000000000000000000000000000000815260040161116490613f9a565b60405180910390fd5b61117984848484611c57565b50505050565b606061118a826114a4565b6111c9576040517f08c379a00000000000000000000000000000000000000000000000000000000081526004016111c090613f5a565b60405180910390fd5b60006111d3611cb3565b905060008151116111f3576040518060200160405280600081525061121e565b806111fd84611d45565b60405160200161120e929190613bfd565b6040516020818303038152906040525b915050919050565b600061124360016000848152602001908152602001600020611ef2565b9050919050565b61127b7f9f2df0fed2c77648de5860a4cc508cd0818c85b8b8a1ab4ceeef8d981c8956a6611276611510565b610e99565b6112ba576040517f08c379a00000000000000000000000000000000000000000000000000000000081526004016112b190613fda565b60405180910390fd5b6112ce826112c8600e611f07565b83611f15565b6112d8600e61210c565b5050565b7f9f2df0fed2c77648de5860a4cc508cd0818c85b8b8a1ab4ceeef8d981c8956a681565b61130a8282612122565b61132f81600160008581526020019081526020016000206119b790919063ffffffff16565b505050565b7f65d7a28e3265b37a6474929f336521b332c1681b933f6cb9f3376673440d862a81565b6000600860008473ffffffffffffffffffffffffffffffffffffffff1673ffffffffffffffffffffffffffffffffffffffff16815260200190815260200160002060008373ffffffffffffffffffffffffffffffffffffffff1673ffffffffffffffffffffffffffffffffffffffff16815260200190815260200160002060009054906101000a900460ff16905092915050565b6113f6828261214b565b5050565b6000611422836000018373ffffffffffffffffffffffffffffffffffffffff1660001b61222b565b905092915050565b60007f780e9d63000000000000000000000000000000000000000000000000000000007bffffffffffffffffffffffffffffffffffffffffffffffffffffffff1916827bffffffffffffffffffffffffffffffffffffffffffffffffffffffff1916148061149d575061149c8261229b565b5b9050919050565b60008073ffffffffffffffffffffffffffffffffffffffff166004600084815260200190815260200160002060009054906101000a900473ffffffffffffffffffffffffffffffffffffffff1673ffffffffffffffffffffffffffffffffffffffff1614159050919050565b600033905090565b816007600083815260200190815260200160002060006101000a81548173ffffffffffffffffffffffffffffffffffffffff021916908373ffffffffffffffffffffffffffffffffffffffff160217905550808273ffffffffffffffffffffffffffffffffffffffff1661158b83610be1565b73ffffffffffffffffffffffffffffffffffffffff167f8c5be1e5ebec7d5bd14f71427d1e84f3dd0314c0f7b2291e5b200ac8c7c3b92560405160405180910390a45050565b60006115dc826114a4565b61161b576040517f08c379a000000000000000000000000000000000000000000000000000000000815260040161161290613e5a565b60405180910390fd5b600061162683610be1565b90508073ffffffffffffffffffffffffffffffffffffffff168473ffffffffffffffffffffffffffffffffffffffff16148061169557508373ffffffffffffffffffffffffffffffffffffffff1661167d84610707565b73ffffffffffffffffffffffffffffffffffffffff16145b806116a657506116a58185611358565b5b91505092915050565b8273ffffffffffffffffffffffffffffffffffffffff166116cf82610be1565b73ffffffffffffffffffffffffffffffffffffffff1614611725576040517f08c379a000000000000000000000000000000000000000000000000000000000815260040161171c90613f3a565b60405180910390fd5b600073ffffffffffffffffffffffffffffffffffffffff168273ffffffffffffffffffffffffffffffffffffffff161415611795576040517f08c379a000000000000000000000000000000000000000000000000000000000815260040161178c90613e1a565b60405180910390fd5b6117a083838361237d565b6117ab600082611518565b6001600560008573ffffffffffffffffffffffffffffffffffffffff1673ffffffffffffffffffffffffffffffffffffffff16815260200190815260200160002060008282546117fb9190614220565b925050819055506001600560008473ffffffffffffffffffffffffffffffffffffffff1673ffffffffffffffffffffffffffffffffffffffff1681526020019081526020016000206000828254611852919061413f565b92505081905550816004600083815260200190815260200160002060006101000a81548173ffffffffffffffffffffffffffffffffffffffff021916908373ffffffffffffffffffffffffffffffffffffffff160217905550808273ffffffffffffffffffffffffffffffffffffffff168473ffffffffffffffffffffffffffffffffffffffff167fddf252ad1be2c89b69c2b068fc378daa952ba7f163c4a11628f55a4df523b3ef60405160405180910390a4505050565b61191482610911565b61192581611920611510565b61238d565b61192f838361214b565b505050565b61193c611510565b73ffffffffffffffffffffffffffffffffffffffff168173ffffffffffffffffffffffffffffffffffffffff16146119a9576040517f08c379a00000000000000000000000000000000000000000000000000000000081526004016119a09061403a565b60405180910390fd5b6119b3828261242a565b5050565b60006119df836000018373ffffffffffffffffffffffffffffffffffffffff1660001b61250b565b905092915050565b6119ef610bca565b611a2e576040517f08c379a0000000000000000000000000000000000000000000000000000000008152600401611a2590613d7a565b60405180910390fd5b6000600d60006101000a81548160ff0219169083151502179055507f5db9ee0a495bf2e6ff9c91a7834c1ba4fdd244a5e8aa4e537bd38aeae4b073aa611a72611510565b604051611a7f9190613c5b565b60405180910390a1565b6000611a9482610be1565b9050611aa28160008461237d565b611aad600083611518565b6001600560008373ffffffffffffffffffffffffffffffffffffffff1673ffffffffffffffffffffffffffffffffffffffff1681526020019081526020016000206000828254611afd9190614220565b925050819055506004600083815260200190815260200160002060006101000a81549073ffffffffffffffffffffffffffffffffffffffff021916905581600073ffffffffffffffffffffffffffffffffffffffff168273ffffffffffffffffffffffffffffffffffffffff167fddf252ad1be2c89b69c2b068fc378daa952ba7f163c4a11628f55a4df523b3ef60405160405180910390a45050565b611ba2610bca565b15611be2576040517f08c379a0000000000000000000000000000000000000000000000000000000008152600401611bd990613e7a565b60405180910390fd5b6001600d60006101000a81548160ff0219169083151502179055507f62e78cea01bee320cd4e420270b5ea74000d11b0c9f74754ebdbfc544b05a258611c26611510565b604051611c339190613c5b565b60405180910390a1565b6000611c4c8360000183612689565b60001c905092915050565b611c628484846116af565b611c6e84848484612723565b611cad576040517f08c379a0000000000000000000000000000000000000000000000000000000008152600401611ca490613dba565b60405180910390fd5b50505050565b6060600f8054611cc29061433e565b80601f0160208091040260200160405190810160405280929190818152602001828054611cee9061433e565b8015611d3b5780601f10611d1057610100808354040283529160200191611d3b565b820191906000526020600020905b815481529060010190602001808311611d1e57829003601f168201915b5050505050905090565b60606000821415611d8d576040518060400160405280600181526020017f30000000000000000000000000000000000000000000000000000000000000008152509050611eed565b600082905060005b60008214611dbf578080611da8906143a1565b915050600a82611db89190614195565b9150611d95565b60008167ffffffffffffffff811115611e01577f4e487b7100000000000000000000000000000000000000000000000000000000600052604160045260246000fd5b6040519080825280601f01601f191660200182016040528015611e335781602001600182028036833780820191505090505b5090505b60008514611ee657600182611e4c9190614220565b9150600a85611e5b91906143ea565b6030611e67919061413f565b60f81b818381518110611ea3577f4e487b7100000000000000000000000000000000000000000000000000000000600052603260045260246000fd5b60200101907effffffffffffffffffffffffffffffffffffffffffffffffffffffffffffff1916908160001a905350600a85611edf9190614195565b9450611e37565b8093505050505b919050565b6000611f00826000016128ba565b9050919050565b600081600001549050919050565b600073ffffffffffffffffffffffffffffffffffffffff168373ffffffffffffffffffffffffffffffffffffffff161415611f85576040517f08c379a0000000000000000000000000000000000000000000000000000000008152600401611f7c90613efa565b60405180910390fd5b611f8e826114a4565b15611fce576040517f08c379a0000000000000000000000000000000000000000000000000000000008152600401611fc590613dda565b60405180910390fd5b611fda6000848461237d565b6001600560008573ffffffffffffffffffffffffffffffffffffffff1673ffffffffffffffffffffffffffffffffffffffff168152602001908152602001600020600082825461202a919061413f565b92505081905550826004600084815260200190815260200160002060006101000a81548173ffffffffffffffffffffffffffffffffffffffff021916908373ffffffffffffffffffffffffffffffffffffffff160217905550806006600084815260200190815260200160002090805190602001906120aa929190613242565b50818373ffffffffffffffffffffffffffffffffffffffff16600073ffffffffffffffffffffffffffffffffffffffff167fddf252ad1be2c89b69c2b068fc378daa952ba7f163c4a11628f55a4df523b3ef60405160405180910390a4505050565b6001816000016000828254019250508190555050565b61212b82610911565b61213c81612137611510565b61238d565b612146838361242a565b505050565b6121558282610e99565b61222757600160008084815260200190815260200160002060000160008373ffffffffffffffffffffffffffffffffffffffff1673ffffffffffffffffffffffffffffffffffffffff16815260200190815260200160002060006101000a81548160ff0219169083151502179055506121cc611510565b73ffffffffffffffffffffffffffffffffffffffff168173ffffffffffffffffffffffffffffffffffffffff16837f2f8788117e7eff1d82e926ec794901d17c78024a50270940304540a733656f0d60405160405180910390a45b5050565b600061223783836128cb565b612290578260000182908060018154018082558091505060019003906000526020600020016000909190919091505582600001805490508360010160008481526020019081526020016000208190555060019050612295565b600090505b92915050565b60007f80ac58cd000000000000000000000000000000000000000000000000000000007bffffffffffffffffffffffffffffffffffffffffffffffffffffffff1916827bffffffffffffffffffffffffffffffffffffffffffffffffffffffff1916148061236657507f5b5e139f000000000000000000000000000000000000000000000000000000007bffffffffffffffffffffffffffffffffffffffffffffffffffffffff1916827bffffffffffffffffffffffffffffffffffffffffffffffffffffffff1916145b806123765750612375826128ee565b5b9050919050565b612388838383612968565b505050565b6123978282610e99565b612426576123bc8173ffffffffffffffffffffffffffffffffffffffff1660146129c0565b6123ca8360001c60206129c0565b6040516020016123db929190613c21565b6040516020818303038152906040526040517f08c379a000000000000000000000000000000000000000000000000000000000815260040161241d9190613cf8565b60405180910390fd5b5050565b6124348282610e99565b1561250757600080600084815260200190815260200160002060000160008373ffffffffffffffffffffffffffffffffffffffff1673ffffffffffffffffffffffffffffffffffffffff16815260200190815260200160002060006101000a81548160ff0219169083151502179055506124ac611510565b73ffffffffffffffffffffffffffffffffffffffff168173ffffffffffffffffffffffffffffffffffffffff16837ff6391f5c32d9c69d2a47ea670b442974b53935d1edc7fd64eb21e047a839171b60405160405180910390a45b5050565b6000808360010160008481526020019081526020016000205490506000811461267d57600060018261253d9190614220565b90506000600186600001805490506125559190614220565b90506000866000018281548110612595577f4e487b7100000000000000000000000000000000000000000000000000000000600052603260045260246000fd5b90600052602060002001549050808760000184815481106125df577f4e487b7100000000000000000000000000000000000000000000000000000000600052603260045260246000fd5b9060005260206000200181905550838760010160008381526020019081526020016000208190555086600001805480612641577f4e487b7100000000000000000000000000000000000000000000000000000000600052603160045260246000fd5b60019003818190600052602060002001600090559055866001016000878152602001908152602001600020600090556001945050505050612683565b60009150505b92915050565b6000818360000180549050116126d4576040517f08c379a00000000000000000000000000000000000000000000000000000000081526004016126cb90613d1a565b60405180910390fd5b826000018281548110612710577f4e487b7100000000000000000000000000000000000000000000000000000000600052603260045260246000fd5b9060005260206000200154905092915050565b60006127448473ffffffffffffffffffffffffffffffffffffffff16612cba565b156128ad578373ffffffffffffffffffffffffffffffffffffffff1663150b7a0261276d611510565b8786866040518563ffffffff1660e01b815260040161278f9493929190613c76565b602060405180830381600087803b1580156127a957600080fd5b505af19250505080156127da57506040513d601f19601f820116820180604052508101906127d791906136f8565b60015b61285d573d806000811461280a576040519150601f19603f3d011682016040523d82523d6000602084013e61280f565b606091505b50600081511415612855576040517f08c379a000000000000000000000000000000000000000000000000000000000815260040161284c90613dba565b60405180910390fd5b805181602001fd5b63150b7a0260e01b7bffffffffffffffffffffffffffffffffffffffffffffffffffffffff1916817bffffffffffffffffffffffffffffffffffffffffffffffffffffffff1916149150506128b2565b600190505b949350505050565b600081600001805490509050919050565b600080836001016000848152602001908152602001600020541415905092915050565b60007f5a05180f000000000000000000000000000000000000000000000000000000007bffffffffffffffffffffffffffffffffffffffffffffffffffffffff1916827bffffffffffffffffffffffffffffffffffffffffffffffffffffffff19161480612961575061296082612ccd565b5b9050919050565b612973838383612d47565b61297b610bca565b156129bb576040517f08c379a00000000000000000000000000000000000000000000000000000000081526004016129b290613d5a565b60405180910390fd5b505050565b6060600060028360026129d391906141c6565b6129dd919061413f565b67ffffffffffffffff811115612a1c577f4e487b7100000000000000000000000000000000000000000000000000000000600052604160045260246000fd5b6040519080825280601f01601f191660200182016040528015612a4e5781602001600182028036833780820191505090505b5090507f300000000000000000000000000000000000000000000000000000000000000081600081518110612aac577f4e487b7100000000000000000000000000000000000000000000000000000000600052603260045260246000fd5b60200101907effffffffffffffffffffffffffffffffffffffffffffffffffffffffffffff1916908160001a9053507f780000000000000000000000000000000000000000000000000000000000000081600181518110612b36577f4e487b7100000000000000000000000000000000000000000000000000000000600052603260045260246000fd5b60200101907effffffffffffffffffffffffffffffffffffffffffffffffffffffffffffff1916908160001a90535060006001846002612b7691906141c6565b612b80919061413f565b90505b6001811115612c6c577f3031323334353637383961626364656600000000000000000000000000000000600f861660108110612be8577f4e487b7100000000000000000000000000000000000000000000000000000000600052603260045260246000fd5b1a60f81b828281518110612c25577f4e487b7100000000000000000000000000000000000000000000000000000000600052603260045260246000fd5b60200101907effffffffffffffffffffffffffffffffffffffffffffffffffffffffffffff1916908160001a905350600485901c945080612c6590614314565b9050612b83565b5060008414612cb0576040517f08c379a0000000000000000000000000000000000000000000000000000000008152600401612ca790613d3a565b60405180910390fd5b8091505092915050565b600080823b905060008111915050919050565b60007f7965db0b000000000000000000000000000000000000000000000000000000007bffffffffffffffffffffffffffffffffffffffffffffffffffffffff1916827bffffffffffffffffffffffffffffffffffffffffffffffffffffffff19161480612d405750612d3f82612e5b565b5b9050919050565b612d52838383612ec5565b600073ffffffffffffffffffffffffffffffffffffffff168373ffffffffffffffffffffffffffffffffffffffff161415612d9557612d9081612eca565b612dd4565b8173ffffffffffffffffffffffffffffffffffffffff168373ffffffffffffffffffffffffffffffffffffffff1614612dd357612dd28382612f13565b5b5b600073ffffffffffffffffffffffffffffffffffffffff168273ffffffffffffffffffffffffffffffffffffffff161415612e1757612e1281613080565b612e56565b8273ffffffffffffffffffffffffffffffffffffffff168273ffffffffffffffffffffffffffffffffffffffff1614612e5557612e5482826131c3565b5b5b505050565b60007f01ffc9a7000000000000000000000000000000000000000000000000000000007bffffffffffffffffffffffffffffffffffffffffffffffffffffffff1916827bffffffffffffffffffffffffffffffffffffffffffffffffffffffff1916149050919050565b505050565b600b80549050600c600083815260200190815260200160002081905550600b81908060018154018082558091505060019003906000526020600020016000909190919091505550565b60006001612f2084610d38565b612f2a9190614220565b90506000600a600084815260200190815260200160002054905081811461300f576000600960008673ffffffffffffffffffffffffffffffffffffffff1673ffffffffffffffffffffffffffffffffffffffff168152602001908152602001600020600084815260200190815260200160002054905080600960008773ffffffffffffffffffffffffffffffffffffffff1673ffffffffffffffffffffffffffffffffffffffff16815260200190815260200160002060008481526020019081526020016000208190555081600a600083815260200190815260200160002081905550505b600a600084815260200190815260200160002060009055600960008573ffffffffffffffffffffffffffffffffffffffff1673ffffffffffffffffffffffffffffffffffffffff16815260200190815260200160002060008381526020019081526020016000206000905550505050565b60006001600b805490506130949190614220565b90506000600c60008481526020019081526020016000205490506000600b83815481106130ea577f4e487b7100000000000000000000000000000000000000000000000000000000600052603260045260246000fd5b9060005260206000200154905080600b8381548110613132577f4e487b7100000000000000000000000000000000000000000000000000000000600052603260045260246000fd5b906000526020600020018190555081600c600083815260200190815260200160002081905550600c600085815260200190815260200160002060009055600b8054806131a7577f4e487b7100000000000000000000000000000000000000000000000000000000600052603160045260246000fd5b6001900381819060005260206000200160009055905550505050565b60006131ce83610d38565b905081600960008573ffffffffffffffffffffffffffffffffffffffff1673ffffffffffffffffffffffffffffffffffffffff16815260200190815260200160002060008381526020019081526020016000208190555080600a600084815260200190815260200160002081905550505050565b82805461324e9061433e565b90600052602060002090601f01602090048101928261327057600085556132b7565b82601f1061328957805160ff19168380011785556132b7565b828001600101855582156132b7579182015b828111156132b657825182559160200191906001019061329b565b5b5090506132c491906132c8565b5090565b5b808211156132e15760008160009055506001016132c9565b5090565b60006132f86132f38461409a565b614075565b90508281526020810184848401111561331057600080fd5b61331b8482856142d2565b509392505050565b6000613336613331846140cb565b614075565b90508281526020810184848401111561334e57600080fd5b6133598482856142d2565b509392505050565b60008135905061337081614c5c565b92915050565b60008135905061338581614c73565b92915050565b60008135905061339a81614c8a565b92915050565b6000813590506133af81614ca1565b92915050565b6000815190506133c481614ca1565b92915050565b600082601f8301126133db57600080fd5b81356133eb8482602086016132e5565b91505092915050565b600082601f83011261340557600080fd5b8135613415848260208601613323565b91505092915050565b60008135905061342d81614cb8565b92915050565b60006020828403121561344557600080fd5b600061345384828501613361565b91505092915050565b6000806040838503121561346f57600080fd5b600061347d85828601613361565b925050602061348e85828601613361565b9150509250929050565b6000806000606084860312156134ad57600080fd5b60006134bb86828701613361565b93505060206134cc86828701613361565b92505060406134dd8682870161341e565b9150509250925092565b600080600080608085870312156134fd57600080fd5b600061350b87828801613361565b945050602061351c87828801613361565b935050604061352d8782880161341e565b925050606085013567ffffffffffffffff81111561354a57600080fd5b613556878288016133ca565b91505092959194509250565b6000806040838503121561357557600080fd5b600061358385828601613361565b925050602061359485828601613376565b9150509250929050565b600080604083850312156135b157600080fd5b60006135bf85828601613361565b925050602083013567ffffffffffffffff8111156135dc57600080fd5b6135e8858286016133f4565b9150509250929050565b6000806040838503121561360557600080fd5b600061361385828601613361565b92505060206136248582860161341e565b9150509250929050565b60006020828403121561364057600080fd5b600061364e8482850161338b565b91505092915050565b6000806040838503121561366a57600080fd5b60006136788582860161338b565b925050602061368985828601613361565b9150509250929050565b600080604083850312156136a657600080fd5b60006136b48582860161338b565b92505060206136c58582860161341e565b9150509250929050565b6000602082840312156136e157600080fd5b60006136ef848285016133a0565b91505092915050565b60006020828403121561370a57600080fd5b6000613718848285016133b5565b91505092915050565b60006020828403121561373357600080fd5b60006137418482850161341e565b91505092915050565b61375381614254565b82525050565b61376281614266565b82525050565b61377181614272565b82525050565b6000613782826140fc565b61378c8185614112565b935061379c8185602086016142e1565b6137a5816144d7565b840191505092915050565b60006137bb82614107565b6137c58185614123565b93506137d58185602086016142e1565b6137de816144d7565b840191505092915050565b60006137f482614107565b6137fe8185614134565b935061380e8185602086016142e1565b80840191505092915050565b6000613827602283614123565b9150613832826144e8565b604082019050919050565b600061384a602083614123565b915061385582614537565b602082019050919050565b600061386d602b83614123565b915061387882614560565b604082019050919050565b6000613890601483614123565b915061389b826145af565b602082019050919050565b60006138b3602b83614123565b91506138be826145d8565b604082019050919050565b60006138d6603283614123565b91506138e182614627565b604082019050919050565b60006138f9601c83614123565b915061390482614676565b602082019050919050565b600061391c603e83614123565b91506139278261469f565b604082019050919050565b600061393f602483614123565b915061394a826146ee565b604082019050919050565b6000613962601983614123565b915061396d8261473d565b602082019050919050565b6000613985602c83614123565b915061399082614766565b604082019050919050565b60006139a8601083614123565b91506139b3826147b5565b602082019050919050565b60006139cb603883614123565b91506139d6826147de565b604082019050919050565b60006139ee602a83614123565b91506139f98261482d565b604082019050919050565b6000613a11602983614123565b9150613a1c8261487c565b604082019050919050565b6000613a34602083614123565b9150613a3f826148cb565b602082019050919050565b6000613a57602c83614123565b9150613a62826148f4565b604082019050919050565b6000613a7a602983614123565b9150613a8582614943565b604082019050919050565b6000613a9d602f83614123565b9150613aa882614992565b604082019050919050565b6000613ac0602183614123565b9150613acb826149e1565b604082019050919050565b6000613ae3603183614123565b9150613aee82614a30565b604082019050919050565b6000613b06602c83614123565b9150613b1182614a7f565b604082019050919050565b6000613b29601783614134565b9150613b3482614ace565b601782019050919050565b6000613b4c603d83614123565b9150613b5782614af7565b604082019050919050565b6000613b6f603083614123565b9150613b7a82614b46565b604082019050919050565b6000613b92604083614123565b9150613b9d82614b95565b604082019050919050565b6000613bb5601183614134565b9150613bc082614be4565b601182019050919050565b6000613bd8602f83614123565b9150613be382614c0d565b604082019050919050565b613bf7816142c8565b82525050565b6000613c0982856137e9565b9150613c1582846137e9565b91508190509392505050565b6000613c2c82613b1c565b9150613c3882856137e9565b9150613c4382613ba8565b9150613c4f82846137e9565b91508190509392505050565b6000602082019050613c70600083018461374a565b92915050565b6000608082019050613c8b600083018761374a565b613c98602083018661374a565b613ca56040830185613bee565b8181036060830152613cb78184613777565b905095945050505050565b6000602082019050613cd76000830184613759565b92915050565b6000602082019050613cf26000830184613768565b92915050565b60006020820190508181036000830152613d1281846137b0565b905092915050565b60006020820190508181036000830152613d338161381a565b9050919050565b60006020820190508181036000830152613d538161383d565b9050919050565b60006020820190508181036000830152613d7381613860565b9050919050565b60006020820190508181036000830152613d9381613883565b9050919050565b60006020820190508181036000830152613db3816138a6565b9050919050565b60006020820190508181036000830152613dd3816138c9565b9050919050565b60006020820190508181036000830152613df3816138ec565b9050919050565b60006020820190508181036000830152613e138161390f565b9050919050565b60006020820190508181036000830152613e3381613932565b9050919050565b60006020820190508181036000830152613e5381613955565b9050919050565b60006020820190508181036000830152613e7381613978565b9050919050565b60006020820190508181036000830152613e938161399b565b9050919050565b60006020820190508181036000830152613eb3816139be565b9050919050565b60006020820190508181036000830152613ed3816139e1565b9050919050565b60006020820190508181036000830152613ef381613a04565b9050919050565b60006020820190508181036000830152613f1381613a27565b9050919050565b60006020820190508181036000830152613f3381613a4a565b9050919050565b60006020820190508181036000830152613f5381613a6d565b9050919050565b60006020820190508181036000830152613f7381613a90565b9050919050565b60006020820190508181036000830152613f9381613ab3565b9050919050565b60006020820190508181036000830152613fb381613ad6565b9050919050565b60006020820190508181036000830152613fd381613af9565b9050919050565b60006020820190508181036000830152613ff381613b3f565b9050919050565b6000602082019050818103600083015261401381613b62565b9050919050565b6000602082019050818103600083015261403381613b85565b9050919050565b6000602082019050818103600083015261405381613bcb565b9050919050565b600060208201905061406f6000830184613bee565b92915050565b600061407f614090565b905061408b8282614370565b919050565b6000604051905090565b600067ffffffffffffffff8211156140b5576140b46144a8565b5b6140be826144d7565b9050602081019050919050565b600067ffffffffffffffff8211156140e6576140e56144a8565b5b6140ef826144d7565b9050602081019050919050565b600081519050919050565b600081519050919050565b600082825260208201905092915050565b600082825260208201905092915050565b600081905092915050565b600061414a826142c8565b9150614155836142c8565b9250827fffffffffffffffffffffffffffffffffffffffffffffffffffffffffffffffff0382111561418a5761418961441b565b5b828201905092915050565b60006141a0826142c8565b91506141ab836142c8565b9250826141bb576141ba61444a565b5b828204905092915050565b60006141d1826142c8565b91506141dc836142c8565b9250817fffffffffffffffffffffffffffffffffffffffffffffffffffffffffffffffff04831182151516156142155761421461441b565b5b828202905092915050565b600061422b826142c8565b9150614236836142c8565b9250828210156142495761424861441b565b5b828203905092915050565b600061425f826142a8565b9050919050565b60008115159050919050565b6000819050919050565b60007fffffffff0000000000000000000000000000000000000000000000000000000082169050919050565b600073ffffffffffffffffffffffffffffffffffffffff82169050919050565b6000819050919050565b82818337600083830152505050565b60005b838110156142ff5780820151818401526020810190506142e4565b8381111561430e576000848401525b50505050565b600061431f826142c8565b915060008214156143335761433261441b565b5b600182039050919050565b6000600282049050600182168061435657607f821691505b6020821081141561436a57614369614479565b5b50919050565b614379826144d7565b810181811067ffffffffffffffff82111715614398576143976144a8565b5b80604052505050565b60006143ac826142c8565b91507fffffffffffffffffffffffffffffffffffffffffffffffffffffffffffffffff8214156143df576143de61441b565b5b600182019050919050565b60006143f5826142c8565b9150614400836142c8565b9250826144105761440f61444a565b5b828206905092915050565b7f4e487b7100000000000000000000000000000000000000000000000000000000600052601160045260246000fd5b7f4e487b7100000000000000000000000000000000000000000000000000000000600052601260045260246000fd5b7f4e487b7100000000000000000000000000000000000000000000000000000000600052602260045260246000fd5b7f4e487b7100000000000000000000000000000000000000000000000000000000600052604160045260246000fd5b6000601f19601f8301169050919050565b7f456e756d657261626c655365743a20696e646578206f7574206f6620626f756e60008201527f6473000000000000000000000000000000000000000000000000000000000000602082015250565b7f537472696e67733a20686578206c656e67746820696e73756666696369656e74600082015250565b7f4552433732315061757361626c653a20746f6b656e207472616e73666572207760008201527f68696c6520706175736564000000000000000000000000000000000000000000602082015250565b7f5061757361626c653a206e6f7420706175736564000000000000000000000000600082015250565b7f455243373231456e756d657261626c653a206f776e657220696e646578206f7560008201527f74206f6620626f756e6473000000000000000000000000000000000000000000602082015250565b7f4552433732313a207472616e7366657220746f206e6f6e20455243373231526560008201527f63656976657220696d706c656d656e7465720000000000000000000000000000602082015250565b7f4552433732313a20746f6b656e20616c7265616479206d696e74656400000000600082015250565b7f4552433732315072657365744d696e7465725061757365724175746f49643a2060008201527f6d75737420686176652070617573657220726f6c6520746f2070617573650000602082015250565b7f4552433732313a207472616e7366657220746f20746865207a65726f2061646460008201527f7265737300000000000000000000000000000000000000000000000000000000602082015250565b7f4552433732313a20617070726f766520746f2063616c6c657200000000000000600082015250565b7f4552433732313a206f70657261746f7220717565727920666f72206e6f6e657860008201527f697374656e7420746f6b656e0000000000000000000000000000000000000000602082015250565b7f5061757361626c653a2070617573656400000000000000000000000000000000600082015250565b7f4552433732313a20617070726f76652063616c6c6572206973206e6f74206f7760008201527f6e6572206e6f7220617070726f76656420666f7220616c6c0000000000000000602082015250565b7f4552433732313a2062616c616e636520717565727920666f7220746865207a6560008201527f726f206164647265737300000000000000000000000000000000000000000000602082015250565b7f4552433732313a206f776e657220717565727920666f72206e6f6e657869737460008201527f656e7420746f6b656e0000000000000000000000000000000000000000000000602082015250565b7f4552433732313a206d696e7420746f20746865207a65726f2061646472657373600082015250565b7f4552433732313a20617070726f76656420717565727920666f72206e6f6e657860008201527f697374656e7420746f6b656e0000000000000000000000000000000000000000602082015250565b7f4552433732313a207472616e73666572206f6620746f6b656e2074686174206960008201527f73206e6f74206f776e0000000000000000000000000000000000000000000000602082015250565b7f4552433732314d657461646174613a2055524920717565727920666f72206e6f60008201527f6e6578697374656e7420746f6b656e0000000000000000000000000000000000602082015250565b7f4552433732313a20617070726f76616c20746f2063757272656e74206f776e6560008201527f7200000000000000000000000000000000000000000000000000000000000000602082015250565b7f4552433732313a207472616e736665722063616c6c6572206973206e6f74206f60008201527f776e6572206e6f7220617070726f766564000000000000000000000000000000602082015250565b7f455243373231456e756d657261626c653a20676c6f62616c20696e646578206f60008201527f7574206f6620626f756e64730000000000000000000000000000000000000000602082015250565b7f416363657373436f6e74726f6c3a206163636f756e7420000000000000000000600082015250565b7f4552433732315072657365744d696e7465725061757365724175746f49643a2060008201527f6d7573742068617665206d696e74657220726f6c6520746f206d696e74000000602082015250565b7f4552433732314275726e61626c653a2063616c6c6572206973206e6f74206f7760008201527f6e6572206e6f7220617070726f76656400000000000000000000000000000000602082015250565b7f4552433732315072657365744d696e7465725061757365724175746f49643a2060008201527f6d75737420686176652070617573657220726f6c6520746f20756e7061757365602082015250565b7f206973206d697373696e6720726f6c6520000000000000000000000000000000600082015250565b7f416363657373436f6e74726f6c3a2063616e206f6e6c792072656e6f756e636560008201527f20726f6c657320666f722073656c660000000000000000000000000000000000602082015250565b614c6581614254565b8114614c7057600080fd5b50565b614c7c81614266565b8114614c8757600080fd5b50565b614c9381614272565b8114614c9e57600080fd5b50565b614caa8161427c565b8114614cb557600080fd5b50565b614cc1816142c8565b8114614ccc57600080fd5b5056fea2646970667358221220c7e14d27dc4d4b6fb2488a2e245929f1d7c000e7353c74fe5cd7c2841341b9ce64736f6c63430008030033",
  "immutableReferences": {},
  "source": "// SPDX-License-Identifier: MIT\n\npragma solidity ^0.8.0;\n\nimport \"../ERC721.sol\";\nimport \"../extensions/ERC721Enumerable.sol\";\nimport \"../extensions/ERC721Burnable.sol\";\nimport \"../extensions/ERC721Pausable.sol\";\nimport \"../../../access/AccessControlEnumerable.sol\";\nimport \"../../../utils/Context.sol\";\nimport \"../../../utils/Counters.sol\";\n\n/**\n * @dev {ERC721} token, including:\n *\n *  - ability for holders to burn (destroy) their tokens\n *  - a minter role that allows for token minting (creation)\n *  - a pauser role that allows to stop all token transfers\n *  - token ID and URI autogeneration\n *\n * This contract uses {AccessControl} to lock permissioned functions using the\n * different roles - head to its documentation for details.\n *\n * The account that deploys the contract will be granted the minter and pauser\n * roles, as well as the default admin role, which will let it grant both minter\n * and pauser roles to other accounts.\n */\ncontract ERC721PresetMinterPauserAutoId is Context, AccessControlEnumerable, ERC721Enumerable, ERC721Burnable, ERC721Pausable {\n    using Counters for Counters.Counter;\n\n    bytes32 public constant MINTER_ROLE = keccak256(\"MINTER_ROLE\");\n    bytes32 public constant PAUSER_ROLE = keccak256(\"PAUSER_ROLE\");\n\n    Counters.Counter private _tokenIdTracker;\n\n    string private _baseTokenURI;\n\n    /**\n     * @dev Grants `DEFAULT_ADMIN_ROLE`, `MINTER_ROLE` and `PAUSER_ROLE` to the\n     * account that deploys the contract.\n     *\n     * Token URIs will be autogenerated based on `baseURI` and their token IDs.\n     * See {ERC721-tokenURI}.\n     */\n    constructor(string memory name, string memory symbol, string memory baseTokenURI) ERC721(name, symbol) {\n        _baseTokenURI = baseTokenURI;\n\n        _setupRole(DEFAULT_ADMIN_ROLE, _msgSender());\n\n        _setupRole(MINTER_ROLE, _msgSender());\n        _setupRole(PAUSER_ROLE, _msgSender());\n    }\n\n    function _baseURI() internal view virtual override returns (string memory) {\n        return _baseTokenURI;\n    }\n\n    /**\n     * @dev Creates a new token for `to`. Its token ID will be automatically\n     * assigned (and available on the emitted {IERC721-Transfer} event), and the token\n     * URI autogenerated based on the base URI passed at construction.\n     *\n     * See {ERC721-_mint}.\n     *\n     * Requirements:\n     *\n     * - the caller must have the `MINTER_ROLE`.\n     */\n    function mint(address to, string memory scorehash) public virtual {\n        require(hasRole(MINTER_ROLE, _msgSender()), \"ERC721PresetMinterPauserAutoId: must have minter role to mint\");\n\n        // We cannot just use balanceOf to create the new tokenId because tokens\n        // can be burned (destroyed), so we need a separate counter.\n        _mint(to, _tokenIdTracker.current(), scorehash);\n        _tokenIdTracker.increment();\n    }\n\n    /**\n     * @dev Pauses all token transfers.\n     *\n     * See {ERC721Pausable} and {Pausable-_pause}.\n     *\n     * Requirements:\n     *\n     * - the caller must have the `PAUSER_ROLE`.\n     */\n    function pause() public virtual {\n        require(hasRole(PAUSER_ROLE, _msgSender()), \"ERC721PresetMinterPauserAutoId: must have pauser role to pause\");\n        _pause();\n    }\n\n    /**\n     * @dev Unpauses all token transfers.\n     *\n     * See {ERC721Pausable} and {Pausable-_unpause}.\n     *\n     * Requirements:\n     *\n     * - the caller must have the `PAUSER_ROLE`.\n     */\n    function unpause() public virtual {\n        require(hasRole(PAUSER_ROLE, _msgSender()), \"ERC721PresetMinterPauserAutoId: must have pauser role to unpause\");\n        _unpause();\n    }\n\n    function _beforeTokenTransfer(address from, address to, uint256 tokenId) internal virtual override(ERC721, ERC721Enumerable, ERC721Pausable) {\n        super._beforeTokenTransfer(from, to, tokenId);\n    }\n\n    /**\n     * @dev See {IERC165-supportsInterface}.\n     */\n    function supportsInterface(bytes4 interfaceId) public view virtual override(AccessControlEnumerable, ERC721, ERC721Enumerable) returns (bool) {\n        return super.supportsInterface(interfaceId);\n    }\n}\n",
  "sourcePath": "/Users/phamhuyphat/Documents/schooldir/erc721-score-0.0.2/blockchain-service/contracts/token/ERC721/presets/ERC721PresetMinterPauserAutoId.sol",
  "compiler": {
    "name": "solc",
    "version": "0.8.3+commit.8d00100c.Emscripten.clang"
  },
  "schemaVersion": "3.3.4",
  "updatedAt": "2021-04-18T08:24:26.929Z",
  "networkType": "ethereum",
  "devdoc": {
    "details": "{ERC721} token, including:  - ability for holders to burn (destroy) their tokens  - a minter role that allows for token minting (creation)  - a pauser role that allows to stop all token transfers  - token ID and URI autogeneration This contract uses {AccessControl} to lock permissioned functions using the different roles - head to its documentation for details. The account that deploys the contract will be granted the minter and pauser roles, as well as the default admin role, which will let it grant both minter and pauser roles to other accounts.",
    "kind": "dev",
    "methods": {
      "approve(address,uint256)": {
        "details": "See {IERC721-approve}."
      },
      "balanceOf(address)": {
        "details": "See {IERC721-balanceOf}."
      },
      "burn(uint256)": {
        "details": "Burns `tokenId`. See {ERC721-_burn}. Requirements: - The caller must own `tokenId` or be an approved operator."
      },
      "constructor": {
        "details": "Grants `DEFAULT_ADMIN_ROLE`, `MINTER_ROLE` and `PAUSER_ROLE` to the account that deploys the contract. Token URIs will be autogenerated based on `baseURI` and their token IDs. See {ERC721-tokenURI}."
      },
      "getApproved(uint256)": {
        "details": "See {IERC721-getApproved}."
      },
      "getRoleAdmin(bytes32)": {
        "details": "Returns the admin role that controls `role`. See {grantRole} and {revokeRole}. To change a role's admin, use {_setRoleAdmin}."
      },
      "getRoleMember(bytes32,uint256)": {
        "details": "Returns one of the accounts that have `role`. `index` must be a value between 0 and {getRoleMemberCount}, non-inclusive. Role bearers are not sorted in any particular way, and their ordering may change at any point. WARNING: When using {getRoleMember} and {getRoleMemberCount}, make sure you perform all queries on the same block. See the following https://forum.openzeppelin.com/t/iterating-over-elements-on-enumerableset-in-openzeppelin-contracts/2296[forum post] for more information."
      },
      "getRoleMemberCount(bytes32)": {
        "details": "Returns the number of accounts that have `role`. Can be used together with {getRoleMember} to enumerate all bearers of a role."
      },
      "grantRole(bytes32,address)": {
        "details": "Overload {grantRole} to track enumerable memberships"
      },
      "hasRole(bytes32,address)": {
        "details": "Returns `true` if `account` has been granted `role`."
      },
      "isApprovedForAll(address,address)": {
        "details": "See {IERC721-isApprovedForAll}."
      },
      "mint(address,string)": {
        "details": "Creates a new token for `to`. Its token ID will be automatically assigned (and available on the emitted {IERC721-Transfer} event), and the token URI autogenerated based on the base URI passed at construction. See {ERC721-_mint}. Requirements: - the caller must have the `MINTER_ROLE`."
      },
      "name()": {
        "details": "See {IERC721Metadata-name}."
      },
      "ownerOf(uint256)": {
        "details": "See {IERC721-ownerOf}."
      },
      "pause()": {
        "details": "Pauses all token transfers. See {ERC721Pausable} and {Pausable-_pause}. Requirements: - the caller must have the `PAUSER_ROLE`."
      },
      "paused()": {
        "details": "Returns true if the contract is paused, and false otherwise."
      },
      "renounceRole(bytes32,address)": {
        "details": "Overload {renounceRole} to track enumerable memberships"
      },
      "revokeRole(bytes32,address)": {
        "details": "Overload {revokeRole} to track enumerable memberships"
      },
      "safeTransferFrom(address,address,uint256)": {
        "details": "See {IERC721-safeTransferFrom}."
      },
      "safeTransferFrom(address,address,uint256,bytes)": {
        "details": "See {IERC721-safeTransferFrom}."
      },
      "setApprovalForAll(address,bool)": {
        "details": "See {IERC721-setApprovalForAll}."
      },
      "supportsInterface(bytes4)": {
        "details": "See {IERC165-supportsInterface}."
      },
      "symbol()": {
        "details": "See {IERC721Metadata-symbol}."
      },
      "tokenByIndex(uint256)": {
        "details": "See {IERC721Enumerable-tokenByIndex}."
      },
      "tokenOfOwnerByIndex(address,uint256)": {
        "details": "See {IERC721Enumerable-tokenOfOwnerByIndex}."
      },
      "tokenURI(uint256)": {
        "details": "See {IERC721Metadata-tokenURI}."
      },
      "totalSupply()": {
        "details": "See {IERC721Enumerable-totalSupply}."
      },
      "transferFrom(address,address,uint256)": {
        "details": "See {IERC721-transferFrom}."
      },
      "unpause()": {
        "details": "Unpauses all token transfers. See {ERC721Pausable} and {Pausable-_unpause}. Requirements: - the caller must have the `PAUSER_ROLE`."
      }
    },
    "version": 1
  },
  "userdoc": {
    "kind": "user",
    "methods": {},
    "version": 1
  }
}