{
  "contractName": "ERC721PresetMinterPauserAutoId",
  "abi": [
    {
      "inputs": [
        {
          "internalType": "string",
          "name": "name",
          "type": "string"
        },
        {
          "internalType": "string",
          "name": "symbol",
          "type": "string"
        },
        {
          "internalType": "string",
          "name": "baseTokenURI",
          "type": "string"
        }
      ],
      "stateMutability": "nonpayable",
      "type": "constructor"
    },
    {
      "anonymous": false,
      "inputs": [
        {
          "indexed": true,
          "internalType": "address",
          "name": "owner",
          "type": "address"
        },
        {
          "indexed": true,
          "internalType": "address",
          "name": "approved",
          "type": "address"
        },
        {
          "indexed": true,
          "internalType": "uint256",
          "name": "tokenId",
          "type": "uint256"
        }
      ],
      "name": "Approval",
      "type": "event"
    },
    {
      "anonymous": false,
      "inputs": [
        {
          "indexed": true,
          "internalType": "address",
          "name": "owner",
          "type": "address"
        },
        {
          "indexed": true,
          "internalType": "address",
          "name": "operator",
          "type": "address"
        },
        {
          "indexed": false,
          "internalType": "bool",
          "name": "approved",
          "type": "bool"
        }
      ],
      "name": "ApprovalForAll",
      "type": "event"
    },
    {
      "anonymous": false,
      "inputs": [
        {
          "indexed": false,
          "internalType": "address",
          "name": "account",
          "type": "address"
        }
      ],
      "name": "Paused",
      "type": "event"
    },
    {
      "anonymous": false,
      "inputs": [
        {
          "indexed": true,
          "internalType": "bytes32",
          "name": "role",
          "type": "bytes32"
        },
        {
          "indexed": true,
          "internalType": "bytes32",
          "name": "previousAdminRole",
          "type": "bytes32"
        },
        {
          "indexed": true,
          "internalType": "bytes32",
          "name": "newAdminRole",
          "type": "bytes32"
        }
      ],
      "name": "RoleAdminChanged",
      "type": "event"
    },
    {
      "anonymous": false,
      "inputs": [
        {
          "indexed": true,
          "internalType": "bytes32",
          "name": "role",
          "type": "bytes32"
        },
        {
          "indexed": true,
          "internalType": "address",
          "name": "account",
          "type": "address"
        },
        {
          "indexed": true,
          "internalType": "address",
          "name": "sender",
          "type": "address"
        }
      ],
      "name": "RoleGranted",
      "type": "event"
    },
    {
      "anonymous": false,
      "inputs": [
        {
          "indexed": true,
          "internalType": "bytes32",
          "name": "role",
          "type": "bytes32"
        },
        {
          "indexed": true,
          "internalType": "address",
          "name": "account",
          "type": "address"
        },
        {
          "indexed": true,
          "internalType": "address",
          "name": "sender",
          "type": "address"
        }
      ],
      "name": "RoleRevoked",
      "type": "event"
    },
    {
      "anonymous": false,
      "inputs": [
        {
          "indexed": true,
          "internalType": "address",
          "name": "from",
          "type": "address"
        },
        {
          "indexed": true,
          "internalType": "address",
          "name": "to",
          "type": "address"
        },
        {
          "indexed": true,
          "internalType": "uint256",
          "name": "tokenId",
          "type": "uint256"
        }
      ],
      "name": "Transfer",
      "type": "event"
    },
    {
      "anonymous": false,
      "inputs": [
        {
          "indexed": false,
          "internalType": "address",
          "name": "account",
          "type": "address"
        }
      ],
      "name": "Unpaused",
      "type": "event"
    },
    {
      "anonymous": false,
      "inputs": [
        {
          "indexed": true,
          "internalType": "uint256",
          "name": "tokenId",
          "type": "uint256"
        }
      ],
      "name": "Update",
      "type": "event"
    },
    {
      "inputs": [],
      "name": "DEFAULT_ADMIN_ROLE",
      "outputs": [
        {
          "internalType": "bytes32",
          "name": "",
          "type": "bytes32"
        }
      ],
      "stateMutability": "view",
      "type": "function",
      "constant": true
    },
    {
      "inputs": [],
      "name": "MINTER_ROLE",
      "outputs": [
        {
          "internalType": "bytes32",
          "name": "",
          "type": "bytes32"
        }
      ],
      "stateMutability": "view",
      "type": "function",
      "constant": true
    },
    {
      "inputs": [],
      "name": "PAUSER_ROLE",
      "outputs": [
        {
          "internalType": "bytes32",
          "name": "",
          "type": "bytes32"
        }
      ],
      "stateMutability": "view",
      "type": "function",
      "constant": true
    },
    {
      "inputs": [
        {
          "internalType": "address",
          "name": "to",
          "type": "address"
        },
        {
          "internalType": "uint256",
          "name": "tokenId",
          "type": "uint256"
        }
      ],
      "name": "approve",
      "outputs": [],
      "stateMutability": "nonpayable",
      "type": "function"
    },
    {
      "inputs": [
        {
          "internalType": "address",
          "name": "owner",
          "type": "address"
        }
      ],
      "name": "balanceOf",
      "outputs": [
        {
          "internalType": "uint256",
          "name": "",
          "type": "uint256"
        }
      ],
      "stateMutability": "view",
      "type": "function",
      "constant": true
    },
    {
      "inputs": [
        {
          "internalType": "uint256",
          "name": "tokenId",
          "type": "uint256"
        }
      ],
      "name": "burn",
      "outputs": [],
      "stateMutability": "nonpayable",
      "type": "function"
    },
    {
      "inputs": [
        {
          "internalType": "uint256",
          "name": "tokenId",
          "type": "uint256"
        }
      ],
      "name": "getApproved",
      "outputs": [
        {
          "internalType": "address",
          "name": "",
          "type": "address"
        }
      ],
      "stateMutability": "view",
      "type": "function",
      "constant": true
    },
    {
      "inputs": [
        {
          "internalType": "bytes32",
          "name": "role",
          "type": "bytes32"
        }
      ],
      "name": "getRoleAdmin",
      "outputs": [
        {
          "internalType": "bytes32",
          "name": "",
          "type": "bytes32"
        }
      ],
      "stateMutability": "view",
      "type": "function",
      "constant": true
    },
    {
      "inputs": [
        {
          "internalType": "bytes32",
          "name": "role",
          "type": "bytes32"
        },
        {
          "internalType": "uint256",
          "name": "index",
          "type": "uint256"
        }
      ],
      "name": "getRoleMember",
      "outputs": [
        {
          "internalType": "address",
          "name": "",
          "type": "address"
        }
      ],
      "stateMutability": "view",
      "type": "function",
      "constant": true
    },
    {
      "inputs": [
        {
          "internalType": "bytes32",
          "name": "role",
          "type": "bytes32"
        }
      ],
      "name": "getRoleMemberCount",
      "outputs": [
        {
          "internalType": "uint256",
          "name": "",
          "type": "uint256"
        }
      ],
      "stateMutability": "view",
      "type": "function",
      "constant": true
    },
    {
      "inputs": [
        {
          "internalType": "bytes32",
          "name": "role",
          "type": "bytes32"
        },
        {
          "internalType": "address",
          "name": "account",
          "type": "address"
        }
      ],
      "name": "grantRole",
      "outputs": [],
      "stateMutability": "nonpayable",
      "type": "function"
    },
    {
      "inputs": [
        {
          "internalType": "bytes32",
          "name": "role",
          "type": "bytes32"
        },
        {
          "internalType": "address",
          "name": "account",
          "type": "address"
        }
      ],
      "name": "hasRole",
      "outputs": [
        {
          "internalType": "bool",
          "name": "",
          "type": "bool"
        }
      ],
      "stateMutability": "view",
      "type": "function",
      "constant": true
    },
    {
      "inputs": [
        {
          "internalType": "address",
          "name": "owner",
          "type": "address"
        },
        {
          "internalType": "address",
          "name": "operator",
          "type": "address"
        }
      ],
      "name": "isApprovedForAll",
      "outputs": [
        {
          "internalType": "bool",
          "name": "",
          "type": "bool"
        }
      ],
      "stateMutability": "view",
      "type": "function",
      "constant": true
    },
    {
      "inputs": [],
      "name": "name",
      "outputs": [
        {
          "internalType": "string",
          "name": "",
          "type": "string"
        }
      ],
      "stateMutability": "view",
      "type": "function",
      "constant": true
    },
    {
      "inputs": [
        {
          "internalType": "uint256",
          "name": "tokenId",
          "type": "uint256"
        }
      ],
      "name": "ownerOf",
      "outputs": [
        {
          "internalType": "address",
          "name": "",
          "type": "address"
        }
      ],
      "stateMutability": "view",
      "type": "function",
      "constant": true
    },
    {
      "inputs": [],
      "name": "paused",
      "outputs": [
        {
          "internalType": "bool",
          "name": "",
          "type": "bool"
        }
      ],
      "stateMutability": "view",
      "type": "function",
      "constant": true
    },
    {
      "inputs": [
        {
          "internalType": "bytes32",
          "name": "role",
          "type": "bytes32"
        },
        {
          "internalType": "address",
          "name": "account",
          "type": "address"
        }
      ],
      "name": "renounceRole",
      "outputs": [],
      "stateMutability": "nonpayable",
      "type": "function"
    },
    {
      "inputs": [
        {
          "internalType": "bytes32",
          "name": "role",
          "type": "bytes32"
        },
        {
          "internalType": "address",
          "name": "account",
          "type": "address"
        }
      ],
      "name": "revokeRole",
      "outputs": [],
      "stateMutability": "nonpayable",
      "type": "function"
    },
    {
      "inputs": [
        {
          "internalType": "address",
          "name": "from",
          "type": "address"
        },
        {
          "internalType": "address",
          "name": "to",
          "type": "address"
        },
        {
          "internalType": "uint256",
          "name": "tokenId",
          "type": "uint256"
        }
      ],
      "name": "safeTransferFrom",
      "outputs": [],
      "stateMutability": "nonpayable",
      "type": "function"
    },
    {
      "inputs": [
        {
          "internalType": "address",
          "name": "from",
          "type": "address"
        },
        {
          "internalType": "address",
          "name": "to",
          "type": "address"
        },
        {
          "internalType": "uint256",
          "name": "tokenId",
          "type": "uint256"
        },
        {
          "internalType": "bytes",
          "name": "_data",
          "type": "bytes"
        }
      ],
      "name": "safeTransferFrom",
      "outputs": [],
      "stateMutability": "nonpayable",
      "type": "function"
    },
    {
      "inputs": [
        {
          "internalType": "address",
          "name": "operator",
          "type": "address"
        },
        {
          "internalType": "bool",
          "name": "approved",
          "type": "bool"
        }
      ],
      "name": "setApprovalForAll",
      "outputs": [],
      "stateMutability": "nonpayable",
      "type": "function"
    },
    {
      "inputs": [],
      "name": "symbol",
      "outputs": [
        {
          "internalType": "string",
          "name": "",
          "type": "string"
        }
      ],
      "stateMutability": "view",
      "type": "function",
      "constant": true
    },
    {
      "inputs": [
        {
          "internalType": "uint256",
          "name": "index",
          "type": "uint256"
        }
      ],
      "name": "tokenByIndex",
      "outputs": [
        {
          "internalType": "uint256",
          "name": "",
          "type": "uint256"
        }
      ],
      "stateMutability": "view",
      "type": "function",
      "constant": true
    },
    {
      "inputs": [
        {
          "internalType": "address",
          "name": "owner",
          "type": "address"
        },
        {
          "internalType": "uint256",
          "name": "index",
          "type": "uint256"
        }
      ],
      "name": "tokenOfOwnerByIndex",
      "outputs": [
        {
          "internalType": "uint256",
          "name": "",
          "type": "uint256"
        }
      ],
      "stateMutability": "view",
      "type": "function",
      "constant": true
    },
    {
      "inputs": [
        {
          "internalType": "uint256",
          "name": "tokenId",
          "type": "uint256"
        }
      ],
      "name": "tokenURI",
      "outputs": [
        {
          "internalType": "string",
          "name": "",
          "type": "string"
        }
      ],
      "stateMutability": "view",
      "type": "function",
      "constant": true
    },
    {
      "inputs": [],
      "name": "totalSupply",
      "outputs": [
        {
          "internalType": "uint256",
          "name": "",
          "type": "uint256"
        }
      ],
      "stateMutability": "view",
      "type": "function",
      "constant": true
    },
    {
      "inputs": [
        {
          "internalType": "address",
          "name": "from",
          "type": "address"
        },
        {
          "internalType": "address",
          "name": "to",
          "type": "address"
        },
        {
          "internalType": "uint256",
          "name": "tokenId",
          "type": "uint256"
        }
      ],
      "name": "transferFrom",
      "outputs": [],
      "stateMutability": "nonpayable",
      "type": "function"
    },
    {
      "inputs": [
        {
          "internalType": "address",
          "name": "toGrantMinterRole",
          "type": "address"
        }
      ],
      "name": "granMinterRole",
      "outputs": [],
      "stateMutability": "nonpayable",
      "type": "function"
    },
    {
      "inputs": [
        {
          "internalType": "uint256",
          "name": "tokenId",
          "type": "uint256"
        }
      ],
      "name": "getOwnerAddressByTokenId",
      "outputs": [
        {
          "internalType": "address",
          "name": "",
          "type": "address"
        }
      ],
      "stateMutability": "view",
      "type": "function",
      "constant": true
    },
    {
      "inputs": [
        {
          "internalType": "address",
          "name": "to",
          "type": "address"
        },
        {
          "internalType": "string",
          "name": "scorehash",
          "type": "string"
        }
      ],
      "name": "mint",
      "outputs": [],
      "stateMutability": "nonpayable",
      "type": "function"
    },
    {
      "inputs": [
        {
          "internalType": "uint256",
          "name": "tokenId",
          "type": "uint256"
        }
      ],
      "name": "getScoreHashByTokenId",
      "outputs": [
        {
          "internalType": "string",
          "name": "",
          "type": "string"
        }
      ],
      "stateMutability": "view",
      "type": "function",
      "constant": true
    },
    {
      "inputs": [
        {
          "internalType": "uint256",
          "name": "tokenId",
          "type": "uint256"
        },
        {
          "internalType": "string",
          "name": "newScoreHash",
          "type": "string"
        }
      ],
      "name": "updateScoreHashByTokenId",
      "outputs": [],
      "stateMutability": "nonpayable",
      "type": "function"
    },
    {
      "inputs": [],
      "name": "pause",
      "outputs": [],
      "stateMutability": "nonpayable",
      "type": "function"
    },
    {
      "inputs": [],
      "name": "unpause",
      "outputs": [],
      "stateMutability": "nonpayable",
      "type": "function"
    },
    {
      "inputs": [
        {
          "internalType": "bytes4",
          "name": "interfaceId",
          "type": "bytes4"
        }
      ],
      "name": "supportsInterface",
      "outputs": [
        {
          "internalType": "bool",
          "name": "",
          "type": "bool"
        }
      ],
      "stateMutability": "view",
      "type": "function",
      "constant": true
    }
  ],
  "bytecode": "0x60806040523480156200001157600080fd5b50604051620058ff380380620058ff833981810160405281019062000037919062000508565b8282816002908051906020019062000051929190620003e6565b5080600390805190602001906200006a929190620003e6565b5050506000600e60006101000a81548160ff0219169083151502179055508060109080519060200190620000a0929190620003e6565b50620000c56000801b620000b96200015060201b60201c565b6200015860201b60201c565b620001067f9f2df0fed2c77648de5860a4cc508cd0818c85b8b8a1ab4ceeef8d981c8956a6620000fa6200015060201b60201c565b6200015860201b60201c565b620001477f65d7a28e3265b37a6474929f336521b332c1681b933f6cb9f3376673440d862a6200013b6200015060201b60201c565b6200015860201b60201c565b50505062000719565b600033905090565b6200016f8282620001a060201b620016811760201c565b6200019b8160016000858152602001908152602001600020620001b660201b6200168f1790919060201c565b505050565b620001b28282620001ee60201b60201c565b5050565b6000620001e6836000018373ffffffffffffffffffffffffffffffffffffffff1660001b620002df60201b60201c565b905092915050565b6200020082826200035960201b60201c565b620002db57600160008084815260200190815260200160002060000160008373ffffffffffffffffffffffffffffffffffffffff1673ffffffffffffffffffffffffffffffffffffffff16815260200190815260200160002060006101000a81548160ff021916908315150217905550620002806200015060201b60201c565b73ffffffffffffffffffffffffffffffffffffffff168173ffffffffffffffffffffffffffffffffffffffff16837f2f8788117e7eff1d82e926ec794901d17c78024a50270940304540a733656f0d60405160405180910390a45b5050565b6000620002f38383620003c360201b60201c565b6200034e57826000018290806001815401808255809150506001900390600052602060002001600090919091909150558260000180549050836001016000848152602001908152602001600020819055506001905062000353565b600090505b92915050565b600080600084815260200190815260200160002060000160008373ffffffffffffffffffffffffffffffffffffffff1673ffffffffffffffffffffffffffffffffffffffff16815260200190815260200160002060009054906101000a900460ff16905092915050565b600080836001016000848152602001908152602001600020541415905092915050565b828054620003f4906200063e565b90600052602060002090601f01602090048101928262000418576000855562000464565b82601f106200043357805160ff191683800117855562000464565b8280016001018555821562000464579182015b828111156200046357825182559160200191906001019062000446565b5b50905062000473919062000477565b5090565b5b808211156200049257600081600090555060010162000478565b5090565b6000620004ad620004a784620005d2565b620005a9565b905082815260208101848484011115620004c657600080fd5b620004d384828562000608565b509392505050565b600082601f830112620004ed57600080fd5b8151620004ff84826020860162000496565b91505092915050565b6000806000606084860312156200051e57600080fd5b600084015167ffffffffffffffff8111156200053957600080fd5b6200054786828701620004db565b935050602084015167ffffffffffffffff8111156200056557600080fd5b6200057386828701620004db565b925050604084015167ffffffffffffffff8111156200059157600080fd5b6200059f86828701620004db565b9150509250925092565b6000620005b5620005c8565b9050620005c3828262000674565b919050565b6000604051905090565b600067ffffffffffffffff821115620005f057620005ef620006d9565b5b620005fb8262000708565b9050602081019050919050565b60005b83811015620006285780820151818401526020810190506200060b565b8381111562000638576000848401525b50505050565b600060028204905060018216806200065757607f821691505b602082108114156200066e576200066d620006aa565b5b50919050565b6200067f8262000708565b810181811067ffffffffffffffff82111715620006a157620006a0620006d9565b5b80604052505050565b7f4e487b7100000000000000000000000000000000000000000000000000000000600052602260045260246000fd5b7f4e487b7100000000000000000000000000000000000000000000000000000000600052604160045260246000fd5b6000601f19601f8301169050919050565b6151d680620007296000396000f3fe608060405234801561001057600080fd5b50600436106102115760003560e01c806370a0823111610125578063b6227a63116100ad578063d0def5211161007c578063d0def52114610648578063d539139314610664578063d547741f14610682578063e63ab1e91461069e578063e985e9c5146106bc57610211565b8063b6227a63146105b0578063b88d4fde146105cc578063c87b56dd146105e8578063ca15c8731461061857610211565b806395d89b41116100f457806395d89b411461050c57806398f632351461052a578063a217fddf14610546578063a22cb46514610564578063b601ce241461058057610211565b806370a08231146104725780638456cb59146104a25780639010d07c146104ac57806391d14854146104dc57610211565b80632f745c59116101a857806342966c681161017757806342966c68146103a85780634f6ccce7146103c45780635c975abb146103f45780636352211e146104125780636779288f1461044257610211565b80632f745c591461033657806336568abe146103665780633f4ba83a1461038257806342842e0e1461038c57610211565b806318160ddd116101e457806318160ddd146102b057806323b872dd146102ce578063248a9ca3146102ea5780632f2ff15d1461031a57610211565b806301ffc9a71461021657806306fdde0314610246578063081812fc14610264578063095ea7b314610294575b600080fd5b610230600480360381019061022b91906139bc565b6106ec565b60405161023d919061406c565b60405180910390f35b61024e6106fe565b60405161025b91906140a2565b60405180910390f35b61027e60048036038101906102799190613a0e565b610790565b60405161028b9190614005565b60405180910390f35b6102ae60048036038101906102a991906138df565b610815565b005b6102b861092d565b6040516102c59190614464565b60405180910390f35b6102e860048036038101906102e39190613785565b61093a565b005b61030460048036038101906102ff919061391b565b61099a565b6040516103119190614087565b60405180910390f35b610334600480360381019061032f9190613944565b6109b9565b005b610350600480360381019061034b91906138df565b6109ed565b60405161035d9190614464565b60405180910390f35b610380600480360381019061037b9190613944565b610a92565b005b61038a610ac6565b005b6103a660048036038101906103a19190613785565b610b40565b005b6103c260048036038101906103bd9190613a0e565b610b60565b005b6103de60048036038101906103d99190613a0e565b610bbc565b6040516103eb9190614464565b60405180910390f35b6103fc610c53565b604051610409919061406c565b60405180910390f35b61042c60048036038101906104279190613a0e565b610c6a565b6040516104399190614005565b60405180910390f35b61045c60048036038101906104579190613a0e565b610d1c565b60405161046991906140a2565b60405180910390f35b61048c60048036038101906104879190613720565b610dc1565b6040516104999190614464565b60405180910390f35b6104aa610e79565b005b6104c660048036038101906104c19190613980565b610ef3565b6040516104d39190614005565b60405180910390f35b6104f660048036038101906104f19190613944565b610f22565b604051610503919061406c565b60405180910390f35b610514610f8c565b60405161052191906140a2565b60405180910390f35b610544600480360381019061053f9190613720565b61101e565b005b61054e61109e565b60405161055b9190614087565b60405180910390f35b61057e6004803603810190610579919061384f565b6110a5565b005b61059a60048036038101906105959190613a0e565b611226565b6040516105a79190614005565b60405180910390f35b6105ca60048036038101906105c59190613a37565b611263565b005b6105e660048036038101906105e191906137d4565b6113b2565b005b61060260048036038101906105fd9190613a0e565b611414565b60405161060f91906140a2565b60405180910390f35b610632600480360381019061062d919061391b565b6114bb565b60405161063f9190614464565b60405180910390f35b610662600480360381019061065d919061388b565b6114df565b005b61066c611571565b6040516106799190614087565b60405180910390f35b61069c60048036038101906106979190613944565b611595565b005b6106a66115c9565b6040516106b39190614087565b60405180910390f35b6106d660048036038101906106d19190613749565b6115ed565b6040516106e3919061406c565b60405180910390f35b60006106f7826116bf565b9050919050565b60606002805461070d90614748565b80601f016020809104026020016040519081016040528092919081815260200182805461073990614748565b80156107865780601f1061075b57610100808354040283529160200191610786565b820191906000526020600020905b81548152906001019060200180831161076957829003601f168201915b5050505050905090565b600061079b82611739565b6107da576040517f08c379a00000000000000000000000000000000000000000000000000000000081526004016107d1906142e4565b60405180910390fd5b6008600083815260200190815260200160002060009054906101000a900473ffffffffffffffffffffffffffffffffffffffff169050919050565b600061082082610c6a565b90508073ffffffffffffffffffffffffffffffffffffffff168373ffffffffffffffffffffffffffffffffffffffff161415610891576040517f08c379a000000000000000000000000000000000000000000000000000000000815260040161088890614364565b60405180910390fd5b8073ffffffffffffffffffffffffffffffffffffffff166108b06117a5565b73ffffffffffffffffffffffffffffffffffffffff1614806108df57506108de816108d96117a5565b6115ed565b5b61091e576040517f08c379a000000000000000000000000000000000000000000000000000000000815260040161091590614264565b60405180910390fd5b61092883836117ad565b505050565b6000600c80549050905090565b61094b6109456117a5565b82611866565b61098a576040517f08c379a000000000000000000000000000000000000000000000000000000000815260040161098190614384565b60405180910390fd5b610995838383611944565b505050565b6000806000838152602001908152602001600020600101549050919050565b6109c38282611ba0565b6109e8816001600085815260200190815260200160002061168f90919063ffffffff16565b505050565b60006109f883610dc1565b8210610a39576040517f08c379a0000000000000000000000000000000000000000000000000000000008152600401610a3090614144565b60405180910390fd5b600a60008473ffffffffffffffffffffffffffffffffffffffff1673ffffffffffffffffffffffffffffffffffffffff168152602001908152602001600020600083815260200190815260200160002054905092915050565b610a9c8282611bc9565b610ac18160016000858152602001908152602001600020611c4c90919063ffffffff16565b505050565b610af77f65d7a28e3265b37a6474929f336521b332c1681b933f6cb9f3376673440d862a610af26117a5565b610f22565b610b36576040517f08c379a0000000000000000000000000000000000000000000000000000000008152600401610b2d90614424565b60405180910390fd5b610b3e611c7c565b565b610b5b838383604051806020016040528060008152506113b2565b505050565b610b71610b6b6117a5565b82611866565b610bb0576040517f08c379a0000000000000000000000000000000000000000000000000000000008152600401610ba790614404565b60405180910390fd5b610bb981611d1e565b50565b6000610bc661092d565b8210610c07576040517f08c379a0000000000000000000000000000000000000000000000000000000008152600401610bfe906143a4565b60405180910390fd5b600c8281548110610c41577f4e487b7100000000000000000000000000000000000000000000000000000000600052603260045260246000fd5b90600052602060002001549050919050565b6000600e60009054906101000a900460ff16905090565b6000806004600084815260200190815260200160002060009054906101000a900473ffffffffffffffffffffffffffffffffffffffff169050600073ffffffffffffffffffffffffffffffffffffffff168173ffffffffffffffffffffffffffffffffffffffff161415610d13576040517f08c379a0000000000000000000000000000000000000000000000000000000008152600401610d0a906142a4565b60405180910390fd5b80915050919050565b6060600660008381526020019081526020016000208054610d3c90614748565b80601f0160208091040260200160405190810160405280929190818152602001828054610d6890614748565b8015610db55780601f10610d8a57610100808354040283529160200191610db5565b820191906000526020600020905b815481529060010190602001808311610d9857829003601f168201915b50505050509050919050565b60008073ffffffffffffffffffffffffffffffffffffffff168273ffffffffffffffffffffffffffffffffffffffff161415610e32576040517f08c379a0000000000000000000000000000000000000000000000000000000008152600401610e2990614284565b60405180910390fd5b600560008373ffffffffffffffffffffffffffffffffffffffff1673ffffffffffffffffffffffffffffffffffffffff168152602001908152602001600020549050919050565b610eaa7f65d7a28e3265b37a6474929f336521b332c1681b933f6cb9f3376673440d862a610ea56117a5565b610f22565b610ee9576040517f08c379a0000000000000000000000000000000000000000000000000000000008152600401610ee0906141c4565b60405180910390fd5b610ef1611e2f565b565b6000610f1a8260016000868152602001908152602001600020611ed290919063ffffffff16565b905092915050565b600080600084815260200190815260200160002060000160008373ffffffffffffffffffffffffffffffffffffffff1673ffffffffffffffffffffffffffffffffffffffff16815260200190815260200160002060009054906101000a900460ff16905092915050565b606060038054610f9b90614748565b80601f0160208091040260200160405190810160405280929190818152602001828054610fc790614748565b80156110145780601f10610fe957610100808354040283529160200191611014565b820191906000526020600020905b815481529060010190602001808311610ff757829003601f168201915b5050505050905090565b6110326000801b61102d6117a5565b610f22565b611071576040517f08c379a000000000000000000000000000000000000000000000000000000000815260040161106890614344565b60405180910390fd5b61109b7f9f2df0fed2c77648de5860a4cc508cd0818c85b8b8a1ab4ceeef8d981c8956a682611eec565b50565b6000801b81565b6110ad6117a5565b73ffffffffffffffffffffffffffffffffffffffff168273ffffffffffffffffffffffffffffffffffffffff16141561111b576040517f08c379a000000000000000000000000000000000000000000000000000000000815260040161111290614204565b60405180910390fd5b80600960006111286117a5565b73ffffffffffffffffffffffffffffffffffffffff1673ffffffffffffffffffffffffffffffffffffffff16815260200190815260200160002060008473ffffffffffffffffffffffffffffffffffffffff1673ffffffffffffffffffffffffffffffffffffffff16815260200190815260200160002060006101000a81548160ff0219169083151502179055508173ffffffffffffffffffffffffffffffffffffffff166111d56117a5565b73ffffffffffffffffffffffffffffffffffffffff167f17307eab39ab6107e8899845ad3d59bd9653f200f220920489ca2b5937696c318360405161121a919061406c565b60405180910390a35050565b60006004600083815260200190815260200160002060009054906101000a900473ffffffffffffffffffffffffffffffffffffffff169050919050565b3373ffffffffffffffffffffffffffffffffffffffff166004600084815260200190815260200160002060009054906101000a900473ffffffffffffffffffffffffffffffffffffffff1673ffffffffffffffffffffffffffffffffffffffff1614611304576040517f08c379a00000000000000000000000000000000000000000000000000000000081526004016112fb906141a4565b60405180910390fd5b42600760008481526020019081526020016000205411611359576040517f08c379a0000000000000000000000000000000000000000000000000000000008152600401611350906143e4565b60405180910390fd5b8060066000848152602001908152602001600020908051906020019061138092919061352f565b50817f164f7b2ab803097dab5e39f06d2e4f3c3ddc5d4171abbdcc3e76443b8359c7f560405160405180910390a25050565b6113c36113bd6117a5565b83611866565b611402576040517f08c379a00000000000000000000000000000000000000000000000000000000081526004016113f990614384565b60405180910390fd5b61140e84848484611f20565b50505050565b606061141f82611739565b61145e576040517f08c379a000000000000000000000000000000000000000000000000000000000815260040161145590614324565b60405180910390fd5b6000611468611f7c565b9050600081511161148857604051806020016040528060008152506114b3565b806114928461200e565b6040516020016114a3929190613fa7565b6040516020818303038152906040525b915050919050565b60006114d8600160008481526020019081526020016000206121bb565b9050919050565b6115107f9f2df0fed2c77648de5860a4cc508cd0818c85b8b8a1ab4ceeef8d981c8956a661150b6117a5565b610f22565b61154f576040517f08c379a0000000000000000000000000000000000000000000000000000000008152600401611546906143c4565b60405180910390fd5b6115638261155d600f6121d0565b836121de565b61156d600f6123f9565b5050565b7f9f2df0fed2c77648de5860a4cc508cd0818c85b8b8a1ab4ceeef8d981c8956a681565b61159f828261240f565b6115c48160016000858152602001908152602001600020611c4c90919063ffffffff16565b505050565b7f65d7a28e3265b37a6474929f336521b332c1681b933f6cb9f3376673440d862a81565b6000600960008473ffffffffffffffffffffffffffffffffffffffff1673ffffffffffffffffffffffffffffffffffffffff16815260200190815260200160002060008373ffffffffffffffffffffffffffffffffffffffff1673ffffffffffffffffffffffffffffffffffffffff16815260200190815260200160002060009054906101000a900460ff16905092915050565b61168b8282612438565b5050565b60006116b7836000018373ffffffffffffffffffffffffffffffffffffffff1660001b612518565b905092915050565b60007f780e9d63000000000000000000000000000000000000000000000000000000007bffffffffffffffffffffffffffffffffffffffffffffffffffffffff1916827bffffffffffffffffffffffffffffffffffffffffffffffffffffffff19161480611732575061173182612588565b5b9050919050565b60008073ffffffffffffffffffffffffffffffffffffffff166004600084815260200190815260200160002060009054906101000a900473ffffffffffffffffffffffffffffffffffffffff1673ffffffffffffffffffffffffffffffffffffffff1614159050919050565b600033905090565b816008600083815260200190815260200160002060006101000a81548173ffffffffffffffffffffffffffffffffffffffff021916908373ffffffffffffffffffffffffffffffffffffffff160217905550808273ffffffffffffffffffffffffffffffffffffffff1661182083610c6a565b73ffffffffffffffffffffffffffffffffffffffff167f8c5be1e5ebec7d5bd14f71427d1e84f3dd0314c0f7b2291e5b200ac8c7c3b92560405160405180910390a45050565b600061187182611739565b6118b0576040517f08c379a00000000000000000000000000000000000000000000000000000000081526004016118a790614224565b60405180910390fd5b60006118bb83610c6a565b90508073ffffffffffffffffffffffffffffffffffffffff168473ffffffffffffffffffffffffffffffffffffffff16148061192a57508373ffffffffffffffffffffffffffffffffffffffff1661191284610790565b73ffffffffffffffffffffffffffffffffffffffff16145b8061193b575061193a81856115ed565b5b91505092915050565b8273ffffffffffffffffffffffffffffffffffffffff1661196482610c6a565b73ffffffffffffffffffffffffffffffffffffffff16146119ba576040517f08c379a00000000000000000000000000000000000000000000000000000000081526004016119b190614304565b60405180910390fd5b600073ffffffffffffffffffffffffffffffffffffffff168273ffffffffffffffffffffffffffffffffffffffff161415611a2a576040517f08c379a0000000000000000000000000000000000000000000000000000000008152600401611a21906141e4565b60405180910390fd5b611a3583838361266a565b611a406000826117ad565b6001600560008573ffffffffffffffffffffffffffffffffffffffff1673ffffffffffffffffffffffffffffffffffffffff1681526020019081526020016000206000828254611a90919061462a565b925050819055506001600560008473ffffffffffffffffffffffffffffffffffffffff1673ffffffffffffffffffffffffffffffffffffffff1681526020019081526020016000206000828254611ae79190614549565b92505081905550816004600083815260200190815260200160002060006101000a81548173ffffffffffffffffffffffffffffffffffffffff021916908373ffffffffffffffffffffffffffffffffffffffff160217905550808273ffffffffffffffffffffffffffffffffffffffff168473ffffffffffffffffffffffffffffffffffffffff167fddf252ad1be2c89b69c2b068fc378daa952ba7f163c4a11628f55a4df523b3ef60405160405180910390a4505050565b611ba98261099a565b611bba81611bb56117a5565b61267a565b611bc48383612438565b505050565b611bd16117a5565b73ffffffffffffffffffffffffffffffffffffffff168173ffffffffffffffffffffffffffffffffffffffff1614611c3e576040517f08c379a0000000000000000000000000000000000000000000000000000000008152600401611c3590614444565b60405180910390fd5b611c488282612717565b5050565b6000611c74836000018373ffffffffffffffffffffffffffffffffffffffff1660001b6127f8565b905092915050565b611c84610c53565b611cc3576040517f08c379a0000000000000000000000000000000000000000000000000000000008152600401611cba90614124565b60405180910390fd5b6000600e60006101000a81548160ff0219169083151502179055507f5db9ee0a495bf2e6ff9c91a7834c1ba4fdd244a5e8aa4e537bd38aeae4b073aa611d076117a5565b604051611d149190614005565b60405180910390a1565b6000611d2982610c6a565b9050611d378160008461266a565b611d426000836117ad565b6001600560008373ffffffffffffffffffffffffffffffffffffffff1673ffffffffffffffffffffffffffffffffffffffff1681526020019081526020016000206000828254611d92919061462a565b925050819055506004600083815260200190815260200160002060006101000a81549073ffffffffffffffffffffffffffffffffffffffff021916905581600073ffffffffffffffffffffffffffffffffffffffff168273ffffffffffffffffffffffffffffffffffffffff167fddf252ad1be2c89b69c2b068fc378daa952ba7f163c4a11628f55a4df523b3ef60405160405180910390a45050565b611e37610c53565b15611e77576040517f08c379a0000000000000000000000000000000000000000000000000000000008152600401611e6e90614244565b60405180910390fd5b6001600e60006101000a81548160ff0219169083151502179055507f62e78cea01bee320cd4e420270b5ea74000d11b0c9f74754ebdbfc544b05a258611ebb6117a5565b604051611ec89190614005565b60405180910390a1565b6000611ee18360000183612976565b60001c905092915050565b611ef68282611681565b611f1b816001600085815260200190815260200160002061168f90919063ffffffff16565b505050565b611f2b848484611944565b611f3784848484612a10565b611f76576040517f08c379a0000000000000000000000000000000000000000000000000000000008152600401611f6d90614164565b60405180910390fd5b50505050565b606060108054611f8b90614748565b80601f0160208091040260200160405190810160405280929190818152602001828054611fb790614748565b80156120045780601f10611fd957610100808354040283529160200191612004565b820191906000526020600020905b815481529060010190602001808311611fe757829003601f168201915b5050505050905090565b60606000821415612056576040518060400160405280600181526020017f300000000000000000000000000000000000000000000000000000000000000081525090506121b6565b600082905060005b60008214612088578080612071906147ab565b915050600a82612081919061459f565b915061205e565b60008167ffffffffffffffff8111156120ca577f4e487b7100000000000000000000000000000000000000000000000000000000600052604160045260246000fd5b6040519080825280601f01601f1916602001820160405280156120fc5781602001600182028036833780820191505090505b5090505b600085146121af57600182612115919061462a565b9150600a8561212491906147f4565b60306121309190614549565b60f81b81838151811061216c577f4e487b7100000000000000000000000000000000000000000000000000000000600052603260045260246000fd5b60200101907effffffffffffffffffffffffffffffffffffffffffffffffffffffffffffff1916908160001a905350600a856121a8919061459f565b9450612100565b8093505050505b919050565b60006121c982600001612ba7565b9050919050565b600081600001549050919050565b600073ffffffffffffffffffffffffffffffffffffffff168373ffffffffffffffffffffffffffffffffffffffff16141561224e576040517f08c379a0000000000000000000000000000000000000000000000000000000008152600401612245906142c4565b60405180910390fd5b61225782611739565b15612297576040517f08c379a000000000000000000000000000000000000000000000000000000000815260040161228e90614184565b60405180910390fd5b6122a36000848461266a565b6001600560008573ffffffffffffffffffffffffffffffffffffffff1673ffffffffffffffffffffffffffffffffffffffff16815260200190815260200160002060008282546122f39190614549565b92505081905550336004600084815260200190815260200160002060006101000a81548173ffffffffffffffffffffffffffffffffffffffff021916908373ffffffffffffffffffffffffffffffffffffffff1602179055508060066000848152602001908152602001600020908051906020019061237392919061352f565b506078426123819190614549565b6007600084815260200190815260200160002081905550818373ffffffffffffffffffffffffffffffffffffffff16600073ffffffffffffffffffffffffffffffffffffffff167fddf252ad1be2c89b69c2b068fc378daa952ba7f163c4a11628f55a4df523b3ef60405160405180910390a4505050565b6001816000016000828254019250508190555050565b6124188261099a565b612429816124246117a5565b61267a565b6124338383612717565b505050565b6124428282610f22565b61251457600160008084815260200190815260200160002060000160008373ffffffffffffffffffffffffffffffffffffffff1673ffffffffffffffffffffffffffffffffffffffff16815260200190815260200160002060006101000a81548160ff0219169083151502179055506124b96117a5565b73ffffffffffffffffffffffffffffffffffffffff168173ffffffffffffffffffffffffffffffffffffffff16837f2f8788117e7eff1d82e926ec794901d17c78024a50270940304540a733656f0d60405160405180910390a45b5050565b60006125248383612bb8565b61257d578260000182908060018154018082558091505060019003906000526020600020016000909190919091505582600001805490508360010160008481526020019081526020016000208190555060019050612582565b600090505b92915050565b60007f80ac58cd000000000000000000000000000000000000000000000000000000007bffffffffffffffffffffffffffffffffffffffffffffffffffffffff1916827bffffffffffffffffffffffffffffffffffffffffffffffffffffffff1916148061265357507f5b5e139f000000000000000000000000000000000000000000000000000000007bffffffffffffffffffffffffffffffffffffffffffffffffffffffff1916827bffffffffffffffffffffffffffffffffffffffffffffffffffffffff1916145b80612663575061266282612bdb565b5b9050919050565b612675838383612c55565b505050565b6126848282610f22565b612713576126a98173ffffffffffffffffffffffffffffffffffffffff166014612cad565b6126b78360001c6020612cad565b6040516020016126c8929190613fcb565b6040516020818303038152906040526040517f08c379a000000000000000000000000000000000000000000000000000000000815260040161270a91906140a2565b60405180910390fd5b5050565b6127218282610f22565b156127f457600080600084815260200190815260200160002060000160008373ffffffffffffffffffffffffffffffffffffffff1673ffffffffffffffffffffffffffffffffffffffff16815260200190815260200160002060006101000a81548160ff0219169083151502179055506127996117a5565b73ffffffffffffffffffffffffffffffffffffffff168173ffffffffffffffffffffffffffffffffffffffff16837ff6391f5c32d9c69d2a47ea670b442974b53935d1edc7fd64eb21e047a839171b60405160405180910390a45b5050565b6000808360010160008481526020019081526020016000205490506000811461296a57600060018261282a919061462a565b9050600060018660000180549050612842919061462a565b90506000866000018281548110612882577f4e487b7100000000000000000000000000000000000000000000000000000000600052603260045260246000fd5b90600052602060002001549050808760000184815481106128cc577f4e487b7100000000000000000000000000000000000000000000000000000000600052603260045260246000fd5b906000526020600020018190555083876001016000838152602001908152602001600020819055508660000180548061292e577f4e487b7100000000000000000000000000000000000000000000000000000000600052603160045260246000fd5b60019003818190600052602060002001600090559055866001016000878152602001908152602001600020600090556001945050505050612970565b60009150505b92915050565b6000818360000180549050116129c1576040517f08c379a00000000000000000000000000000000000000000000000000000000081526004016129b8906140c4565b60405180910390fd5b8260000182815481106129fd577f4e487b7100000000000000000000000000000000000000000000000000000000600052603260045260246000fd5b9060005260206000200154905092915050565b6000612a318473ffffffffffffffffffffffffffffffffffffffff16612fa7565b15612b9a578373ffffffffffffffffffffffffffffffffffffffff1663150b7a02612a5a6117a5565b8786866040518563ffffffff1660e01b8152600401612a7c9493929190614020565b602060405180830381600087803b158015612a9657600080fd5b505af1925050508015612ac757506040513d601f19601f82011682018060405250810190612ac491906139e5565b60015b612b4a573d8060008114612af7576040519150601f19603f3d011682016040523d82523d6000602084013e612afc565b606091505b50600081511415612b42576040517f08c379a0000000000000000000000000000000000000000000000000000000008152600401612b3990614164565b60405180910390fd5b805181602001fd5b63150b7a0260e01b7bffffffffffffffffffffffffffffffffffffffffffffffffffffffff1916817bffffffffffffffffffffffffffffffffffffffffffffffffffffffff191614915050612b9f565b600190505b949350505050565b600081600001805490509050919050565b600080836001016000848152602001908152602001600020541415905092915050565b60007f5a05180f000000000000000000000000000000000000000000000000000000007bffffffffffffffffffffffffffffffffffffffffffffffffffffffff1916827bffffffffffffffffffffffffffffffffffffffffffffffffffffffff19161480612c4e5750612c4d82612fba565b5b9050919050565b612c60838383613034565b612c68610c53565b15612ca8576040517f08c379a0000000000000000000000000000000000000000000000000000000008152600401612c9f90614104565b60405180910390fd5b505050565b606060006002836002612cc091906145d0565b612cca9190614549565b67ffffffffffffffff811115612d09577f4e487b7100000000000000000000000000000000000000000000000000000000600052604160045260246000fd5b6040519080825280601f01601f191660200182016040528015612d3b5781602001600182028036833780820191505090505b5090507f300000000000000000000000000000000000000000000000000000000000000081600081518110612d99577f4e487b7100000000000000000000000000000000000000000000000000000000600052603260045260246000fd5b60200101907effffffffffffffffffffffffffffffffffffffffffffffffffffffffffffff1916908160001a9053507f780000000000000000000000000000000000000000000000000000000000000081600181518110612e23577f4e487b7100000000000000000000000000000000000000000000000000000000600052603260045260246000fd5b60200101907effffffffffffffffffffffffffffffffffffffffffffffffffffffffffffff1916908160001a90535060006001846002612e6391906145d0565b612e6d9190614549565b90505b6001811115612f59577f3031323334353637383961626364656600000000000000000000000000000000600f861660108110612ed5577f4e487b7100000000000000000000000000000000000000000000000000000000600052603260045260246000fd5b1a60f81b828281518110612f12577f4e487b7100000000000000000000000000000000000000000000000000000000600052603260045260246000fd5b60200101907effffffffffffffffffffffffffffffffffffffffffffffffffffffffffffff1916908160001a905350600485901c945080612f529061471e565b9050612e70565b5060008414612f9d576040517f08c379a0000000000000000000000000000000000000000000000000000000008152600401612f94906140e4565b60405180910390fd5b8091505092915050565b600080823b905060008111915050919050565b60007f7965db0b000000000000000000000000000000000000000000000000000000007bffffffffffffffffffffffffffffffffffffffffffffffffffffffff1916827bffffffffffffffffffffffffffffffffffffffffffffffffffffffff1916148061302d575061302c82613148565b5b9050919050565b61303f8383836131b2565b600073ffffffffffffffffffffffffffffffffffffffff168373ffffffffffffffffffffffffffffffffffffffff1614156130825761307d816131b7565b6130c1565b8173ffffffffffffffffffffffffffffffffffffffff168373ffffffffffffffffffffffffffffffffffffffff16146130c0576130bf8382613200565b5b5b600073ffffffffffffffffffffffffffffffffffffffff168273ffffffffffffffffffffffffffffffffffffffff161415613104576130ff8161336d565b613143565b8273ffffffffffffffffffffffffffffffffffffffff168273ffffffffffffffffffffffffffffffffffffffff16146131425761314182826134b0565b5b5b505050565b60007f01ffc9a7000000000000000000000000000000000000000000000000000000007bffffffffffffffffffffffffffffffffffffffffffffffffffffffff1916827bffffffffffffffffffffffffffffffffffffffffffffffffffffffff1916149050919050565b505050565b600c80549050600d600083815260200190815260200160002081905550600c81908060018154018082558091505060019003906000526020600020016000909190919091505550565b6000600161320d84610dc1565b613217919061462a565b90506000600b60008481526020019081526020016000205490508181146132fc576000600a60008673ffffffffffffffffffffffffffffffffffffffff1673ffffffffffffffffffffffffffffffffffffffff168152602001908152602001600020600084815260200190815260200160002054905080600a60008773ffffffffffffffffffffffffffffffffffffffff1673ffffffffffffffffffffffffffffffffffffffff16815260200190815260200160002060008481526020019081526020016000208190555081600b600083815260200190815260200160002081905550505b600b600084815260200190815260200160002060009055600a60008573ffffffffffffffffffffffffffffffffffffffff1673ffffffffffffffffffffffffffffffffffffffff16815260200190815260200160002060008381526020019081526020016000206000905550505050565b60006001600c80549050613381919061462a565b90506000600d60008481526020019081526020016000205490506000600c83815481106133d7577f4e487b7100000000000000000000000000000000000000000000000000000000600052603260045260246000fd5b9060005260206000200154905080600c838154811061341f577f4e487b7100000000000000000000000000000000000000000000000000000000600052603260045260246000fd5b906000526020600020018190555081600d600083815260200190815260200160002081905550600d600085815260200190815260200160002060009055600c805480613494577f4e487b7100000000000000000000000000000000000000000000000000000000600052603160045260246000fd5b6001900381819060005260206000200160009055905550505050565b60006134bb83610dc1565b905081600a60008573ffffffffffffffffffffffffffffffffffffffff1673ffffffffffffffffffffffffffffffffffffffff16815260200190815260200160002060008381526020019081526020016000208190555080600b600084815260200190815260200160002081905550505050565b82805461353b90614748565b90600052602060002090601f01602090048101928261355d57600085556135a4565b82601f1061357657805160ff19168380011785556135a4565b828001600101855582156135a4579182015b828111156135a3578251825591602001919060010190613588565b5b5090506135b191906135b5565b5090565b5b808211156135ce5760008160009055506001016135b6565b5090565b60006135e56135e0846144a4565b61447f565b9050828152602081018484840111156135fd57600080fd5b6136088482856146dc565b509392505050565b600061362361361e846144d5565b61447f565b90508281526020810184848401111561363b57600080fd5b6136468482856146dc565b509392505050565b60008135905061365d8161512d565b92915050565b60008135905061367281615144565b92915050565b6000813590506136878161515b565b92915050565b60008135905061369c81615172565b92915050565b6000815190506136b181615172565b92915050565b600082601f8301126136c857600080fd5b81356136d88482602086016135d2565b91505092915050565b600082601f8301126136f257600080fd5b8135613702848260208601613610565b91505092915050565b60008135905061371a81615189565b92915050565b60006020828403121561373257600080fd5b60006137408482850161364e565b91505092915050565b6000806040838503121561375c57600080fd5b600061376a8582860161364e565b925050602061377b8582860161364e565b9150509250929050565b60008060006060848603121561379a57600080fd5b60006137a88682870161364e565b93505060206137b98682870161364e565b92505060406137ca8682870161370b565b9150509250925092565b600080600080608085870312156137ea57600080fd5b60006137f88782880161364e565b94505060206138098782880161364e565b935050604061381a8782880161370b565b925050606085013567ffffffffffffffff81111561383757600080fd5b613843878288016136b7565b91505092959194509250565b6000806040838503121561386257600080fd5b60006138708582860161364e565b925050602061388185828601613663565b9150509250929050565b6000806040838503121561389e57600080fd5b60006138ac8582860161364e565b925050602083013567ffffffffffffffff8111156138c957600080fd5b6138d5858286016136e1565b9150509250929050565b600080604083850312156138f257600080fd5b60006139008582860161364e565b92505060206139118582860161370b565b9150509250929050565b60006020828403121561392d57600080fd5b600061393b84828501613678565b91505092915050565b6000806040838503121561395757600080fd5b600061396585828601613678565b92505060206139768582860161364e565b9150509250929050565b6000806040838503121561399357600080fd5b60006139a185828601613678565b92505060206139b28582860161370b565b9150509250929050565b6000602082840312156139ce57600080fd5b60006139dc8482850161368d565b91505092915050565b6000602082840312156139f757600080fd5b6000613a05848285016136a2565b91505092915050565b600060208284031215613a2057600080fd5b6000613a2e8482850161370b565b91505092915050565b60008060408385031215613a4a57600080fd5b6000613a588582860161370b565b925050602083013567ffffffffffffffff811115613a7557600080fd5b613a81858286016136e1565b9150509250929050565b613a948161465e565b82525050565b613aa381614670565b82525050565b613ab28161467c565b82525050565b6000613ac382614506565b613acd818561451c565b9350613add8185602086016146eb565b613ae6816148e1565b840191505092915050565b6000613afc82614511565b613b06818561452d565b9350613b168185602086016146eb565b613b1f816148e1565b840191505092915050565b6000613b3582614511565b613b3f818561453e565b9350613b4f8185602086016146eb565b80840191505092915050565b6000613b6860228361452d565b9150613b73826148f2565b604082019050919050565b6000613b8b60208361452d565b9150613b9682614941565b602082019050919050565b6000613bae602b8361452d565b9150613bb98261496a565b604082019050919050565b6000613bd160148361452d565b9150613bdc826149b9565b602082019050919050565b6000613bf4602b8361452d565b9150613bff826149e2565b604082019050919050565b6000613c1760328361452d565b9150613c2282614a31565b604082019050919050565b6000613c3a601c8361452d565b9150613c4582614a80565b602082019050919050565b6000613c5d601f8361452d565b9150613c6882614aa9565b602082019050919050565b6000613c80603e8361452d565b9150613c8b82614ad2565b604082019050919050565b6000613ca360248361452d565b9150613cae82614b21565b604082019050919050565b6000613cc660198361452d565b9150613cd182614b70565b602082019050919050565b6000613ce9602c8361452d565b9150613cf482614b99565b604082019050919050565b6000613d0c60108361452d565b9150613d1782614be8565b602082019050919050565b6000613d2f60388361452d565b9150613d3a82614c11565b604082019050919050565b6000613d52602a8361452d565b9150613d5d82614c60565b604082019050919050565b6000613d7560298361452d565b9150613d8082614caf565b604082019050919050565b6000613d9860208361452d565b9150613da382614cfe565b602082019050919050565b6000613dbb602c8361452d565b9150613dc682614d27565b604082019050919050565b6000613dde60298361452d565b9150613de982614d76565b604082019050919050565b6000613e01602f8361452d565b9150613e0c82614dc5565b604082019050919050565b6000613e24603d8361452d565b9150613e2f82614e14565b604082019050919050565b6000613e4760218361452d565b9150613e5282614e63565b604082019050919050565b6000613e6a60318361452d565b9150613e7582614eb2565b604082019050919050565b6000613e8d602c8361452d565b9150613e9882614f01565b604082019050919050565b6000613eb060178361453e565b9150613ebb82614f50565b601782019050919050565b6000613ed3603d8361452d565b9150613ede82614f79565b604082019050919050565b6000613ef660298361452d565b9150613f0182614fc8565b604082019050919050565b6000613f1960308361452d565b9150613f2482615017565b604082019050919050565b6000613f3c60408361452d565b9150613f4782615066565b604082019050919050565b6000613f5f60118361453e565b9150613f6a826150b5565b601182019050919050565b6000613f82602f8361452d565b9150613f8d826150de565b604082019050919050565b613fa1816146d2565b82525050565b6000613fb38285613b2a565b9150613fbf8284613b2a565b91508190509392505050565b6000613fd682613ea3565b9150613fe28285613b2a565b9150613fed82613f52565b9150613ff98284613b2a565b91508190509392505050565b600060208201905061401a6000830184613a8b565b92915050565b60006080820190506140356000830187613a8b565b6140426020830186613a8b565b61404f6040830185613f98565b81810360608301526140618184613ab8565b905095945050505050565b60006020820190506140816000830184613a9a565b92915050565b600060208201905061409c6000830184613aa9565b92915050565b600060208201905081810360008301526140bc8184613af1565b905092915050565b600060208201905081810360008301526140dd81613b5b565b9050919050565b600060208201905081810360008301526140fd81613b7e565b9050919050565b6000602082019050818103600083015261411d81613ba1565b9050919050565b6000602082019050818103600083015261413d81613bc4565b9050919050565b6000602082019050818103600083015261415d81613be7565b9050919050565b6000602082019050818103600083015261417d81613c0a565b9050919050565b6000602082019050818103600083015261419d81613c2d565b9050919050565b600060208201905081810360008301526141bd81613c50565b9050919050565b600060208201905081810360008301526141dd81613c73565b9050919050565b600060208201905081810360008301526141fd81613c96565b9050919050565b6000602082019050818103600083015261421d81613cb9565b9050919050565b6000602082019050818103600083015261423d81613cdc565b9050919050565b6000602082019050818103600083015261425d81613cff565b9050919050565b6000602082019050818103600083015261427d81613d22565b9050919050565b6000602082019050818103600083015261429d81613d45565b9050919050565b600060208201905081810360008301526142bd81613d68565b9050919050565b600060208201905081810360008301526142dd81613d8b565b9050919050565b600060208201905081810360008301526142fd81613dae565b9050919050565b6000602082019050818103600083015261431d81613dd1565b9050919050565b6000602082019050818103600083015261433d81613df4565b9050919050565b6000602082019050818103600083015261435d81613e17565b9050919050565b6000602082019050818103600083015261437d81613e3a565b9050919050565b6000602082019050818103600083015261439d81613e5d565b9050919050565b600060208201905081810360008301526143bd81613e80565b9050919050565b600060208201905081810360008301526143dd81613ec6565b9050919050565b600060208201905081810360008301526143fd81613ee9565b9050919050565b6000602082019050818103600083015261441d81613f0c565b9050919050565b6000602082019050818103600083015261443d81613f2f565b9050919050565b6000602082019050818103600083015261445d81613f75565b9050919050565b60006020820190506144796000830184613f98565b92915050565b600061448961449a565b9050614495828261477a565b919050565b6000604051905090565b600067ffffffffffffffff8211156144bf576144be6148b2565b5b6144c8826148e1565b9050602081019050919050565b600067ffffffffffffffff8211156144f0576144ef6148b2565b5b6144f9826148e1565b9050602081019050919050565b600081519050919050565b600081519050919050565b600082825260208201905092915050565b600082825260208201905092915050565b600081905092915050565b6000614554826146d2565b915061455f836146d2565b9250827fffffffffffffffffffffffffffffffffffffffffffffffffffffffffffffffff0382111561459457614593614825565b5b828201905092915050565b60006145aa826146d2565b91506145b5836146d2565b9250826145c5576145c4614854565b5b828204905092915050565b60006145db826146d2565b91506145e6836146d2565b9250817fffffffffffffffffffffffffffffffffffffffffffffffffffffffffffffffff048311821515161561461f5761461e614825565b5b828202905092915050565b6000614635826146d2565b9150614640836146d2565b92508282101561465357614652614825565b5b828203905092915050565b6000614669826146b2565b9050919050565b60008115159050919050565b6000819050919050565b60007fffffffff0000000000000000000000000000000000000000000000000000000082169050919050565b600073ffffffffffffffffffffffffffffffffffffffff82169050919050565b6000819050919050565b82818337600083830152505050565b60005b838110156147095780820151818401526020810190506146ee565b83811115614718576000848401525b50505050565b6000614729826146d2565b9150600082141561473d5761473c614825565b5b600182039050919050565b6000600282049050600182168061476057607f821691505b6020821081141561477457614773614883565b5b50919050565b614783826148e1565b810181811067ffffffffffffffff821117156147a2576147a16148b2565b5b80604052505050565b60006147b6826146d2565b91507fffffffffffffffffffffffffffffffffffffffffffffffffffffffffffffffff8214156147e9576147e8614825565b5b600182019050919050565b60006147ff826146d2565b915061480a836146d2565b92508261481a57614819614854565b5b828206905092915050565b7f4e487b7100000000000000000000000000000000000000000000000000000000600052601160045260246000fd5b7f4e487b7100000000000000000000000000000000000000000000000000000000600052601260045260246000fd5b7f4e487b7100000000000000000000000000000000000000000000000000000000600052602260045260246000fd5b7f4e487b7100000000000000000000000000000000000000000000000000000000600052604160045260246000fd5b6000601f19601f8301169050919050565b7f456e756d657261626c655365743a20696e646578206f7574206f6620626f756e60008201527f6473000000000000000000000000000000000000000000000000000000000000602082015250565b7f537472696e67733a20686578206c656e67746820696e73756666696369656e74600082015250565b7f4552433732315061757361626c653a20746f6b656e207472616e73666572207760008201527f68696c6520706175736564000000000000000000000000000000000000000000602082015250565b7f5061757361626c653a206e6f7420706175736564000000000000000000000000600082015250565b7f455243373231456e756d657261626c653a206f776e657220696e646578206f7560008201527f74206f6620626f756e6473000000000000000000000000000000000000000000602082015250565b7f4552433732313a207472616e7366657220746f206e6f6e20455243373231526560008201527f63656976657220696d706c656d656e7465720000000000000000000000000000602082015250565b7f4552433732313a20746f6b656e20616c7265616479206d696e74656400000000600082015250565b7f4e6f7420746865207075626c6973686572206f66207468697320746f6b656e00600082015250565b7f4552433732315072657365744d696e7465725061757365724175746f49643a2060008201527f6d75737420686176652070617573657220726f6c6520746f2070617573650000602082015250565b7f4552433732313a207472616e7366657220746f20746865207a65726f2061646460008201527f7265737300000000000000000000000000000000000000000000000000000000602082015250565b7f4552433732313a20617070726f766520746f2063616c6c657200000000000000600082015250565b7f4552433732313a206f70657261746f7220717565727920666f72206e6f6e657860008201527f697374656e7420746f6b656e0000000000000000000000000000000000000000602082015250565b7f5061757361626c653a2070617573656400000000000000000000000000000000600082015250565b7f4552433732313a20617070726f76652063616c6c6572206973206e6f74206f7760008201527f6e6572206e6f7220617070726f76656420666f7220616c6c0000000000000000602082015250565b7f4552433732313a2062616c616e636520717565727920666f7220746865207a6560008201527f726f206164647265737300000000000000000000000000000000000000000000602082015250565b7f4552433732313a206f776e657220717565727920666f72206e6f6e657869737460008201527f656e7420746f6b656e0000000000000000000000000000000000000000000000602082015250565b7f4552433732313a206d696e7420746f20746865207a65726f2061646472657373600082015250565b7f4552433732313a20617070726f76656420717565727920666f72206e6f6e657860008201527f697374656e7420746f6b656e0000000000000000000000000000000000000000602082015250565b7f4552433732313a207472616e73666572206f6620746f6b656e2074686174206960008201527f73206e6f74206f776e0000000000000000000000000000000000000000000000602082015250565b7f4552433732314d657461646174613a2055524920717565727920666f72206e6f60008201527f6e6578697374656e7420746f6b656e0000000000000000000000000000000000602082015250565b7f4552433732315072657365744d696e7465725061757365724175746f49643a2060008201527f6d75737420686176652061646d696e20726f6c6520746f206772616e74000000602082015250565b7f4552433732313a20617070726f76616c20746f2063757272656e74206f776e6560008201527f7200000000000000000000000000000000000000000000000000000000000000602082015250565b7f4552433732313a207472616e736665722063616c6c6572206973206e6f74206f60008201527f776e6572206e6f7220617070726f766564000000000000000000000000000000602082015250565b7f455243373231456e756d657261626c653a20676c6f62616c20696e646578206f60008201527f7574206f6620626f756e64730000000000000000000000000000000000000000602082015250565b7f416363657373436f6e74726f6c3a206163636f756e7420000000000000000000600082015250565b7f4552433732315072657365744d696e7465725061757365724175746f49643a2060008201527f6d7573742068617665206d696e74657220726f6c6520746f206d696e74000000602082015250565b7f546869732073636f726520746f6b656e2063616e206e6f206c6f6e676572206260008201527f6520656469747465640000000000000000000000000000000000000000000000602082015250565b7f4552433732314275726e61626c653a2063616c6c6572206973206e6f74206f7760008201527f6e6572206e6f7220617070726f76656400000000000000000000000000000000602082015250565b7f4552433732315072657365744d696e7465725061757365724175746f49643a2060008201527f6d75737420686176652070617573657220726f6c6520746f20756e7061757365602082015250565b7f206973206d697373696e6720726f6c6520000000000000000000000000000000600082015250565b7f416363657373436f6e74726f6c3a2063616e206f6e6c792072656e6f756e636560008201527f20726f6c657320666f722073656c660000000000000000000000000000000000602082015250565b6151368161465e565b811461514157600080fd5b50565b61514d81614670565b811461515857600080fd5b50565b6151648161467c565b811461516f57600080fd5b50565b61517b81614686565b811461518657600080fd5b50565b615192816146d2565b811461519d57600080fd5b5056fea264697066735822122085855af846aae1702b7a2fe9d164d5111da6b421d565817f770e9bfbf540156964736f6c63430008030033",
  "immutableReferences": {},
  "source": "// SPDX-License-Identifier: MIT\n\npragma solidity ^0.8.0;\nimport \"../ERC721.sol\";\nimport \"../extensions/ERC721Enumerable.sol\";\n\nimport \"../extensions/ERC721Pausable.sol\";\nimport \"../extensions/ERC721Burnable.sol\";\nimport \"../../../access/AccessControlEnumerable.sol\";\nimport \"../../../utils/Context.sol\";\nimport \"../../../utils/Counters.sol\";\n\n/**\n * @dev {ERC721} token, including:\n *\n *  - ability for holders to burn (destroy) their tokens\n *  - a minter role that allows for token minting (creation)\n *  - a pauser role that allows to stop all token transfers\n *  - token ID and URI autogeneration\n *\n * This contract uses {AccessControl} to lock permissioned functions using the\n * different roles - head to its documentation for details.\n *\n * The account that deploys the contract will be granted the minter and pauser\n * roles, as well as the default admin role, which will let it grant both minter\n * and pauser roles to other accounts.\n */\ncontract ERC721PresetMinterPauserAutoId is Context, AccessControlEnumerable, ERC721Enumerable, ERC721Burnable, ERC721Pausable {\n    using Counters for Counters.Counter;\n    event Update(uint256 indexed tokenId);\n\n    bytes32 public constant MINTER_ROLE = keccak256(\"MINTER_ROLE\");\n    bytes32 public constant PAUSER_ROLE = keccak256(\"PAUSER_ROLE\");\n\n    Counters.Counter private _tokenIdTracker;\n\n    string private _baseTokenURI;\n\n    /**\n     * @dev Grants `DEFAULT_ADMIN_ROLE`, `MINTER_ROLE` and `PAUSER_ROLE` to the\n     * account that deploys the contract.\n     *\n     * Token URIs will be autogenerated based on `baseURI` and their token IDs.\n     * See {ERC721-tokenURI}.\n     */\n    constructor(string memory name, string memory symbol, string memory baseTokenURI) ERC721(name, symbol) {\n        _baseTokenURI = baseTokenURI;\n\n        _setupRole(DEFAULT_ADMIN_ROLE, _msgSender());\n\n        _setupRole(MINTER_ROLE, _msgSender());\n        _setupRole(PAUSER_ROLE, _msgSender());\n    }\n\n    function _baseURI() internal view virtual override returns (string memory) {\n        return _baseTokenURI;\n    }\n\n    function granMinterRole(address toGrantMinterRole) public virtual {\n        require(hasRole(DEFAULT_ADMIN_ROLE, _msgSender()), \"ERC721PresetMinterPauserAutoId: must have admin role to grant\");\n        _setupRole(MINTER_ROLE, toGrantMinterRole);\n    }\n\n    function getOwnerAddressByTokenId(uint256 tokenId) public view returns (address)  {\n        return _owners[tokenId];\n    }\n\n    /**\n     * @dev Creates a new token for `to`. Its token ID will be automatically\n     * assigned (and available on the emitted {IERC721-Transfer} event), and the token\n     * URI autogenerated based on the base URI passed at construction.\n     *\n     * See {ERC721-_mint}.\n     *\n     * Requirements:\n     *\n     * - the caller must have the `MINTER_ROLE`.\n     */\n    function mint(address to, string memory scorehash) public virtual {\n        require(hasRole(MINTER_ROLE, _msgSender()), \"ERC721PresetMinterPauserAutoId: must have minter role to mint\");\n\n        // We cannot just use balanceOf to create the new tokenId because tokens\n        // can be burned (destroyed), so we need a separate counter.\n        _mint(to, _tokenIdTracker.current(), scorehash);\n        _tokenIdTracker.increment();\n    }\n\n    function getScoreHashByTokenId(uint256 tokenId) public view virtual returns (string memory) {\n        return _scoreHashes[tokenId];\n    }\n    \n    function updateScoreHashByTokenId(uint256 tokenId, string memory newScoreHash) public {\n        require(_owners[tokenId] == msg.sender, \"Not the publisher of this token\");\n        require(_endtimes[tokenId] > block.timestamp, \"This score token can no longer be editted\");\n        _scoreHashes[tokenId] = newScoreHash;\n        emit Update(tokenId);\n    }\n\n    /**\n     * @dev Pauses all token transfers.\n     *\n     * See {ERC721Pausable} and {Pausable-_pause}.\n     *\n     * Requirements:\n     *\n     * - the caller must have the `PAUSER_ROLE`.\n     */\n    function pause() public virtual {\n        require(hasRole(PAUSER_ROLE, _msgSender()), \"ERC721PresetMinterPauserAutoId: must have pauser role to pause\");\n        _pause();\n    }\n\n    /**\n     * @dev Unpauses all token transfers.\n     *\n     * See {ERC721Pausable} and {Pausable-_unpause}.\n     *\n     * Requirements:\n     *\n     * - the caller must have the `PAUSER_ROLE`.\n     */\n    function unpause() public virtual {\n        require(hasRole(PAUSER_ROLE, _msgSender()), \"ERC721PresetMinterPauserAutoId: must have pauser role to unpause\");\n        _unpause();\n    }\n\n    function _beforeTokenTransfer(address from, address to, uint256 tokenId) internal virtual override(ERC721, ERC721Enumerable, ERC721Pausable) {\n        super._beforeTokenTransfer(from, to, tokenId);\n    }\n\n    /**\n     * @dev See {IERC165-supportsInterface}.\n     */\n    function supportsInterface(bytes4 interfaceId) public view virtual override(AccessControlEnumerable, ERC721, ERC721Enumerable) returns (bool) {\n        return super.supportsInterface(interfaceId);\n    }\n}\n",
  "sourcePath": "/Users/phamhuyphat/Documents/erc721-score-blockchain-service/contracts/token/ERC721/presets/ERC721PresetMinterPauserAutoId.sol",
  "compiler": {
    "name": "solc",
    "version": "0.8.3+commit.8d00100c.Emscripten.clang"
  },
  "schemaVersion": "3.3.4",
  "updatedAt": "2021-06-05T08:29:42.230Z",
  "networkType": "ethereum",
  "devdoc": {
    "details": "{ERC721} token, including:  - ability for holders to burn (destroy) their tokens  - a minter role that allows for token minting (creation)  - a pauser role that allows to stop all token transfers  - token ID and URI autogeneration This contract uses {AccessControl} to lock permissioned functions using the different roles - head to its documentation for details. The account that deploys the contract will be granted the minter and pauser roles, as well as the default admin role, which will let it grant both minter and pauser roles to other accounts.",
    "kind": "dev",
    "methods": {
      "approve(address,uint256)": {
        "details": "See {IERC721-approve}."
      },
      "balanceOf(address)": {
        "details": "See {IERC721-balanceOf}."
      },
      "burn(uint256)": {
        "details": "Burns `tokenId`. See {ERC721-_burn}. Requirements: - The caller must own `tokenId` or be an approved operator."
      },
      "constructor": {
        "details": "Grants `DEFAULT_ADMIN_ROLE`, `MINTER_ROLE` and `PAUSER_ROLE` to the account that deploys the contract. Token URIs will be autogenerated based on `baseURI` and their token IDs. See {ERC721-tokenURI}."
      },
      "getApproved(uint256)": {
        "details": "See {IERC721-getApproved}."
      },
      "getRoleAdmin(bytes32)": {
        "details": "Returns the admin role that controls `role`. See {grantRole} and {revokeRole}. To change a role's admin, use {_setRoleAdmin}."
      },
      "getRoleMember(bytes32,uint256)": {
        "details": "Returns one of the accounts that have `role`. `index` must be a value between 0 and {getRoleMemberCount}, non-inclusive. Role bearers are not sorted in any particular way, and their ordering may change at any point. WARNING: When using {getRoleMember} and {getRoleMemberCount}, make sure you perform all queries on the same block. See the following https://forum.openzeppelin.com/t/iterating-over-elements-on-enumerableset-in-openzeppelin-contracts/2296[forum post] for more information."
      },
      "getRoleMemberCount(bytes32)": {
        "details": "Returns the number of accounts that have `role`. Can be used together with {getRoleMember} to enumerate all bearers of a role."
      },
      "grantRole(bytes32,address)": {
        "details": "Overload {grantRole} to track enumerable memberships"
      },
      "hasRole(bytes32,address)": {
        "details": "Returns `true` if `account` has been granted `role`."
      },
      "isApprovedForAll(address,address)": {
        "details": "See {IERC721-isApprovedForAll}."
      },
      "mint(address,string)": {
        "details": "Creates a new token for `to`. Its token ID will be automatically assigned (and available on the emitted {IERC721-Transfer} event), and the token URI autogenerated based on the base URI passed at construction. See {ERC721-_mint}. Requirements: - the caller must have the `MINTER_ROLE`."
      },
      "name()": {
        "details": "See {IERC721Metadata-name}."
      },
      "ownerOf(uint256)": {
        "details": "See {IERC721-ownerOf}."
      },
      "pause()": {
        "details": "Pauses all token transfers. See {ERC721Pausable} and {Pausable-_pause}. Requirements: - the caller must have the `PAUSER_ROLE`."
      },
      "paused()": {
        "details": "Returns true if the contract is paused, and false otherwise."
      },
      "renounceRole(bytes32,address)": {
        "details": "Overload {renounceRole} to track enumerable memberships"
      },
      "revokeRole(bytes32,address)": {
        "details": "Overload {revokeRole} to track enumerable memberships"
      },
      "safeTransferFrom(address,address,uint256)": {
        "details": "See {IERC721-safeTransferFrom}."
      },
      "safeTransferFrom(address,address,uint256,bytes)": {
        "details": "See {IERC721-safeTransferFrom}."
      },
      "setApprovalForAll(address,bool)": {
        "details": "See {IERC721-setApprovalForAll}."
      },
      "supportsInterface(bytes4)": {
        "details": "See {IERC165-supportsInterface}."
      },
      "symbol()": {
        "details": "See {IERC721Metadata-symbol}."
      },
      "tokenByIndex(uint256)": {
        "details": "See {IERC721Enumerable-tokenByIndex}."
      },
      "tokenOfOwnerByIndex(address,uint256)": {
        "details": "See {IERC721Enumerable-tokenOfOwnerByIndex}."
      },
      "tokenURI(uint256)": {
        "details": "See {IERC721Metadata-tokenURI}."
      },
      "totalSupply()": {
        "details": "See {IERC721Enumerable-totalSupply}."
      },
      "transferFrom(address,address,uint256)": {
        "details": "See {IERC721-transferFrom}."
      },
      "unpause()": {
        "details": "Unpauses all token transfers. See {ERC721Pausable} and {Pausable-_unpause}. Requirements: - the caller must have the `PAUSER_ROLE`."
      }
    },
    "version": 1
  },
  "userdoc": {
    "kind": "user",
    "methods": {},
    "version": 1
  }
}