{
  "contractName": "ERC721PresetMinterPauserAutoId",
  "abi": [
    {
      "inputs": [
        {
          "internalType": "string",
          "name": "name",
          "type": "string"
        },
        {
          "internalType": "string",
          "name": "symbol",
          "type": "string"
        },
        {
          "internalType": "string",
          "name": "baseTokenURI",
          "type": "string"
        }
      ],
      "stateMutability": "nonpayable",
      "type": "constructor"
    },
    {
      "anonymous": false,
      "inputs": [
        {
          "indexed": true,
          "internalType": "address",
          "name": "owner",
          "type": "address"
        },
        {
          "indexed": true,
          "internalType": "address",
          "name": "approved",
          "type": "address"
        },
        {
          "indexed": true,
          "internalType": "uint256",
          "name": "tokenId",
          "type": "uint256"
        }
      ],
      "name": "Approval",
      "type": "event"
    },
    {
      "anonymous": false,
      "inputs": [
        {
          "indexed": true,
          "internalType": "address",
          "name": "owner",
          "type": "address"
        },
        {
          "indexed": true,
          "internalType": "address",
          "name": "operator",
          "type": "address"
        },
        {
          "indexed": false,
          "internalType": "bool",
          "name": "approved",
          "type": "bool"
        }
      ],
      "name": "ApprovalForAll",
      "type": "event"
    },
    {
      "anonymous": false,
      "inputs": [
        {
          "indexed": false,
          "internalType": "address",
          "name": "account",
          "type": "address"
        }
      ],
      "name": "Paused",
      "type": "event"
    },
    {
      "anonymous": false,
      "inputs": [
        {
          "indexed": true,
          "internalType": "bytes32",
          "name": "role",
          "type": "bytes32"
        },
        {
          "indexed": true,
          "internalType": "bytes32",
          "name": "previousAdminRole",
          "type": "bytes32"
        },
        {
          "indexed": true,
          "internalType": "bytes32",
          "name": "newAdminRole",
          "type": "bytes32"
        }
      ],
      "name": "RoleAdminChanged",
      "type": "event"
    },
    {
      "anonymous": false,
      "inputs": [
        {
          "indexed": true,
          "internalType": "bytes32",
          "name": "role",
          "type": "bytes32"
        },
        {
          "indexed": true,
          "internalType": "address",
          "name": "account",
          "type": "address"
        },
        {
          "indexed": true,
          "internalType": "address",
          "name": "sender",
          "type": "address"
        }
      ],
      "name": "RoleGranted",
      "type": "event"
    },
    {
      "anonymous": false,
      "inputs": [
        {
          "indexed": true,
          "internalType": "bytes32",
          "name": "role",
          "type": "bytes32"
        },
        {
          "indexed": true,
          "internalType": "address",
          "name": "account",
          "type": "address"
        },
        {
          "indexed": true,
          "internalType": "address",
          "name": "sender",
          "type": "address"
        }
      ],
      "name": "RoleRevoked",
      "type": "event"
    },
    {
      "anonymous": false,
      "inputs": [
        {
          "indexed": true,
          "internalType": "address",
          "name": "from",
          "type": "address"
        },
        {
          "indexed": true,
          "internalType": "address",
          "name": "to",
          "type": "address"
        },
        {
          "indexed": true,
          "internalType": "uint256",
          "name": "tokenId",
          "type": "uint256"
        }
      ],
      "name": "Transfer",
      "type": "event"
    },
    {
      "anonymous": false,
      "inputs": [
        {
          "indexed": false,
          "internalType": "address",
          "name": "account",
          "type": "address"
        }
      ],
      "name": "Unpaused",
      "type": "event"
    },
    {
      "anonymous": false,
      "inputs": [
        {
          "indexed": true,
          "internalType": "uint256",
          "name": "tokenId",
          "type": "uint256"
        }
      ],
      "name": "Update",
      "type": "event"
    },
    {
      "inputs": [],
      "name": "DEFAULT_ADMIN_ROLE",
      "outputs": [
        {
          "internalType": "bytes32",
          "name": "",
          "type": "bytes32"
        }
      ],
      "stateMutability": "view",
      "type": "function",
      "constant": true
    },
    {
      "inputs": [],
      "name": "MINTER_ROLE",
      "outputs": [
        {
          "internalType": "bytes32",
          "name": "",
          "type": "bytes32"
        }
      ],
      "stateMutability": "view",
      "type": "function",
      "constant": true
    },
    {
      "inputs": [],
      "name": "PAUSER_ROLE",
      "outputs": [
        {
          "internalType": "bytes32",
          "name": "",
          "type": "bytes32"
        }
      ],
      "stateMutability": "view",
      "type": "function",
      "constant": true
    },
    {
      "inputs": [
        {
          "internalType": "address",
          "name": "to",
          "type": "address"
        },
        {
          "internalType": "uint256",
          "name": "tokenId",
          "type": "uint256"
        }
      ],
      "name": "approve",
      "outputs": [],
      "stateMutability": "nonpayable",
      "type": "function"
    },
    {
      "inputs": [
        {
          "internalType": "address",
          "name": "owner",
          "type": "address"
        }
      ],
      "name": "balanceOf",
      "outputs": [
        {
          "internalType": "uint256",
          "name": "",
          "type": "uint256"
        }
      ],
      "stateMutability": "view",
      "type": "function",
      "constant": true
    },
    {
      "inputs": [
        {
          "internalType": "uint256",
          "name": "tokenId",
          "type": "uint256"
        }
      ],
      "name": "burn",
      "outputs": [],
      "stateMutability": "nonpayable",
      "type": "function"
    },
    {
      "inputs": [
        {
          "internalType": "uint256",
          "name": "tokenId",
          "type": "uint256"
        }
      ],
      "name": "getApproved",
      "outputs": [
        {
          "internalType": "address",
          "name": "",
          "type": "address"
        }
      ],
      "stateMutability": "view",
      "type": "function",
      "constant": true
    },
    {
      "inputs": [
        {
          "internalType": "bytes32",
          "name": "role",
          "type": "bytes32"
        }
      ],
      "name": "getRoleAdmin",
      "outputs": [
        {
          "internalType": "bytes32",
          "name": "",
          "type": "bytes32"
        }
      ],
      "stateMutability": "view",
      "type": "function",
      "constant": true
    },
    {
      "inputs": [
        {
          "internalType": "bytes32",
          "name": "role",
          "type": "bytes32"
        },
        {
          "internalType": "uint256",
          "name": "index",
          "type": "uint256"
        }
      ],
      "name": "getRoleMember",
      "outputs": [
        {
          "internalType": "address",
          "name": "",
          "type": "address"
        }
      ],
      "stateMutability": "view",
      "type": "function",
      "constant": true
    },
    {
      "inputs": [
        {
          "internalType": "bytes32",
          "name": "role",
          "type": "bytes32"
        }
      ],
      "name": "getRoleMemberCount",
      "outputs": [
        {
          "internalType": "uint256",
          "name": "",
          "type": "uint256"
        }
      ],
      "stateMutability": "view",
      "type": "function",
      "constant": true
    },
    {
      "inputs": [
        {
          "internalType": "bytes32",
          "name": "role",
          "type": "bytes32"
        },
        {
          "internalType": "address",
          "name": "account",
          "type": "address"
        }
      ],
      "name": "grantRole",
      "outputs": [],
      "stateMutability": "nonpayable",
      "type": "function"
    },
    {
      "inputs": [
        {
          "internalType": "bytes32",
          "name": "role",
          "type": "bytes32"
        },
        {
          "internalType": "address",
          "name": "account",
          "type": "address"
        }
      ],
      "name": "hasRole",
      "outputs": [
        {
          "internalType": "bool",
          "name": "",
          "type": "bool"
        }
      ],
      "stateMutability": "view",
      "type": "function",
      "constant": true
    },
    {
      "inputs": [
        {
          "internalType": "address",
          "name": "owner",
          "type": "address"
        },
        {
          "internalType": "address",
          "name": "operator",
          "type": "address"
        }
      ],
      "name": "isApprovedForAll",
      "outputs": [
        {
          "internalType": "bool",
          "name": "",
          "type": "bool"
        }
      ],
      "stateMutability": "view",
      "type": "function",
      "constant": true
    },
    {
      "inputs": [],
      "name": "name",
      "outputs": [
        {
          "internalType": "string",
          "name": "",
          "type": "string"
        }
      ],
      "stateMutability": "view",
      "type": "function",
      "constant": true
    },
    {
      "inputs": [
        {
          "internalType": "uint256",
          "name": "tokenId",
          "type": "uint256"
        }
      ],
      "name": "ownerOf",
      "outputs": [
        {
          "internalType": "address",
          "name": "",
          "type": "address"
        }
      ],
      "stateMutability": "view",
      "type": "function",
      "constant": true
    },
    {
      "inputs": [],
      "name": "paused",
      "outputs": [
        {
          "internalType": "bool",
          "name": "",
          "type": "bool"
        }
      ],
      "stateMutability": "view",
      "type": "function",
      "constant": true
    },
    {
      "inputs": [
        {
          "internalType": "bytes32",
          "name": "role",
          "type": "bytes32"
        },
        {
          "internalType": "address",
          "name": "account",
          "type": "address"
        }
      ],
      "name": "renounceRole",
      "outputs": [],
      "stateMutability": "nonpayable",
      "type": "function"
    },
    {
      "inputs": [
        {
          "internalType": "bytes32",
          "name": "role",
          "type": "bytes32"
        },
        {
          "internalType": "address",
          "name": "account",
          "type": "address"
        }
      ],
      "name": "revokeRole",
      "outputs": [],
      "stateMutability": "nonpayable",
      "type": "function"
    },
    {
      "inputs": [
        {
          "internalType": "address",
          "name": "from",
          "type": "address"
        },
        {
          "internalType": "address",
          "name": "to",
          "type": "address"
        },
        {
          "internalType": "uint256",
          "name": "tokenId",
          "type": "uint256"
        }
      ],
      "name": "safeTransferFrom",
      "outputs": [],
      "stateMutability": "nonpayable",
      "type": "function"
    },
    {
      "inputs": [
        {
          "internalType": "address",
          "name": "from",
          "type": "address"
        },
        {
          "internalType": "address",
          "name": "to",
          "type": "address"
        },
        {
          "internalType": "uint256",
          "name": "tokenId",
          "type": "uint256"
        },
        {
          "internalType": "bytes",
          "name": "_data",
          "type": "bytes"
        }
      ],
      "name": "safeTransferFrom",
      "outputs": [],
      "stateMutability": "nonpayable",
      "type": "function"
    },
    {
      "inputs": [
        {
          "internalType": "address",
          "name": "operator",
          "type": "address"
        },
        {
          "internalType": "bool",
          "name": "approved",
          "type": "bool"
        }
      ],
      "name": "setApprovalForAll",
      "outputs": [],
      "stateMutability": "nonpayable",
      "type": "function"
    },
    {
      "inputs": [],
      "name": "symbol",
      "outputs": [
        {
          "internalType": "string",
          "name": "",
          "type": "string"
        }
      ],
      "stateMutability": "view",
      "type": "function",
      "constant": true
    },
    {
      "inputs": [
        {
          "internalType": "uint256",
          "name": "index",
          "type": "uint256"
        }
      ],
      "name": "tokenByIndex",
      "outputs": [
        {
          "internalType": "uint256",
          "name": "",
          "type": "uint256"
        }
      ],
      "stateMutability": "view",
      "type": "function",
      "constant": true
    },
    {
      "inputs": [
        {
          "internalType": "address",
          "name": "owner",
          "type": "address"
        },
        {
          "internalType": "uint256",
          "name": "index",
          "type": "uint256"
        }
      ],
      "name": "tokenOfOwnerByIndex",
      "outputs": [
        {
          "internalType": "uint256",
          "name": "",
          "type": "uint256"
        }
      ],
      "stateMutability": "view",
      "type": "function",
      "constant": true
    },
    {
      "inputs": [
        {
          "internalType": "uint256",
          "name": "tokenId",
          "type": "uint256"
        }
      ],
      "name": "tokenURI",
      "outputs": [
        {
          "internalType": "string",
          "name": "",
          "type": "string"
        }
      ],
      "stateMutability": "view",
      "type": "function",
      "constant": true
    },
    {
      "inputs": [],
      "name": "totalSupply",
      "outputs": [
        {
          "internalType": "uint256",
          "name": "",
          "type": "uint256"
        }
      ],
      "stateMutability": "view",
      "type": "function",
      "constant": true
    },
    {
      "inputs": [
        {
          "internalType": "address",
          "name": "from",
          "type": "address"
        },
        {
          "internalType": "address",
          "name": "to",
          "type": "address"
        },
        {
          "internalType": "uint256",
          "name": "tokenId",
          "type": "uint256"
        }
      ],
      "name": "transferFrom",
      "outputs": [],
      "stateMutability": "nonpayable",
      "type": "function"
    },
    {
      "inputs": [
        {
          "internalType": "address",
          "name": "to",
          "type": "address"
        },
        {
          "internalType": "string",
          "name": "scorehash",
          "type": "string"
        }
      ],
      "name": "mint",
      "outputs": [],
      "stateMutability": "nonpayable",
      "type": "function"
    },
    {
      "inputs": [
        {
          "internalType": "uint256",
          "name": "tokenId",
          "type": "uint256"
        }
      ],
      "name": "getScoreHashByTokenId",
      "outputs": [
        {
          "internalType": "string",
          "name": "",
          "type": "string"
        }
      ],
      "stateMutability": "view",
      "type": "function",
      "constant": true
    },
    {
      "inputs": [
        {
          "internalType": "uint256",
          "name": "tokenId",
          "type": "uint256"
        },
        {
          "internalType": "string",
          "name": "newScoreHash",
          "type": "string"
        }
      ],
      "name": "updateScoreHashByTokenId",
      "outputs": [],
      "stateMutability": "nonpayable",
      "type": "function"
    },
    {
      "inputs": [],
      "name": "pause",
      "outputs": [],
      "stateMutability": "nonpayable",
      "type": "function"
    },
    {
      "inputs": [],
      "name": "unpause",
      "outputs": [],
      "stateMutability": "nonpayable",
      "type": "function"
    },
    {
      "inputs": [
        {
          "internalType": "bytes4",
          "name": "interfaceId",
          "type": "bytes4"
        }
      ],
      "name": "supportsInterface",
      "outputs": [
        {
          "internalType": "bool",
          "name": "",
          "type": "bool"
        }
      ],
      "stateMutability": "view",
      "type": "function",
      "constant": true
    }
  ],
  "bytecode": "0x60806040523480156200001157600080fd5b506040516200571a3803806200571a833981810160405281019062000037919062000508565b8282816002908051906020019062000051929190620003e6565b5080600390805190602001906200006a929190620003e6565b5050506000600e60006101000a81548160ff0219169083151502179055508060109080519060200190620000a0929190620003e6565b50620000c56000801b620000b96200015060201b60201c565b6200015860201b60201c565b620001067f9f2df0fed2c77648de5860a4cc508cd0818c85b8b8a1ab4ceeef8d981c8956a6620000fa6200015060201b60201c565b6200015860201b60201c565b620001477f65d7a28e3265b37a6474929f336521b332c1681b933f6cb9f3376673440d862a6200013b6200015060201b60201c565b6200015860201b60201c565b50505062000719565b600033905090565b6200016f8282620001a060201b620015621760201c565b6200019b8160016000858152602001908152602001600020620001b660201b620015701790919060201c565b505050565b620001b28282620001ee60201b60201c565b5050565b6000620001e6836000018373ffffffffffffffffffffffffffffffffffffffff1660001b620002df60201b60201c565b905092915050565b6200020082826200035960201b60201c565b620002db57600160008084815260200190815260200160002060000160008373ffffffffffffffffffffffffffffffffffffffff1673ffffffffffffffffffffffffffffffffffffffff16815260200190815260200160002060006101000a81548160ff021916908315150217905550620002806200015060201b60201c565b73ffffffffffffffffffffffffffffffffffffffff168173ffffffffffffffffffffffffffffffffffffffff16837f2f8788117e7eff1d82e926ec794901d17c78024a50270940304540a733656f0d60405160405180910390a45b5050565b6000620002f38383620003c360201b60201c565b6200034e57826000018290806001815401808255809150506001900390600052602060002001600090919091909150558260000180549050836001016000848152602001908152602001600020819055506001905062000353565b600090505b92915050565b600080600084815260200190815260200160002060000160008373ffffffffffffffffffffffffffffffffffffffff1673ffffffffffffffffffffffffffffffffffffffff16815260200190815260200160002060009054906101000a900460ff16905092915050565b600080836001016000848152602001908152602001600020541415905092915050565b828054620003f4906200063e565b90600052602060002090601f01602090048101928262000418576000855562000464565b82601f106200043357805160ff191683800117855562000464565b8280016001018555821562000464579182015b828111156200046357825182559160200191906001019062000446565b5b50905062000473919062000477565b5090565b5b808211156200049257600081600090555060010162000478565b5090565b6000620004ad620004a784620005d2565b620005a9565b905082815260208101848484011115620004c657600080fd5b620004d384828562000608565b509392505050565b600082601f830112620004ed57600080fd5b8151620004ff84826020860162000496565b91505092915050565b6000806000606084860312156200051e57600080fd5b600084015167ffffffffffffffff8111156200053957600080fd5b6200054786828701620004db565b935050602084015167ffffffffffffffff8111156200056557600080fd5b6200057386828701620004db565b925050604084015167ffffffffffffffff8111156200059157600080fd5b6200059f86828701620004db565b9150509250925092565b6000620005b5620005c8565b9050620005c3828262000674565b919050565b6000604051905090565b600067ffffffffffffffff821115620005f057620005ef620006d9565b5b620005fb8262000708565b9050602081019050919050565b60005b83811015620006285780820151818401526020810190506200060b565b8381111562000638576000848401525b50505050565b600060028204905060018216806200065757607f821691505b602082108114156200066e576200066d620006aa565b5b50919050565b6200067f8262000708565b810181811067ffffffffffffffff82111715620006a157620006a0620006d9565b5b80604052505050565b7f4e487b7100000000000000000000000000000000000000000000000000000000600052602260045260246000fd5b7f4e487b7100000000000000000000000000000000000000000000000000000000600052604160045260246000fd5b6000601f19601f8301169050919050565b614ff180620007296000396000f3fe608060405234801561001057600080fd5b50600436106101fb5760003560e01c80636779288f1161011a578063b6227a63116100ad578063d0def5211161007c578063d0def521146105e6578063d539139314610602578063d547741f14610620578063e63ab1e91461063c578063e985e9c51461065a576101fb565b8063b6227a631461054e578063b88d4fde1461056a578063c87b56dd14610586578063ca15c873146105b6576101fb565b806391d14854116100e957806391d14854146104c657806395d89b41146104f6578063a217fddf14610514578063a22cb46514610532576101fb565b80636779288f1461042c57806370a082311461045c5780638456cb591461048c5780639010d07c14610496576101fb565b80632f745c591161019257806342966c681161016157806342966c68146103925780634f6ccce7146103ae5780635c975abb146103de5780636352211e146103fc576101fb565b80632f745c591461032057806336568abe146103505780633f4ba83a1461036c57806342842e0e14610376576101fb565b806318160ddd116101ce57806318160ddd1461029a57806323b872dd146102b8578063248a9ca3146102d45780632f2ff15d14610304576101fb565b806301ffc9a71461020057806306fdde0314610230578063081812fc1461024e578063095ea7b31461027e575b600080fd5b61021a60048036038101906102159190613869565b61068a565b6040516102279190613ef6565b60405180910390f35b61023861069c565b6040516102459190613f2c565b60405180910390f35b610268600480360381019061026391906138bb565b61072e565b6040516102759190613e8f565b60405180910390f35b6102986004803603810190610293919061378c565b6107b3565b005b6102a26108cb565b6040516102af91906142ce565b60405180910390f35b6102d260048036038101906102cd9190613632565b6108d8565b005b6102ee60048036038101906102e991906137c8565b610938565b6040516102fb9190613f11565b60405180910390f35b61031e600480360381019061031991906137f1565b610957565b005b61033a6004803603810190610335919061378c565b61098b565b60405161034791906142ce565b60405180910390f35b61036a600480360381019061036591906137f1565b610a30565b005b610374610a64565b005b610390600480360381019061038b9190613632565b610ade565b005b6103ac60048036038101906103a791906138bb565b610afe565b005b6103c860048036038101906103c391906138bb565b610b5a565b6040516103d591906142ce565b60405180910390f35b6103e6610bf1565b6040516103f39190613ef6565b60405180910390f35b610416600480360381019061041191906138bb565b610c08565b6040516104239190613e8f565b60405180910390f35b610446600480360381019061044191906138bb565b610cba565b6040516104539190613f2c565b60405180910390f35b610476600480360381019061047191906135cd565b610d5f565b60405161048391906142ce565b60405180910390f35b610494610e17565b005b6104b060048036038101906104ab919061382d565b610e91565b6040516104bd9190613e8f565b60405180910390f35b6104e060048036038101906104db91906137f1565b610ec0565b6040516104ed9190613ef6565b60405180910390f35b6104fe610f2a565b60405161050b9190613f2c565b60405180910390f35b61051c610fbc565b6040516105299190613f11565b60405180910390f35b61054c600480360381019061054791906136fc565b610fc3565b005b610568600480360381019061056391906138e4565b611144565b005b610584600480360381019061057f9190613681565b611293565b005b6105a0600480360381019061059b91906138bb565b6112f5565b6040516105ad9190613f2c565b60405180910390f35b6105d060048036038101906105cb91906137c8565b61139c565b6040516105dd91906142ce565b60405180910390f35b61060060048036038101906105fb9190613738565b6113c0565b005b61060a611452565b6040516106179190613f11565b60405180910390f35b61063a600480360381019061063591906137f1565b611476565b005b6106446114aa565b6040516106519190613f11565b60405180910390f35b610674600480360381019061066f91906135f6565b6114ce565b6040516106819190613ef6565b60405180910390f35b6000610695826115a0565b9050919050565b6060600280546106ab906145b2565b80601f01602080910402602001604051908101604052809291908181526020018280546106d7906145b2565b80156107245780601f106106f957610100808354040283529160200191610724565b820191906000526020600020905b81548152906001019060200180831161070757829003601f168201915b5050505050905090565b60006107398261161a565b610778576040517f08c379a000000000000000000000000000000000000000000000000000000000815260040161076f9061416e565b60405180910390fd5b6008600083815260200190815260200160002060009054906101000a900473ffffffffffffffffffffffffffffffffffffffff169050919050565b60006107be82610c08565b90508073ffffffffffffffffffffffffffffffffffffffff168373ffffffffffffffffffffffffffffffffffffffff16141561082f576040517f08c379a0000000000000000000000000000000000000000000000000000000008152600401610826906141ce565b60405180910390fd5b8073ffffffffffffffffffffffffffffffffffffffff1661084e611686565b73ffffffffffffffffffffffffffffffffffffffff16148061087d575061087c81610877611686565b6114ce565b5b6108bc576040517f08c379a00000000000000000000000000000000000000000000000000000000081526004016108b3906140ee565b60405180910390fd5b6108c6838361168e565b505050565b6000600c80549050905090565b6108e96108e3611686565b82611747565b610928576040517f08c379a000000000000000000000000000000000000000000000000000000000815260040161091f906141ee565b60405180910390fd5b610933838383611825565b505050565b6000806000838152602001908152602001600020600101549050919050565b6109618282611a81565b610986816001600085815260200190815260200160002061157090919063ffffffff16565b505050565b600061099683610d5f565b82106109d7576040517f08c379a00000000000000000000000000000000000000000000000000000000081526004016109ce90613fce565b60405180910390fd5b600a60008473ffffffffffffffffffffffffffffffffffffffff1673ffffffffffffffffffffffffffffffffffffffff168152602001908152602001600020600083815260200190815260200160002054905092915050565b610a3a8282611aaa565b610a5f8160016000858152602001908152602001600020611b2d90919063ffffffff16565b505050565b610a957f65d7a28e3265b37a6474929f336521b332c1681b933f6cb9f3376673440d862a610a90611686565b610ec0565b610ad4576040517f08c379a0000000000000000000000000000000000000000000000000000000008152600401610acb9061428e565b60405180910390fd5b610adc611b5d565b565b610af983838360405180602001604052806000815250611293565b505050565b610b0f610b09611686565b82611747565b610b4e576040517f08c379a0000000000000000000000000000000000000000000000000000000008152600401610b459061426e565b60405180910390fd5b610b5781611bff565b50565b6000610b646108cb565b8210610ba5576040517f08c379a0000000000000000000000000000000000000000000000000000000008152600401610b9c9061420e565b60405180910390fd5b600c8281548110610bdf577f4e487b7100000000000000000000000000000000000000000000000000000000600052603260045260246000fd5b90600052602060002001549050919050565b6000600e60009054906101000a900460ff16905090565b6000806004600084815260200190815260200160002060009054906101000a900473ffffffffffffffffffffffffffffffffffffffff169050600073ffffffffffffffffffffffffffffffffffffffff168173ffffffffffffffffffffffffffffffffffffffff161415610cb1576040517f08c379a0000000000000000000000000000000000000000000000000000000008152600401610ca89061412e565b60405180910390fd5b80915050919050565b6060600660008381526020019081526020016000208054610cda906145b2565b80601f0160208091040260200160405190810160405280929190818152602001828054610d06906145b2565b8015610d535780601f10610d2857610100808354040283529160200191610d53565b820191906000526020600020905b815481529060010190602001808311610d3657829003601f168201915b50505050509050919050565b60008073ffffffffffffffffffffffffffffffffffffffff168273ffffffffffffffffffffffffffffffffffffffff161415610dd0576040517f08c379a0000000000000000000000000000000000000000000000000000000008152600401610dc79061410e565b60405180910390fd5b600560008373ffffffffffffffffffffffffffffffffffffffff1673ffffffffffffffffffffffffffffffffffffffff168152602001908152602001600020549050919050565b610e487f65d7a28e3265b37a6474929f336521b332c1681b933f6cb9f3376673440d862a610e43611686565b610ec0565b610e87576040517f08c379a0000000000000000000000000000000000000000000000000000000008152600401610e7e9061404e565b60405180910390fd5b610e8f611d10565b565b6000610eb88260016000868152602001908152602001600020611db390919063ffffffff16565b905092915050565b600080600084815260200190815260200160002060000160008373ffffffffffffffffffffffffffffffffffffffff1673ffffffffffffffffffffffffffffffffffffffff16815260200190815260200160002060009054906101000a900460ff16905092915050565b606060038054610f39906145b2565b80601f0160208091040260200160405190810160405280929190818152602001828054610f65906145b2565b8015610fb25780601f10610f8757610100808354040283529160200191610fb2565b820191906000526020600020905b815481529060010190602001808311610f9557829003601f168201915b5050505050905090565b6000801b81565b610fcb611686565b73ffffffffffffffffffffffffffffffffffffffff168273ffffffffffffffffffffffffffffffffffffffff161415611039576040517f08c379a00000000000000000000000000000000000000000000000000000000081526004016110309061408e565b60405180910390fd5b8060096000611046611686565b73ffffffffffffffffffffffffffffffffffffffff1673ffffffffffffffffffffffffffffffffffffffff16815260200190815260200160002060008473ffffffffffffffffffffffffffffffffffffffff1673ffffffffffffffffffffffffffffffffffffffff16815260200190815260200160002060006101000a81548160ff0219169083151502179055508173ffffffffffffffffffffffffffffffffffffffff166110f3611686565b73ffffffffffffffffffffffffffffffffffffffff167f17307eab39ab6107e8899845ad3d59bd9653f200f220920489ca2b5937696c31836040516111389190613ef6565b60405180910390a35050565b3373ffffffffffffffffffffffffffffffffffffffff166004600084815260200190815260200160002060009054906101000a900473ffffffffffffffffffffffffffffffffffffffff1673ffffffffffffffffffffffffffffffffffffffff16146111e5576040517f08c379a00000000000000000000000000000000000000000000000000000000081526004016111dc9061402e565b60405180910390fd5b4260076000848152602001908152602001600020541161123a576040517f08c379a00000000000000000000000000000000000000000000000000000000081526004016112319061424e565b60405180910390fd5b806006600084815260200190815260200160002090805190602001906112619291906133dc565b50817f164f7b2ab803097dab5e39f06d2e4f3c3ddc5d4171abbdcc3e76443b8359c7f560405160405180910390a25050565b6112a461129e611686565b83611747565b6112e3576040517f08c379a00000000000000000000000000000000000000000000000000000000081526004016112da906141ee565b60405180910390fd5b6112ef84848484611dcd565b50505050565b60606113008261161a565b61133f576040517f08c379a0000000000000000000000000000000000000000000000000000000008152600401611336906141ae565b60405180910390fd5b6000611349611e29565b905060008151116113695760405180602001604052806000815250611394565b8061137384611ebb565b604051602001611384929190613e31565b6040516020818303038152906040525b915050919050565b60006113b960016000848152602001908152602001600020612068565b9050919050565b6113f17f9f2df0fed2c77648de5860a4cc508cd0818c85b8b8a1ab4ceeef8d981c8956a66113ec611686565b610ec0565b611430576040517f08c379a00000000000000000000000000000000000000000000000000000000081526004016114279061422e565b60405180910390fd5b6114448261143e600f61207d565b8361208b565b61144e600f6122a6565b5050565b7f9f2df0fed2c77648de5860a4cc508cd0818c85b8b8a1ab4ceeef8d981c8956a681565b61148082826122bc565b6114a58160016000858152602001908152602001600020611b2d90919063ffffffff16565b505050565b7f65d7a28e3265b37a6474929f336521b332c1681b933f6cb9f3376673440d862a81565b6000600960008473ffffffffffffffffffffffffffffffffffffffff1673ffffffffffffffffffffffffffffffffffffffff16815260200190815260200160002060008373ffffffffffffffffffffffffffffffffffffffff1673ffffffffffffffffffffffffffffffffffffffff16815260200190815260200160002060009054906101000a900460ff16905092915050565b61156c82826122e5565b5050565b6000611598836000018373ffffffffffffffffffffffffffffffffffffffff1660001b6123c5565b905092915050565b60007f780e9d63000000000000000000000000000000000000000000000000000000007bffffffffffffffffffffffffffffffffffffffffffffffffffffffff1916827bffffffffffffffffffffffffffffffffffffffffffffffffffffffff19161480611613575061161282612435565b5b9050919050565b60008073ffffffffffffffffffffffffffffffffffffffff166004600084815260200190815260200160002060009054906101000a900473ffffffffffffffffffffffffffffffffffffffff1673ffffffffffffffffffffffffffffffffffffffff1614159050919050565b600033905090565b816008600083815260200190815260200160002060006101000a81548173ffffffffffffffffffffffffffffffffffffffff021916908373ffffffffffffffffffffffffffffffffffffffff160217905550808273ffffffffffffffffffffffffffffffffffffffff1661170183610c08565b73ffffffffffffffffffffffffffffffffffffffff167f8c5be1e5ebec7d5bd14f71427d1e84f3dd0314c0f7b2291e5b200ac8c7c3b92560405160405180910390a45050565b60006117528261161a565b611791576040517f08c379a0000000000000000000000000000000000000000000000000000000008152600401611788906140ae565b60405180910390fd5b600061179c83610c08565b90508073ffffffffffffffffffffffffffffffffffffffff168473ffffffffffffffffffffffffffffffffffffffff16148061180b57508373ffffffffffffffffffffffffffffffffffffffff166117f38461072e565b73ffffffffffffffffffffffffffffffffffffffff16145b8061181c575061181b81856114ce565b5b91505092915050565b8273ffffffffffffffffffffffffffffffffffffffff1661184582610c08565b73ffffffffffffffffffffffffffffffffffffffff161461189b576040517f08c379a00000000000000000000000000000000000000000000000000000000081526004016118929061418e565b60405180910390fd5b600073ffffffffffffffffffffffffffffffffffffffff168273ffffffffffffffffffffffffffffffffffffffff16141561190b576040517f08c379a00000000000000000000000000000000000000000000000000000000081526004016119029061406e565b60405180910390fd5b611916838383612517565b61192160008261168e565b6001600560008573ffffffffffffffffffffffffffffffffffffffff1673ffffffffffffffffffffffffffffffffffffffff16815260200190815260200160002060008282546119719190614494565b925050819055506001600560008473ffffffffffffffffffffffffffffffffffffffff1673ffffffffffffffffffffffffffffffffffffffff16815260200190815260200160002060008282546119c891906143b3565b92505081905550816004600083815260200190815260200160002060006101000a81548173ffffffffffffffffffffffffffffffffffffffff021916908373ffffffffffffffffffffffffffffffffffffffff160217905550808273ffffffffffffffffffffffffffffffffffffffff168473ffffffffffffffffffffffffffffffffffffffff167fddf252ad1be2c89b69c2b068fc378daa952ba7f163c4a11628f55a4df523b3ef60405160405180910390a4505050565b611a8a82610938565b611a9b81611a96611686565b612527565b611aa583836122e5565b505050565b611ab2611686565b73ffffffffffffffffffffffffffffffffffffffff168173ffffffffffffffffffffffffffffffffffffffff1614611b1f576040517f08c379a0000000000000000000000000000000000000000000000000000000008152600401611b16906142ae565b60405180910390fd5b611b2982826125c4565b5050565b6000611b55836000018373ffffffffffffffffffffffffffffffffffffffff1660001b6126a5565b905092915050565b611b65610bf1565b611ba4576040517f08c379a0000000000000000000000000000000000000000000000000000000008152600401611b9b90613fae565b60405180910390fd5b6000600e60006101000a81548160ff0219169083151502179055507f5db9ee0a495bf2e6ff9c91a7834c1ba4fdd244a5e8aa4e537bd38aeae4b073aa611be8611686565b604051611bf59190613e8f565b60405180910390a1565b6000611c0a82610c08565b9050611c1881600084612517565b611c2360008361168e565b6001600560008373ffffffffffffffffffffffffffffffffffffffff1673ffffffffffffffffffffffffffffffffffffffff1681526020019081526020016000206000828254611c739190614494565b925050819055506004600083815260200190815260200160002060006101000a81549073ffffffffffffffffffffffffffffffffffffffff021916905581600073ffffffffffffffffffffffffffffffffffffffff168273ffffffffffffffffffffffffffffffffffffffff167fddf252ad1be2c89b69c2b068fc378daa952ba7f163c4a11628f55a4df523b3ef60405160405180910390a45050565b611d18610bf1565b15611d58576040517f08c379a0000000000000000000000000000000000000000000000000000000008152600401611d4f906140ce565b60405180910390fd5b6001600e60006101000a81548160ff0219169083151502179055507f62e78cea01bee320cd4e420270b5ea74000d11b0c9f74754ebdbfc544b05a258611d9c611686565b604051611da99190613e8f565b60405180910390a1565b6000611dc28360000183612823565b60001c905092915050565b611dd8848484611825565b611de4848484846128bd565b611e23576040517f08c379a0000000000000000000000000000000000000000000000000000000008152600401611e1a90613fee565b60405180910390fd5b50505050565b606060108054611e38906145b2565b80601f0160208091040260200160405190810160405280929190818152602001828054611e64906145b2565b8015611eb15780601f10611e8657610100808354040283529160200191611eb1565b820191906000526020600020905b815481529060010190602001808311611e9457829003601f168201915b5050505050905090565b60606000821415611f03576040518060400160405280600181526020017f30000000000000000000000000000000000000000000000000000000000000008152509050612063565b600082905060005b60008214611f35578080611f1e90614615565b915050600a82611f2e9190614409565b9150611f0b565b60008167ffffffffffffffff811115611f77577f4e487b7100000000000000000000000000000000000000000000000000000000600052604160045260246000fd5b6040519080825280601f01601f191660200182016040528015611fa95781602001600182028036833780820191505090505b5090505b6000851461205c57600182611fc29190614494565b9150600a85611fd1919061465e565b6030611fdd91906143b3565b60f81b818381518110612019577f4e487b7100000000000000000000000000000000000000000000000000000000600052603260045260246000fd5b60200101907effffffffffffffffffffffffffffffffffffffffffffffffffffffffffffff1916908160001a905350600a856120559190614409565b9450611fad565b8093505050505b919050565b600061207682600001612a54565b9050919050565b600081600001549050919050565b600073ffffffffffffffffffffffffffffffffffffffff168373ffffffffffffffffffffffffffffffffffffffff1614156120fb576040517f08c379a00000000000000000000000000000000000000000000000000000000081526004016120f29061414e565b60405180910390fd5b6121048261161a565b15612144576040517f08c379a000000000000000000000000000000000000000000000000000000000815260040161213b9061400e565b60405180910390fd5b61215060008484612517565b6001600560008573ffffffffffffffffffffffffffffffffffffffff1673ffffffffffffffffffffffffffffffffffffffff16815260200190815260200160002060008282546121a091906143b3565b92505081905550336004600084815260200190815260200160002060006101000a81548173ffffffffffffffffffffffffffffffffffffffff021916908373ffffffffffffffffffffffffffffffffffffffff160217905550806006600084815260200190815260200160002090805190602001906122209291906133dc565b5060784261222e91906143b3565b6007600084815260200190815260200160002081905550818373ffffffffffffffffffffffffffffffffffffffff16600073ffffffffffffffffffffffffffffffffffffffff167fddf252ad1be2c89b69c2b068fc378daa952ba7f163c4a11628f55a4df523b3ef60405160405180910390a4505050565b6001816000016000828254019250508190555050565b6122c582610938565b6122d6816122d1611686565b612527565b6122e083836125c4565b505050565b6122ef8282610ec0565b6123c157600160008084815260200190815260200160002060000160008373ffffffffffffffffffffffffffffffffffffffff1673ffffffffffffffffffffffffffffffffffffffff16815260200190815260200160002060006101000a81548160ff021916908315150217905550612366611686565b73ffffffffffffffffffffffffffffffffffffffff168173ffffffffffffffffffffffffffffffffffffffff16837f2f8788117e7eff1d82e926ec794901d17c78024a50270940304540a733656f0d60405160405180910390a45b5050565b60006123d18383612a65565b61242a57826000018290806001815401808255809150506001900390600052602060002001600090919091909150558260000180549050836001016000848152602001908152602001600020819055506001905061242f565b600090505b92915050565b60007f80ac58cd000000000000000000000000000000000000000000000000000000007bffffffffffffffffffffffffffffffffffffffffffffffffffffffff1916827bffffffffffffffffffffffffffffffffffffffffffffffffffffffff1916148061250057507f5b5e139f000000000000000000000000000000000000000000000000000000007bffffffffffffffffffffffffffffffffffffffffffffffffffffffff1916827bffffffffffffffffffffffffffffffffffffffffffffffffffffffff1916145b80612510575061250f82612a88565b5b9050919050565b612522838383612b02565b505050565b6125318282610ec0565b6125c0576125568173ffffffffffffffffffffffffffffffffffffffff166014612b5a565b6125648360001c6020612b5a565b604051602001612575929190613e55565b6040516020818303038152906040526040517f08c379a00000000000000000000000000000000000000000000000000000000081526004016125b79190613f2c565b60405180910390fd5b5050565b6125ce8282610ec0565b156126a157600080600084815260200190815260200160002060000160008373ffffffffffffffffffffffffffffffffffffffff1673ffffffffffffffffffffffffffffffffffffffff16815260200190815260200160002060006101000a81548160ff021916908315150217905550612646611686565b73ffffffffffffffffffffffffffffffffffffffff168173ffffffffffffffffffffffffffffffffffffffff16837ff6391f5c32d9c69d2a47ea670b442974b53935d1edc7fd64eb21e047a839171b60405160405180910390a45b5050565b600080836001016000848152602001908152602001600020549050600081146128175760006001826126d79190614494565b90506000600186600001805490506126ef9190614494565b9050600086600001828154811061272f577f4e487b7100000000000000000000000000000000000000000000000000000000600052603260045260246000fd5b9060005260206000200154905080876000018481548110612779577f4e487b7100000000000000000000000000000000000000000000000000000000600052603260045260246000fd5b90600052602060002001819055508387600101600083815260200190815260200160002081905550866000018054806127db577f4e487b7100000000000000000000000000000000000000000000000000000000600052603160045260246000fd5b6001900381819060005260206000200160009055905586600101600087815260200190815260200160002060009055600194505050505061281d565b60009150505b92915050565b60008183600001805490501161286e576040517f08c379a000000000000000000000000000000000000000000000000000000000815260040161286590613f4e565b60405180910390fd5b8260000182815481106128aa577f4e487b7100000000000000000000000000000000000000000000000000000000600052603260045260246000fd5b9060005260206000200154905092915050565b60006128de8473ffffffffffffffffffffffffffffffffffffffff16612e54565b15612a47578373ffffffffffffffffffffffffffffffffffffffff1663150b7a02612907611686565b8786866040518563ffffffff1660e01b81526004016129299493929190613eaa565b602060405180830381600087803b15801561294357600080fd5b505af192505050801561297457506040513d601f19601f820116820180604052508101906129719190613892565b60015b6129f7573d80600081146129a4576040519150601f19603f3d011682016040523d82523d6000602084013e6129a9565b606091505b506000815114156129ef576040517f08c379a00000000000000000000000000000000000000000000000000000000081526004016129e690613fee565b60405180910390fd5b805181602001fd5b63150b7a0260e01b7bffffffffffffffffffffffffffffffffffffffffffffffffffffffff1916817bffffffffffffffffffffffffffffffffffffffffffffffffffffffff191614915050612a4c565b600190505b949350505050565b600081600001805490509050919050565b600080836001016000848152602001908152602001600020541415905092915050565b60007f5a05180f000000000000000000000000000000000000000000000000000000007bffffffffffffffffffffffffffffffffffffffffffffffffffffffff1916827bffffffffffffffffffffffffffffffffffffffffffffffffffffffff19161480612afb5750612afa82612e67565b5b9050919050565b612b0d838383612ee1565b612b15610bf1565b15612b55576040517f08c379a0000000000000000000000000000000000000000000000000000000008152600401612b4c90613f8e565b60405180910390fd5b505050565b606060006002836002612b6d919061443a565b612b7791906143b3565b67ffffffffffffffff811115612bb6577f4e487b7100000000000000000000000000000000000000000000000000000000600052604160045260246000fd5b6040519080825280601f01601f191660200182016040528015612be85781602001600182028036833780820191505090505b5090507f300000000000000000000000000000000000000000000000000000000000000081600081518110612c46577f4e487b7100000000000000000000000000000000000000000000000000000000600052603260045260246000fd5b60200101907effffffffffffffffffffffffffffffffffffffffffffffffffffffffffffff1916908160001a9053507f780000000000000000000000000000000000000000000000000000000000000081600181518110612cd0577f4e487b7100000000000000000000000000000000000000000000000000000000600052603260045260246000fd5b60200101907effffffffffffffffffffffffffffffffffffffffffffffffffffffffffffff1916908160001a90535060006001846002612d10919061443a565b612d1a91906143b3565b90505b6001811115612e06577f3031323334353637383961626364656600000000000000000000000000000000600f861660108110612d82577f4e487b7100000000000000000000000000000000000000000000000000000000600052603260045260246000fd5b1a60f81b828281518110612dbf577f4e487b7100000000000000000000000000000000000000000000000000000000600052603260045260246000fd5b60200101907effffffffffffffffffffffffffffffffffffffffffffffffffffffffffffff1916908160001a905350600485901c945080612dff90614588565b9050612d1d565b5060008414612e4a576040517f08c379a0000000000000000000000000000000000000000000000000000000008152600401612e4190613f6e565b60405180910390fd5b8091505092915050565b600080823b905060008111915050919050565b60007f7965db0b000000000000000000000000000000000000000000000000000000007bffffffffffffffffffffffffffffffffffffffffffffffffffffffff1916827bffffffffffffffffffffffffffffffffffffffffffffffffffffffff19161480612eda5750612ed982612ff5565b5b9050919050565b612eec83838361305f565b600073ffffffffffffffffffffffffffffffffffffffff168373ffffffffffffffffffffffffffffffffffffffff161415612f2f57612f2a81613064565b612f6e565b8173ffffffffffffffffffffffffffffffffffffffff168373ffffffffffffffffffffffffffffffffffffffff1614612f6d57612f6c83826130ad565b5b5b600073ffffffffffffffffffffffffffffffffffffffff168273ffffffffffffffffffffffffffffffffffffffff161415612fb157612fac8161321a565b612ff0565b8273ffffffffffffffffffffffffffffffffffffffff168273ffffffffffffffffffffffffffffffffffffffff1614612fef57612fee828261335d565b5b5b505050565b60007f01ffc9a7000000000000000000000000000000000000000000000000000000007bffffffffffffffffffffffffffffffffffffffffffffffffffffffff1916827bffffffffffffffffffffffffffffffffffffffffffffffffffffffff1916149050919050565b505050565b600c80549050600d600083815260200190815260200160002081905550600c81908060018154018082558091505060019003906000526020600020016000909190919091505550565b600060016130ba84610d5f565b6130c49190614494565b90506000600b60008481526020019081526020016000205490508181146131a9576000600a60008673ffffffffffffffffffffffffffffffffffffffff1673ffffffffffffffffffffffffffffffffffffffff168152602001908152602001600020600084815260200190815260200160002054905080600a60008773ffffffffffffffffffffffffffffffffffffffff1673ffffffffffffffffffffffffffffffffffffffff16815260200190815260200160002060008481526020019081526020016000208190555081600b600083815260200190815260200160002081905550505b600b600084815260200190815260200160002060009055600a60008573ffffffffffffffffffffffffffffffffffffffff1673ffffffffffffffffffffffffffffffffffffffff16815260200190815260200160002060008381526020019081526020016000206000905550505050565b60006001600c8054905061322e9190614494565b90506000600d60008481526020019081526020016000205490506000600c8381548110613284577f4e487b7100000000000000000000000000000000000000000000000000000000600052603260045260246000fd5b9060005260206000200154905080600c83815481106132cc577f4e487b7100000000000000000000000000000000000000000000000000000000600052603260045260246000fd5b906000526020600020018190555081600d600083815260200190815260200160002081905550600d600085815260200190815260200160002060009055600c805480613341577f4e487b7100000000000000000000000000000000000000000000000000000000600052603160045260246000fd5b6001900381819060005260206000200160009055905550505050565b600061336883610d5f565b905081600a60008573ffffffffffffffffffffffffffffffffffffffff1673ffffffffffffffffffffffffffffffffffffffff16815260200190815260200160002060008381526020019081526020016000208190555080600b600084815260200190815260200160002081905550505050565b8280546133e8906145b2565b90600052602060002090601f01602090048101928261340a5760008555613451565b82601f1061342357805160ff1916838001178555613451565b82800160010185558215613451579182015b82811115613450578251825591602001919060010190613435565b5b50905061345e9190613462565b5090565b5b8082111561347b576000816000905550600101613463565b5090565b600061349261348d8461430e565b6142e9565b9050828152602081018484840111156134aa57600080fd5b6134b5848285614546565b509392505050565b60006134d06134cb8461433f565b6142e9565b9050828152602081018484840111156134e857600080fd5b6134f3848285614546565b509392505050565b60008135905061350a81614f48565b92915050565b60008135905061351f81614f5f565b92915050565b60008135905061353481614f76565b92915050565b60008135905061354981614f8d565b92915050565b60008151905061355e81614f8d565b92915050565b600082601f83011261357557600080fd5b813561358584826020860161347f565b91505092915050565b600082601f83011261359f57600080fd5b81356135af8482602086016134bd565b91505092915050565b6000813590506135c781614fa4565b92915050565b6000602082840312156135df57600080fd5b60006135ed848285016134fb565b91505092915050565b6000806040838503121561360957600080fd5b6000613617858286016134fb565b9250506020613628858286016134fb565b9150509250929050565b60008060006060848603121561364757600080fd5b6000613655868287016134fb565b9350506020613666868287016134fb565b9250506040613677868287016135b8565b9150509250925092565b6000806000806080858703121561369757600080fd5b60006136a5878288016134fb565b94505060206136b6878288016134fb565b93505060406136c7878288016135b8565b925050606085013567ffffffffffffffff8111156136e457600080fd5b6136f087828801613564565b91505092959194509250565b6000806040838503121561370f57600080fd5b600061371d858286016134fb565b925050602061372e85828601613510565b9150509250929050565b6000806040838503121561374b57600080fd5b6000613759858286016134fb565b925050602083013567ffffffffffffffff81111561377657600080fd5b6137828582860161358e565b9150509250929050565b6000806040838503121561379f57600080fd5b60006137ad858286016134fb565b92505060206137be858286016135b8565b9150509250929050565b6000602082840312156137da57600080fd5b60006137e884828501613525565b91505092915050565b6000806040838503121561380457600080fd5b600061381285828601613525565b9250506020613823858286016134fb565b9150509250929050565b6000806040838503121561384057600080fd5b600061384e85828601613525565b925050602061385f858286016135b8565b9150509250929050565b60006020828403121561387b57600080fd5b60006138898482850161353a565b91505092915050565b6000602082840312156138a457600080fd5b60006138b28482850161354f565b91505092915050565b6000602082840312156138cd57600080fd5b60006138db848285016135b8565b91505092915050565b600080604083850312156138f757600080fd5b6000613905858286016135b8565b925050602083013567ffffffffffffffff81111561392257600080fd5b61392e8582860161358e565b9150509250929050565b613941816144c8565b82525050565b613950816144da565b82525050565b61395f816144e6565b82525050565b600061397082614370565b61397a8185614386565b935061398a818560208601614555565b6139938161474b565b840191505092915050565b60006139a98261437b565b6139b38185614397565b93506139c3818560208601614555565b6139cc8161474b565b840191505092915050565b60006139e28261437b565b6139ec81856143a8565b93506139fc818560208601614555565b80840191505092915050565b6000613a15602283614397565b9150613a208261475c565b604082019050919050565b6000613a38602083614397565b9150613a43826147ab565b602082019050919050565b6000613a5b602b83614397565b9150613a66826147d4565b604082019050919050565b6000613a7e601483614397565b9150613a8982614823565b602082019050919050565b6000613aa1602b83614397565b9150613aac8261484c565b604082019050919050565b6000613ac4603283614397565b9150613acf8261489b565b604082019050919050565b6000613ae7601c83614397565b9150613af2826148ea565b602082019050919050565b6000613b0a601f83614397565b9150613b1582614913565b602082019050919050565b6000613b2d603e83614397565b9150613b388261493c565b604082019050919050565b6000613b50602483614397565b9150613b5b8261498b565b604082019050919050565b6000613b73601983614397565b9150613b7e826149da565b602082019050919050565b6000613b96602c83614397565b9150613ba182614a03565b604082019050919050565b6000613bb9601083614397565b9150613bc482614a52565b602082019050919050565b6000613bdc603883614397565b9150613be782614a7b565b604082019050919050565b6000613bff602a83614397565b9150613c0a82614aca565b604082019050919050565b6000613c22602983614397565b9150613c2d82614b19565b604082019050919050565b6000613c45602083614397565b9150613c5082614b68565b602082019050919050565b6000613c68602c83614397565b9150613c7382614b91565b604082019050919050565b6000613c8b602983614397565b9150613c9682614be0565b604082019050919050565b6000613cae602f83614397565b9150613cb982614c2f565b604082019050919050565b6000613cd1602183614397565b9150613cdc82614c7e565b604082019050919050565b6000613cf4603183614397565b9150613cff82614ccd565b604082019050919050565b6000613d17602c83614397565b9150613d2282614d1c565b604082019050919050565b6000613d3a6017836143a8565b9150613d4582614d6b565b601782019050919050565b6000613d5d603d83614397565b9150613d6882614d94565b604082019050919050565b6000613d80602983614397565b9150613d8b82614de3565b604082019050919050565b6000613da3603083614397565b9150613dae82614e32565b604082019050919050565b6000613dc6604083614397565b9150613dd182614e81565b604082019050919050565b6000613de96011836143a8565b9150613df482614ed0565b601182019050919050565b6000613e0c602f83614397565b9150613e1782614ef9565b604082019050919050565b613e2b8161453c565b82525050565b6000613e3d82856139d7565b9150613e4982846139d7565b91508190509392505050565b6000613e6082613d2d565b9150613e6c82856139d7565b9150613e7782613ddc565b9150613e8382846139d7565b91508190509392505050565b6000602082019050613ea46000830184613938565b92915050565b6000608082019050613ebf6000830187613938565b613ecc6020830186613938565b613ed96040830185613e22565b8181036060830152613eeb8184613965565b905095945050505050565b6000602082019050613f0b6000830184613947565b92915050565b6000602082019050613f266000830184613956565b92915050565b60006020820190508181036000830152613f46818461399e565b905092915050565b60006020820190508181036000830152613f6781613a08565b9050919050565b60006020820190508181036000830152613f8781613a2b565b9050919050565b60006020820190508181036000830152613fa781613a4e565b9050919050565b60006020820190508181036000830152613fc781613a71565b9050919050565b60006020820190508181036000830152613fe781613a94565b9050919050565b6000602082019050818103600083015261400781613ab7565b9050919050565b6000602082019050818103600083015261402781613ada565b9050919050565b6000602082019050818103600083015261404781613afd565b9050919050565b6000602082019050818103600083015261406781613b20565b9050919050565b6000602082019050818103600083015261408781613b43565b9050919050565b600060208201905081810360008301526140a781613b66565b9050919050565b600060208201905081810360008301526140c781613b89565b9050919050565b600060208201905081810360008301526140e781613bac565b9050919050565b6000602082019050818103600083015261410781613bcf565b9050919050565b6000602082019050818103600083015261412781613bf2565b9050919050565b6000602082019050818103600083015261414781613c15565b9050919050565b6000602082019050818103600083015261416781613c38565b9050919050565b6000602082019050818103600083015261418781613c5b565b9050919050565b600060208201905081810360008301526141a781613c7e565b9050919050565b600060208201905081810360008301526141c781613ca1565b9050919050565b600060208201905081810360008301526141e781613cc4565b9050919050565b6000602082019050818103600083015261420781613ce7565b9050919050565b6000602082019050818103600083015261422781613d0a565b9050919050565b6000602082019050818103600083015261424781613d50565b9050919050565b6000602082019050818103600083015261426781613d73565b9050919050565b6000602082019050818103600083015261428781613d96565b9050919050565b600060208201905081810360008301526142a781613db9565b9050919050565b600060208201905081810360008301526142c781613dff565b9050919050565b60006020820190506142e36000830184613e22565b92915050565b60006142f3614304565b90506142ff82826145e4565b919050565b6000604051905090565b600067ffffffffffffffff8211156143295761432861471c565b5b6143328261474b565b9050602081019050919050565b600067ffffffffffffffff82111561435a5761435961471c565b5b6143638261474b565b9050602081019050919050565b600081519050919050565b600081519050919050565b600082825260208201905092915050565b600082825260208201905092915050565b600081905092915050565b60006143be8261453c565b91506143c98361453c565b9250827fffffffffffffffffffffffffffffffffffffffffffffffffffffffffffffffff038211156143fe576143fd61468f565b5b828201905092915050565b60006144148261453c565b915061441f8361453c565b92508261442f5761442e6146be565b5b828204905092915050565b60006144458261453c565b91506144508361453c565b9250817fffffffffffffffffffffffffffffffffffffffffffffffffffffffffffffffff04831182151516156144895761448861468f565b5b828202905092915050565b600061449f8261453c565b91506144aa8361453c565b9250828210156144bd576144bc61468f565b5b828203905092915050565b60006144d38261451c565b9050919050565b60008115159050919050565b6000819050919050565b60007fffffffff0000000000000000000000000000000000000000000000000000000082169050919050565b600073ffffffffffffffffffffffffffffffffffffffff82169050919050565b6000819050919050565b82818337600083830152505050565b60005b83811015614573578082015181840152602081019050614558565b83811115614582576000848401525b50505050565b60006145938261453c565b915060008214156145a7576145a661468f565b5b600182039050919050565b600060028204905060018216806145ca57607f821691505b602082108114156145de576145dd6146ed565b5b50919050565b6145ed8261474b565b810181811067ffffffffffffffff8211171561460c5761460b61471c565b5b80604052505050565b60006146208261453c565b91507fffffffffffffffffffffffffffffffffffffffffffffffffffffffffffffffff8214156146535761465261468f565b5b600182019050919050565b60006146698261453c565b91506146748361453c565b925082614684576146836146be565b5b828206905092915050565b7f4e487b7100000000000000000000000000000000000000000000000000000000600052601160045260246000fd5b7f4e487b7100000000000000000000000000000000000000000000000000000000600052601260045260246000fd5b7f4e487b7100000000000000000000000000000000000000000000000000000000600052602260045260246000fd5b7f4e487b7100000000000000000000000000000000000000000000000000000000600052604160045260246000fd5b6000601f19601f8301169050919050565b7f456e756d657261626c655365743a20696e646578206f7574206f6620626f756e60008201527f6473000000000000000000000000000000000000000000000000000000000000602082015250565b7f537472696e67733a20686578206c656e67746820696e73756666696369656e74600082015250565b7f4552433732315061757361626c653a20746f6b656e207472616e73666572207760008201527f68696c6520706175736564000000000000000000000000000000000000000000602082015250565b7f5061757361626c653a206e6f7420706175736564000000000000000000000000600082015250565b7f455243373231456e756d657261626c653a206f776e657220696e646578206f7560008201527f74206f6620626f756e6473000000000000000000000000000000000000000000602082015250565b7f4552433732313a207472616e7366657220746f206e6f6e20455243373231526560008201527f63656976657220696d706c656d656e7465720000000000000000000000000000602082015250565b7f4552433732313a20746f6b656e20616c7265616479206d696e74656400000000600082015250565b7f4e6f7420746865207075626c6973686572206f66207468697320746f6b656e00600082015250565b7f4552433732315072657365744d696e7465725061757365724175746f49643a2060008201527f6d75737420686176652070617573657220726f6c6520746f2070617573650000602082015250565b7f4552433732313a207472616e7366657220746f20746865207a65726f2061646460008201527f7265737300000000000000000000000000000000000000000000000000000000602082015250565b7f4552433732313a20617070726f766520746f2063616c6c657200000000000000600082015250565b7f4552433732313a206f70657261746f7220717565727920666f72206e6f6e657860008201527f697374656e7420746f6b656e0000000000000000000000000000000000000000602082015250565b7f5061757361626c653a2070617573656400000000000000000000000000000000600082015250565b7f4552433732313a20617070726f76652063616c6c6572206973206e6f74206f7760008201527f6e6572206e6f7220617070726f76656420666f7220616c6c0000000000000000602082015250565b7f4552433732313a2062616c616e636520717565727920666f7220746865207a6560008201527f726f206164647265737300000000000000000000000000000000000000000000602082015250565b7f4552433732313a206f776e657220717565727920666f72206e6f6e657869737460008201527f656e7420746f6b656e0000000000000000000000000000000000000000000000602082015250565b7f4552433732313a206d696e7420746f20746865207a65726f2061646472657373600082015250565b7f4552433732313a20617070726f76656420717565727920666f72206e6f6e657860008201527f697374656e7420746f6b656e0000000000000000000000000000000000000000602082015250565b7f4552433732313a207472616e73666572206f6620746f6b656e2074686174206960008201527f73206e6f74206f776e0000000000000000000000000000000000000000000000602082015250565b7f4552433732314d657461646174613a2055524920717565727920666f72206e6f60008201527f6e6578697374656e7420746f6b656e0000000000000000000000000000000000602082015250565b7f4552433732313a20617070726f76616c20746f2063757272656e74206f776e6560008201527f7200000000000000000000000000000000000000000000000000000000000000602082015250565b7f4552433732313a207472616e736665722063616c6c6572206973206e6f74206f60008201527f776e6572206e6f7220617070726f766564000000000000000000000000000000602082015250565b7f455243373231456e756d657261626c653a20676c6f62616c20696e646578206f60008201527f7574206f6620626f756e64730000000000000000000000000000000000000000602082015250565b7f416363657373436f6e74726f6c3a206163636f756e7420000000000000000000600082015250565b7f4552433732315072657365744d696e7465725061757365724175746f49643a2060008201527f6d7573742068617665206d696e74657220726f6c6520746f206d696e74000000602082015250565b7f546869732073636f726520746f6b656e2063616e206e6f206c6f6e676572206260008201527f6520656469747465640000000000000000000000000000000000000000000000602082015250565b7f4552433732314275726e61626c653a2063616c6c6572206973206e6f74206f7760008201527f6e6572206e6f7220617070726f76656400000000000000000000000000000000602082015250565b7f4552433732315072657365744d696e7465725061757365724175746f49643a2060008201527f6d75737420686176652070617573657220726f6c6520746f20756e7061757365602082015250565b7f206973206d697373696e6720726f6c6520000000000000000000000000000000600082015250565b7f416363657373436f6e74726f6c3a2063616e206f6e6c792072656e6f756e636560008201527f20726f6c657320666f722073656c660000000000000000000000000000000000602082015250565b614f51816144c8565b8114614f5c57600080fd5b50565b614f68816144da565b8114614f7357600080fd5b50565b614f7f816144e6565b8114614f8a57600080fd5b50565b614f96816144f0565b8114614fa157600080fd5b50565b614fad8161453c565b8114614fb857600080fd5b5056fea264697066735822122023024387b8edcd8d97eec3f04574a56fe2e910a4bea7e7cadab4f24828a3a9e964736f6c63430008030033",
  "immutableReferences": {},
  "source": "// SPDX-License-Identifier: MIT\n\npragma solidity ^0.8.0;\nimport \"../ERC721.sol\";\nimport \"../extensions/ERC721Enumerable.sol\";\n\nimport \"../extensions/ERC721Pausable.sol\";\nimport \"../extensions/ERC721Burnable.sol\";\nimport \"../../../access/AccessControlEnumerable.sol\";\nimport \"../../../utils/Context.sol\";\nimport \"../../../utils/Counters.sol\";\n\n/**\n * @dev {ERC721} token, including:\n *\n *  - ability for holders to burn (destroy) their tokens\n *  - a minter role that allows for token minting (creation)\n *  - a pauser role that allows to stop all token transfers\n *  - token ID and URI autogeneration\n *\n * This contract uses {AccessControl} to lock permissioned functions using the\n * different roles - head to its documentation for details.\n *\n * The account that deploys the contract will be granted the minter and pauser\n * roles, as well as the default admin role, which will let it grant both minter\n * and pauser roles to other accounts.\n */\ncontract ERC721PresetMinterPauserAutoId is Context, AccessControlEnumerable, ERC721Enumerable, ERC721Burnable, ERC721Pausable {\n    using Counters for Counters.Counter;\n    event Update(uint256 indexed tokenId);\n\n    bytes32 public constant MINTER_ROLE = keccak256(\"MINTER_ROLE\");\n    bytes32 public constant PAUSER_ROLE = keccak256(\"PAUSER_ROLE\");\n\n    Counters.Counter private _tokenIdTracker;\n\n    string private _baseTokenURI;\n\n    /**\n     * @dev Grants `DEFAULT_ADMIN_ROLE`, `MINTER_ROLE` and `PAUSER_ROLE` to the\n     * account that deploys the contract.\n     *\n     * Token URIs will be autogenerated based on `baseURI` and their token IDs.\n     * See {ERC721-tokenURI}.\n     */\n    constructor(string memory name, string memory symbol, string memory baseTokenURI) ERC721(name, symbol) {\n        _baseTokenURI = baseTokenURI;\n\n        _setupRole(DEFAULT_ADMIN_ROLE, _msgSender());\n\n        _setupRole(MINTER_ROLE, _msgSender());\n        _setupRole(PAUSER_ROLE, _msgSender());\n    }\n\n    function _baseURI() internal view virtual override returns (string memory) {\n        return _baseTokenURI;\n    }\n\n    /**\n     * @dev Creates a new token for `to`. Its token ID will be automatically\n     * assigned (and available on the emitted {IERC721-Transfer} event), and the token\n     * URI autogenerated based on the base URI passed at construction.\n     *\n     * See {ERC721-_mint}.\n     *\n     * Requirements:\n     *\n     * - the caller must have the `MINTER_ROLE`.\n     */\n    function mint(address to, string memory scorehash) public virtual {\n        require(hasRole(MINTER_ROLE, _msgSender()), \"ERC721PresetMinterPauserAutoId: must have minter role to mint\");\n\n        // We cannot just use balanceOf to create the new tokenId because tokens\n        // can be burned (destroyed), so we need a separate counter.\n        _mint(to, _tokenIdTracker.current(), scorehash);\n        _tokenIdTracker.increment();\n    }\n\n    function getScoreHashByTokenId(uint256 tokenId) public view virtual returns (string memory) {\n        return _scoreHashes[tokenId];\n    }\n    \n    function updateScoreHashByTokenId(uint256 tokenId, string memory newScoreHash) public {\n        require(_owners[tokenId] == msg.sender, \"Not the publisher of this token\");\n        require(_endtimes[tokenId] > block.timestamp, \"This score token can no longer be editted\");\n        _scoreHashes[tokenId] = newScoreHash;\n        emit Update(tokenId);\n    }\n\n    /**\n     * @dev Pauses all token transfers.\n     *\n     * See {ERC721Pausable} and {Pausable-_pause}.\n     *\n     * Requirements:\n     *\n     * - the caller must have the `PAUSER_ROLE`.\n     */\n    function pause() public virtual {\n        require(hasRole(PAUSER_ROLE, _msgSender()), \"ERC721PresetMinterPauserAutoId: must have pauser role to pause\");\n        _pause();\n    }\n\n    /**\n     * @dev Unpauses all token transfers.\n     *\n     * See {ERC721Pausable} and {Pausable-_unpause}.\n     *\n     * Requirements:\n     *\n     * - the caller must have the `PAUSER_ROLE`.\n     */\n    function unpause() public virtual {\n        require(hasRole(PAUSER_ROLE, _msgSender()), \"ERC721PresetMinterPauserAutoId: must have pauser role to unpause\");\n        _unpause();\n    }\n\n    function _beforeTokenTransfer(address from, address to, uint256 tokenId) internal virtual override(ERC721, ERC721Enumerable, ERC721Pausable) {\n        super._beforeTokenTransfer(from, to, tokenId);\n    }\n\n    /**\n     * @dev See {IERC165-supportsInterface}.\n     */\n    function supportsInterface(bytes4 interfaceId) public view virtual override(AccessControlEnumerable, ERC721, ERC721Enumerable) returns (bool) {\n        return super.supportsInterface(interfaceId);\n    }\n}\n",
  "sourcePath": "/Users/phamhuyphat/Documents/schooldir/erc721-score-sub-repos/erc721-score-blockchain-service/contracts/token/ERC721/presets/ERC721PresetMinterPauserAutoId.sol",
  "compiler": {
    "name": "solc",
    "version": "0.8.3+commit.8d00100c.Emscripten.clang"
  },
  "schemaVersion": "3.3.4",
  "updatedAt": "2021-05-21T07:13:14.588Z",
  "networkType": "ethereum",
  "devdoc": {
    "details": "{ERC721} token, including:  - ability for holders to burn (destroy) their tokens  - a minter role that allows for token minting (creation)  - a pauser role that allows to stop all token transfers  - token ID and URI autogeneration This contract uses {AccessControl} to lock permissioned functions using the different roles - head to its documentation for details. The account that deploys the contract will be granted the minter and pauser roles, as well as the default admin role, which will let it grant both minter and pauser roles to other accounts.",
    "kind": "dev",
    "methods": {
      "approve(address,uint256)": {
        "details": "See {IERC721-approve}."
      },
      "balanceOf(address)": {
        "details": "See {IERC721-balanceOf}."
      },
      "burn(uint256)": {
        "details": "Burns `tokenId`. See {ERC721-_burn}. Requirements: - The caller must own `tokenId` or be an approved operator."
      },
      "constructor": {
        "details": "Grants `DEFAULT_ADMIN_ROLE`, `MINTER_ROLE` and `PAUSER_ROLE` to the account that deploys the contract. Token URIs will be autogenerated based on `baseURI` and their token IDs. See {ERC721-tokenURI}."
      },
      "getApproved(uint256)": {
        "details": "See {IERC721-getApproved}."
      },
      "getRoleAdmin(bytes32)": {
        "details": "Returns the admin role that controls `role`. See {grantRole} and {revokeRole}. To change a role's admin, use {_setRoleAdmin}."
      },
      "getRoleMember(bytes32,uint256)": {
        "details": "Returns one of the accounts that have `role`. `index` must be a value between 0 and {getRoleMemberCount}, non-inclusive. Role bearers are not sorted in any particular way, and their ordering may change at any point. WARNING: When using {getRoleMember} and {getRoleMemberCount}, make sure you perform all queries on the same block. See the following https://forum.openzeppelin.com/t/iterating-over-elements-on-enumerableset-in-openzeppelin-contracts/2296[forum post] for more information."
      },
      "getRoleMemberCount(bytes32)": {
        "details": "Returns the number of accounts that have `role`. Can be used together with {getRoleMember} to enumerate all bearers of a role."
      },
      "grantRole(bytes32,address)": {
        "details": "Overload {grantRole} to track enumerable memberships"
      },
      "hasRole(bytes32,address)": {
        "details": "Returns `true` if `account` has been granted `role`."
      },
      "isApprovedForAll(address,address)": {
        "details": "See {IERC721-isApprovedForAll}."
      },
      "mint(address,string)": {
        "details": "Creates a new token for `to`. Its token ID will be automatically assigned (and available on the emitted {IERC721-Transfer} event), and the token URI autogenerated based on the base URI passed at construction. See {ERC721-_mint}. Requirements: - the caller must have the `MINTER_ROLE`."
      },
      "name()": {
        "details": "See {IERC721Metadata-name}."
      },
      "ownerOf(uint256)": {
        "details": "See {IERC721-ownerOf}."
      },
      "pause()": {
        "details": "Pauses all token transfers. See {ERC721Pausable} and {Pausable-_pause}. Requirements: - the caller must have the `PAUSER_ROLE`."
      },
      "paused()": {
        "details": "Returns true if the contract is paused, and false otherwise."
      },
      "renounceRole(bytes32,address)": {
        "details": "Overload {renounceRole} to track enumerable memberships"
      },
      "revokeRole(bytes32,address)": {
        "details": "Overload {revokeRole} to track enumerable memberships"
      },
      "safeTransferFrom(address,address,uint256)": {
        "details": "See {IERC721-safeTransferFrom}."
      },
      "safeTransferFrom(address,address,uint256,bytes)": {
        "details": "See {IERC721-safeTransferFrom}."
      },
      "setApprovalForAll(address,bool)": {
        "details": "See {IERC721-setApprovalForAll}."
      },
      "supportsInterface(bytes4)": {
        "details": "See {IERC165-supportsInterface}."
      },
      "symbol()": {
        "details": "See {IERC721Metadata-symbol}."
      },
      "tokenByIndex(uint256)": {
        "details": "See {IERC721Enumerable-tokenByIndex}."
      },
      "tokenOfOwnerByIndex(address,uint256)": {
        "details": "See {IERC721Enumerable-tokenOfOwnerByIndex}."
      },
      "tokenURI(uint256)": {
        "details": "See {IERC721Metadata-tokenURI}."
      },
      "totalSupply()": {
        "details": "See {IERC721Enumerable-totalSupply}."
      },
      "transferFrom(address,address,uint256)": {
        "details": "See {IERC721-transferFrom}."
      },
      "unpause()": {
        "details": "Unpauses all token transfers. See {ERC721Pausable} and {Pausable-_unpause}. Requirements: - the caller must have the `PAUSER_ROLE`."
      }
    },
    "version": 1
  },
  "userdoc": {
    "kind": "user",
    "methods": {},
    "version": 1
  }
}