{
  "contractName": "ERC721PresetMinterPauserAutoId",
  "abi": [
    {
      "inputs": [
        {
          "internalType": "string",
          "name": "name",
          "type": "string"
        },
        {
          "internalType": "string",
          "name": "symbol",
          "type": "string"
        },
        {
          "internalType": "string",
          "name": "baseTokenURI",
          "type": "string"
        }
      ],
      "stateMutability": "nonpayable",
      "type": "constructor"
    },
    {
      "anonymous": false,
      "inputs": [
        {
          "indexed": true,
          "internalType": "address",
          "name": "owner",
          "type": "address"
        },
        {
          "indexed": true,
          "internalType": "address",
          "name": "approved",
          "type": "address"
        },
        {
          "indexed": true,
          "internalType": "uint256",
          "name": "tokenId",
          "type": "uint256"
        }
      ],
      "name": "Approval",
      "type": "event"
    },
    {
      "anonymous": false,
      "inputs": [
        {
          "indexed": true,
          "internalType": "address",
          "name": "owner",
          "type": "address"
        },
        {
          "indexed": true,
          "internalType": "address",
          "name": "operator",
          "type": "address"
        },
        {
          "indexed": false,
          "internalType": "bool",
          "name": "approved",
          "type": "bool"
        }
      ],
      "name": "ApprovalForAll",
      "type": "event"
    },
    {
      "anonymous": false,
      "inputs": [
        {
          "indexed": false,
          "internalType": "address",
          "name": "account",
          "type": "address"
        }
      ],
      "name": "Paused",
      "type": "event"
    },
    {
      "anonymous": false,
      "inputs": [
        {
          "indexed": true,
          "internalType": "bytes32",
          "name": "role",
          "type": "bytes32"
        },
        {
          "indexed": true,
          "internalType": "bytes32",
          "name": "previousAdminRole",
          "type": "bytes32"
        },
        {
          "indexed": true,
          "internalType": "bytes32",
          "name": "newAdminRole",
          "type": "bytes32"
        }
      ],
      "name": "RoleAdminChanged",
      "type": "event"
    },
    {
      "anonymous": false,
      "inputs": [
        {
          "indexed": true,
          "internalType": "bytes32",
          "name": "role",
          "type": "bytes32"
        },
        {
          "indexed": true,
          "internalType": "address",
          "name": "account",
          "type": "address"
        },
        {
          "indexed": true,
          "internalType": "address",
          "name": "sender",
          "type": "address"
        }
      ],
      "name": "RoleGranted",
      "type": "event"
    },
    {
      "anonymous": false,
      "inputs": [
        {
          "indexed": true,
          "internalType": "bytes32",
          "name": "role",
          "type": "bytes32"
        },
        {
          "indexed": true,
          "internalType": "address",
          "name": "account",
          "type": "address"
        },
        {
          "indexed": true,
          "internalType": "address",
          "name": "sender",
          "type": "address"
        }
      ],
      "name": "RoleRevoked",
      "type": "event"
    },
    {
      "anonymous": false,
      "inputs": [
        {
          "indexed": true,
          "internalType": "address",
          "name": "from",
          "type": "address"
        },
        {
          "indexed": true,
          "internalType": "address",
          "name": "to",
          "type": "address"
        },
        {
          "indexed": true,
          "internalType": "uint256",
          "name": "tokenId",
          "type": "uint256"
        }
      ],
      "name": "Transfer",
      "type": "event"
    },
    {
      "anonymous": false,
      "inputs": [
        {
          "indexed": false,
          "internalType": "address",
          "name": "account",
          "type": "address"
        }
      ],
      "name": "Unpaused",
      "type": "event"
    },
    {
      "anonymous": false,
      "inputs": [
        {
          "indexed": true,
          "internalType": "uint256",
          "name": "tokenId",
          "type": "uint256"
        }
      ],
      "name": "Update",
      "type": "event"
    },
    {
      "inputs": [],
      "name": "AUDITOR_ROLE",
      "outputs": [
        {
          "internalType": "bytes32",
          "name": "",
          "type": "bytes32"
        }
      ],
      "stateMutability": "view",
      "type": "function",
      "constant": true
    },
    {
      "inputs": [],
      "name": "CANDIDATE_ROLE",
      "outputs": [
        {
          "internalType": "bytes32",
          "name": "",
          "type": "bytes32"
        }
      ],
      "stateMutability": "view",
      "type": "function",
      "constant": true
    },
    {
      "inputs": [],
      "name": "DEFAULT_ADMIN_ROLE",
      "outputs": [
        {
          "internalType": "bytes32",
          "name": "",
          "type": "bytes32"
        }
      ],
      "stateMutability": "view",
      "type": "function",
      "constant": true
    },
    {
      "inputs": [],
      "name": "MINTER_ROLE",
      "outputs": [
        {
          "internalType": "bytes32",
          "name": "",
          "type": "bytes32"
        }
      ],
      "stateMutability": "view",
      "type": "function",
      "constant": true
    },
    {
      "inputs": [],
      "name": "PAUSER_ROLE",
      "outputs": [
        {
          "internalType": "bytes32",
          "name": "",
          "type": "bytes32"
        }
      ],
      "stateMutability": "view",
      "type": "function",
      "constant": true
    },
    {
      "inputs": [
        {
          "internalType": "address",
          "name": "to",
          "type": "address"
        },
        {
          "internalType": "uint256",
          "name": "tokenId",
          "type": "uint256"
        }
      ],
      "name": "approve",
      "outputs": [],
      "stateMutability": "nonpayable",
      "type": "function"
    },
    {
      "inputs": [
        {
          "internalType": "address",
          "name": "owner",
          "type": "address"
        }
      ],
      "name": "balanceOf",
      "outputs": [
        {
          "internalType": "uint256",
          "name": "",
          "type": "uint256"
        }
      ],
      "stateMutability": "view",
      "type": "function",
      "constant": true
    },
    {
      "inputs": [
        {
          "internalType": "uint256",
          "name": "tokenId",
          "type": "uint256"
        }
      ],
      "name": "burn",
      "outputs": [],
      "stateMutability": "nonpayable",
      "type": "function"
    },
    {
      "inputs": [
        {
          "internalType": "uint256",
          "name": "tokenId",
          "type": "uint256"
        }
      ],
      "name": "getApproved",
      "outputs": [
        {
          "internalType": "address",
          "name": "",
          "type": "address"
        }
      ],
      "stateMutability": "view",
      "type": "function",
      "constant": true
    },
    {
      "inputs": [
        {
          "internalType": "bytes32",
          "name": "role",
          "type": "bytes32"
        }
      ],
      "name": "getRoleAdmin",
      "outputs": [
        {
          "internalType": "bytes32",
          "name": "",
          "type": "bytes32"
        }
      ],
      "stateMutability": "view",
      "type": "function",
      "constant": true
    },
    {
      "inputs": [
        {
          "internalType": "bytes32",
          "name": "role",
          "type": "bytes32"
        },
        {
          "internalType": "uint256",
          "name": "index",
          "type": "uint256"
        }
      ],
      "name": "getRoleMember",
      "outputs": [
        {
          "internalType": "address",
          "name": "",
          "type": "address"
        }
      ],
      "stateMutability": "view",
      "type": "function",
      "constant": true
    },
    {
      "inputs": [
        {
          "internalType": "bytes32",
          "name": "role",
          "type": "bytes32"
        }
      ],
      "name": "getRoleMemberCount",
      "outputs": [
        {
          "internalType": "uint256",
          "name": "",
          "type": "uint256"
        }
      ],
      "stateMutability": "view",
      "type": "function",
      "constant": true
    },
    {
      "inputs": [
        {
          "internalType": "bytes32",
          "name": "role",
          "type": "bytes32"
        },
        {
          "internalType": "address",
          "name": "account",
          "type": "address"
        }
      ],
      "name": "grantRole",
      "outputs": [],
      "stateMutability": "nonpayable",
      "type": "function"
    },
    {
      "inputs": [
        {
          "internalType": "bytes32",
          "name": "role",
          "type": "bytes32"
        },
        {
          "internalType": "address",
          "name": "account",
          "type": "address"
        }
      ],
      "name": "hasRole",
      "outputs": [
        {
          "internalType": "bool",
          "name": "",
          "type": "bool"
        }
      ],
      "stateMutability": "view",
      "type": "function",
      "constant": true
    },
    {
      "inputs": [
        {
          "internalType": "address",
          "name": "owner",
          "type": "address"
        },
        {
          "internalType": "address",
          "name": "operator",
          "type": "address"
        }
      ],
      "name": "isApprovedForAll",
      "outputs": [
        {
          "internalType": "bool",
          "name": "",
          "type": "bool"
        }
      ],
      "stateMutability": "view",
      "type": "function",
      "constant": true
    },
    {
      "inputs": [],
      "name": "name",
      "outputs": [
        {
          "internalType": "string",
          "name": "",
          "type": "string"
        }
      ],
      "stateMutability": "view",
      "type": "function",
      "constant": true
    },
    {
      "inputs": [
        {
          "internalType": "uint256",
          "name": "tokenId",
          "type": "uint256"
        }
      ],
      "name": "ownerOf",
      "outputs": [
        {
          "internalType": "address",
          "name": "",
          "type": "address"
        }
      ],
      "stateMutability": "view",
      "type": "function",
      "constant": true
    },
    {
      "inputs": [],
      "name": "paused",
      "outputs": [
        {
          "internalType": "bool",
          "name": "",
          "type": "bool"
        }
      ],
      "stateMutability": "view",
      "type": "function",
      "constant": true
    },
    {
      "inputs": [
        {
          "internalType": "bytes32",
          "name": "role",
          "type": "bytes32"
        },
        {
          "internalType": "address",
          "name": "account",
          "type": "address"
        }
      ],
      "name": "renounceRole",
      "outputs": [],
      "stateMutability": "nonpayable",
      "type": "function"
    },
    {
      "inputs": [
        {
          "internalType": "bytes32",
          "name": "role",
          "type": "bytes32"
        },
        {
          "internalType": "address",
          "name": "account",
          "type": "address"
        }
      ],
      "name": "revokeRole",
      "outputs": [],
      "stateMutability": "nonpayable",
      "type": "function"
    },
    {
      "inputs": [
        {
          "internalType": "address",
          "name": "from",
          "type": "address"
        },
        {
          "internalType": "address",
          "name": "to",
          "type": "address"
        },
        {
          "internalType": "uint256",
          "name": "tokenId",
          "type": "uint256"
        }
      ],
      "name": "safeTransferFrom",
      "outputs": [],
      "stateMutability": "nonpayable",
      "type": "function"
    },
    {
      "inputs": [
        {
          "internalType": "address",
          "name": "from",
          "type": "address"
        },
        {
          "internalType": "address",
          "name": "to",
          "type": "address"
        },
        {
          "internalType": "uint256",
          "name": "tokenId",
          "type": "uint256"
        },
        {
          "internalType": "bytes",
          "name": "_data",
          "type": "bytes"
        }
      ],
      "name": "safeTransferFrom",
      "outputs": [],
      "stateMutability": "nonpayable",
      "type": "function"
    },
    {
      "inputs": [
        {
          "internalType": "address",
          "name": "operator",
          "type": "address"
        },
        {
          "internalType": "bool",
          "name": "approved",
          "type": "bool"
        }
      ],
      "name": "setApprovalForAll",
      "outputs": [],
      "stateMutability": "nonpayable",
      "type": "function"
    },
    {
      "inputs": [],
      "name": "symbol",
      "outputs": [
        {
          "internalType": "string",
          "name": "",
          "type": "string"
        }
      ],
      "stateMutability": "view",
      "type": "function",
      "constant": true
    },
    {
      "inputs": [
        {
          "internalType": "uint256",
          "name": "index",
          "type": "uint256"
        }
      ],
      "name": "tokenByIndex",
      "outputs": [
        {
          "internalType": "uint256",
          "name": "",
          "type": "uint256"
        }
      ],
      "stateMutability": "view",
      "type": "function",
      "constant": true
    },
    {
      "inputs": [
        {
          "internalType": "address",
          "name": "owner",
          "type": "address"
        },
        {
          "internalType": "uint256",
          "name": "index",
          "type": "uint256"
        }
      ],
      "name": "tokenOfOwnerByIndex",
      "outputs": [
        {
          "internalType": "uint256",
          "name": "",
          "type": "uint256"
        }
      ],
      "stateMutability": "view",
      "type": "function",
      "constant": true
    },
    {
      "inputs": [
        {
          "internalType": "uint256",
          "name": "tokenId",
          "type": "uint256"
        }
      ],
      "name": "tokenURI",
      "outputs": [
        {
          "internalType": "string",
          "name": "",
          "type": "string"
        }
      ],
      "stateMutability": "view",
      "type": "function",
      "constant": true
    },
    {
      "inputs": [],
      "name": "totalSupply",
      "outputs": [
        {
          "internalType": "uint256",
          "name": "",
          "type": "uint256"
        }
      ],
      "stateMutability": "view",
      "type": "function",
      "constant": true
    },
    {
      "inputs": [
        {
          "internalType": "address",
          "name": "from",
          "type": "address"
        },
        {
          "internalType": "address",
          "name": "to",
          "type": "address"
        },
        {
          "internalType": "uint256",
          "name": "tokenId",
          "type": "uint256"
        }
      ],
      "name": "transferFrom",
      "outputs": [],
      "stateMutability": "nonpayable",
      "type": "function"
    },
    {
      "inputs": [
        {
          "internalType": "string",
          "name": "name",
          "type": "string"
        }
      ],
      "name": "registerCandidate",
      "outputs": [],
      "stateMutability": "nonpayable",
      "type": "function"
    },
    {
      "inputs": [
        {
          "internalType": "address",
          "name": "toGrantMinterRole",
          "type": "address"
        }
      ],
      "name": "granMinterRole",
      "outputs": [],
      "stateMutability": "nonpayable",
      "type": "function"
    },
    {
      "inputs": [
        {
          "internalType": "uint256",
          "name": "tokenId",
          "type": "uint256"
        }
      ],
      "name": "getOwnerAddressByTokenId",
      "outputs": [
        {
          "internalType": "address",
          "name": "",
          "type": "address"
        }
      ],
      "stateMutability": "view",
      "type": "function",
      "constant": true
    },
    {
      "inputs": [
        {
          "internalType": "address",
          "name": "to",
          "type": "address"
        },
        {
          "internalType": "string",
          "name": "scorehash",
          "type": "string"
        }
      ],
      "name": "mint",
      "outputs": [],
      "stateMutability": "nonpayable",
      "type": "function"
    },
    {
      "inputs": [
        {
          "internalType": "uint256",
          "name": "tokenId",
          "type": "uint256"
        }
      ],
      "name": "getScoreHashByTokenId",
      "outputs": [
        {
          "internalType": "string",
          "name": "",
          "type": "string"
        }
      ],
      "stateMutability": "view",
      "type": "function",
      "constant": true
    },
    {
      "inputs": [
        {
          "internalType": "uint256",
          "name": "tokenId",
          "type": "uint256"
        },
        {
          "internalType": "string",
          "name": "newScoreHash",
          "type": "string"
        }
      ],
      "name": "updateScoreHashByTokenId",
      "outputs": [],
      "stateMutability": "nonpayable",
      "type": "function"
    },
    {
      "inputs": [],
      "name": "pause",
      "outputs": [],
      "stateMutability": "nonpayable",
      "type": "function"
    },
    {
      "inputs": [],
      "name": "unpause",
      "outputs": [],
      "stateMutability": "nonpayable",
      "type": "function"
    },
    {
      "inputs": [
        {
          "internalType": "bytes4",
          "name": "interfaceId",
          "type": "bytes4"
        }
      ],
      "name": "supportsInterface",
      "outputs": [
        {
          "internalType": "bool",
          "name": "",
          "type": "bool"
        }
      ],
      "stateMutability": "view",
      "type": "function",
      "constant": true
    }
  ],
  "bytecode": "0x60806040523480156200001157600080fd5b5060405162005a9038038062005a90833981810160405281019062000037919062000508565b8282816002908051906020019062000051929190620003e6565b5080600390805190602001906200006a929190620003e6565b5050506000600e60006101000a81548160ff0219169083151502179055508060119080519060200190620000a0929190620003e6565b50620000c56000801b620000b96200015060201b60201c565b6200015860201b60201c565b620001067f9f2df0fed2c77648de5860a4cc508cd0818c85b8b8a1ab4ceeef8d981c8956a6620000fa6200015060201b60201c565b6200015860201b60201c565b620001477f65d7a28e3265b37a6474929f336521b332c1681b933f6cb9f3376673440d862a6200013b6200015060201b60201c565b6200015860201b60201c565b50505062000719565b600033905090565b6200016f8282620001a060201b620017d11760201c565b6200019b8160016000858152602001908152602001600020620001b660201b620017df1790919060201c565b505050565b620001b28282620001ee60201b60201c565b5050565b6000620001e6836000018373ffffffffffffffffffffffffffffffffffffffff1660001b620002df60201b60201c565b905092915050565b6200020082826200035960201b60201c565b620002db57600160008084815260200190815260200160002060000160008373ffffffffffffffffffffffffffffffffffffffff1673ffffffffffffffffffffffffffffffffffffffff16815260200190815260200160002060006101000a81548160ff021916908315150217905550620002806200015060201b60201c565b73ffffffffffffffffffffffffffffffffffffffff168173ffffffffffffffffffffffffffffffffffffffff16837f2f8788117e7eff1d82e926ec794901d17c78024a50270940304540a733656f0d60405160405180910390a45b5050565b6000620002f38383620003c360201b60201c565b6200034e57826000018290806001815401808255809150506001900390600052602060002001600090919091909150558260000180549050836001016000848152602001908152602001600020819055506001905062000353565b600090505b92915050565b600080600084815260200190815260200160002060000160008373ffffffffffffffffffffffffffffffffffffffff1673ffffffffffffffffffffffffffffffffffffffff16815260200190815260200160002060009054906101000a900460ff16905092915050565b600080836001016000848152602001908152602001600020541415905092915050565b828054620003f4906200063e565b90600052602060002090601f01602090048101928262000418576000855562000464565b82601f106200043357805160ff191683800117855562000464565b8280016001018555821562000464579182015b828111156200046357825182559160200191906001019062000446565b5b50905062000473919062000477565b5090565b5b808211156200049257600081600090555060010162000478565b5090565b6000620004ad620004a784620005d2565b620005a9565b905082815260208101848484011115620004c657600080fd5b620004d384828562000608565b509392505050565b600082601f830112620004ed57600080fd5b8151620004ff84826020860162000496565b91505092915050565b6000806000606084860312156200051e57600080fd5b600084015167ffffffffffffffff8111156200053957600080fd5b6200054786828701620004db565b935050602084015167ffffffffffffffff8111156200056557600080fd5b6200057386828701620004db565b925050604084015167ffffffffffffffff8111156200059157600080fd5b6200059f86828701620004db565b9150509250925092565b6000620005b5620005c8565b9050620005c3828262000674565b919050565b6000604051905090565b600067ffffffffffffffff821115620005f057620005ef620006d9565b5b620005fb8262000708565b9050602081019050919050565b60005b83811015620006285780820151818401526020810190506200060b565b8381111562000638576000848401525b50505050565b600060028204905060018216806200065757607f821691505b602082108114156200066e576200066d620006aa565b5b50919050565b6200067f8262000708565b810181811067ffffffffffffffff82111715620006a157620006a0620006d9565b5b80604052505050565b7f4e487b7100000000000000000000000000000000000000000000000000000000600052602260045260246000fd5b7f4e487b7100000000000000000000000000000000000000000000000000000000600052604160045260246000fd5b6000601f19601f8301169050919050565b61536780620007296000396000f3fe608060405234801561001057600080fd5b50600436106102325760003560e01c806370a0823111610130578063b601ce24116100b8578063d0def5211161007c578063d0def521146106c1578063d5391393146106dd578063d547741f146106fb578063e63ab1e914610717578063e985e9c51461073557610232565b8063b601ce24146105f9578063b6227a6314610629578063b88d4fde14610645578063c87b56dd14610661578063ca15c8731461069157610232565b806395d89b41116100ff57806395d89b411461056957806398f63235146105875780639eb88db6146105a3578063a217fddf146105bf578063a22cb465146105dd57610232565b806370a08231146104cf5780638456cb59146104ff5780639010d07c1461050957806391d148541461053957610232565b806336568abe116101be5780635c975abb116101825780635c975abb14610415578063625339a5146104335780636352211e146104515780636779288f146104815780636e1d616e146104b157610232565b806336568abe146103875780633f4ba83a146103a357806342842e0e146103ad57806342966c68146103c95780634f6ccce7146103e557610232565b806318160ddd1161020557806318160ddd146102d157806323b872dd146102ef578063248a9ca31461030b5780632f2ff15d1461033b5780632f745c591461035757610232565b806301ffc9a71461023757806306fdde0314610267578063081812fc14610285578063095ea7b3146102b5575b600080fd5b610251600480360381019061024c9190613b0c565b610765565b60405161025e91906141fd565b60405180910390f35b61026f610777565b60405161027c9190614233565b60405180910390f35b61029f600480360381019061029a9190613b9f565b610809565b6040516102ac9190614196565b60405180910390f35b6102cf60048036038101906102ca9190613a2f565b61088e565b005b6102d96109a6565b6040516102e691906145f5565b60405180910390f35b610309600480360381019061030491906138d5565b6109b3565b005b61032560048036038101906103209190613a6b565b610a13565b6040516103329190614218565b60405180910390f35b61035560048036038101906103509190613a94565b610a32565b005b610371600480360381019061036c9190613a2f565b610a66565b60405161037e91906145f5565b60405180910390f35b6103a1600480360381019061039c9190613a94565b610b0b565b005b6103ab610b3f565b005b6103c760048036038101906103c291906138d5565b610bb9565b005b6103e360048036038101906103de9190613b9f565b610bd9565b005b6103ff60048036038101906103fa9190613b9f565b610c35565b60405161040c91906145f5565b60405180910390f35b61041d610ccc565b60405161042a91906141fd565b60405180910390f35b61043b610ce3565b6040516104489190614218565b60405180910390f35b61046b60048036038101906104669190613b9f565b610d07565b6040516104789190614196565b60405180910390f35b61049b60048036038101906104969190613b9f565b610db9565b6040516104a89190614233565b60405180910390f35b6104b9610e5e565b6040516104c69190614218565b60405180910390f35b6104e960048036038101906104e49190613870565b610e82565b6040516104f691906145f5565b60405180910390f35b610507610f3a565b005b610523600480360381019061051e9190613ad0565b610fb4565b6040516105309190614196565b60405180910390f35b610553600480360381019061054e9190613a94565b610fe3565b60405161056091906141fd565b60405180910390f35b61057161104d565b60405161057e9190614233565b60405180910390f35b6105a1600480360381019061059c9190613870565b6110df565b005b6105bd60048036038101906105b89190613b5e565b61115f565b005b6105c76111ee565b6040516105d49190614218565b60405180910390f35b6105f760048036038101906105f2919061399f565b6111f5565b005b610613600480360381019061060e9190613b9f565b611376565b6040516106209190614196565b60405180910390f35b610643600480360381019061063e9190613bc8565b6113b3565b005b61065f600480360381019061065a9190613924565b611502565b005b61067b60048036038101906106769190613b9f565b611564565b6040516106889190614233565b60405180910390f35b6106ab60048036038101906106a69190613a6b565b61160b565b6040516106b891906145f5565b60405180910390f35b6106db60048036038101906106d691906139db565b61162f565b005b6106e56116c1565b6040516106f29190614218565b60405180910390f35b61071560048036038101906107109190613a94565b6116e5565b005b61071f611719565b60405161072c9190614218565b60405180910390f35b61074f600480360381019061074a9190613899565b61173d565b60405161075c91906141fd565b60405180910390f35b60006107708261180f565b9050919050565b606060028054610786906148d9565b80601f01602080910402602001604051908101604052809291908181526020018280546107b2906148d9565b80156107ff5780601f106107d4576101008083540402835291602001916107ff565b820191906000526020600020905b8154815290600101906020018083116107e257829003601f168201915b5050505050905090565b600061081482611889565b610853576040517f08c379a000000000000000000000000000000000000000000000000000000000815260040161084a90614475565b60405180910390fd5b6008600083815260200190815260200160002060009054906101000a900473ffffffffffffffffffffffffffffffffffffffff169050919050565b600061089982610d07565b90508073ffffffffffffffffffffffffffffffffffffffff168373ffffffffffffffffffffffffffffffffffffffff16141561090a576040517f08c379a0000000000000000000000000000000000000000000000000000000008152600401610901906144f5565b60405180910390fd5b8073ffffffffffffffffffffffffffffffffffffffff166109296118f5565b73ffffffffffffffffffffffffffffffffffffffff1614806109585750610957816109526118f5565b61173d565b5b610997576040517f08c379a000000000000000000000000000000000000000000000000000000000815260040161098e906143f5565b60405180910390fd5b6109a183836118fd565b505050565b6000600c80549050905090565b6109c46109be6118f5565b826119b6565b610a03576040517f08c379a00000000000000000000000000000000000000000000000000000000081526004016109fa90614515565b60405180910390fd5b610a0e838383611a94565b505050565b6000806000838152602001908152602001600020600101549050919050565b610a3c8282611cf0565b610a6181600160008581526020019081526020016000206117df90919063ffffffff16565b505050565b6000610a7183610e82565b8210610ab2576040517f08c379a0000000000000000000000000000000000000000000000000000000008152600401610aa9906142d5565b60405180910390fd5b600a60008473ffffffffffffffffffffffffffffffffffffffff1673ffffffffffffffffffffffffffffffffffffffff168152602001908152602001600020600083815260200190815260200160002054905092915050565b610b158282611d19565b610b3a8160016000858152602001908152602001600020611d9c90919063ffffffff16565b505050565b610b707f65d7a28e3265b37a6474929f336521b332c1681b933f6cb9f3376673440d862a610b6b6118f5565b610fe3565b610baf576040517f08c379a0000000000000000000000000000000000000000000000000000000008152600401610ba6906145b5565b60405180910390fd5b610bb7611dcc565b565b610bd483838360405180602001604052806000815250611502565b505050565b610bea610be46118f5565b826119b6565b610c29576040517f08c379a0000000000000000000000000000000000000000000000000000000008152600401610c2090614595565b60405180910390fd5b610c3281611e6e565b50565b6000610c3f6109a6565b8210610c80576040517f08c379a0000000000000000000000000000000000000000000000000000000008152600401610c7790614535565b60405180910390fd5b600c8281548110610cba577f4e487b7100000000000000000000000000000000000000000000000000000000600052603260045260246000fd5b90600052602060002001549050919050565b6000600e60009054906101000a900460ff16905090565b7f262ba5fdd1dad9ccb8241da1a07fd1fd1c160e2ff97efc222645f94f62d5b43a81565b6000806004600084815260200190815260200160002060009054906101000a900473ffffffffffffffffffffffffffffffffffffffff169050600073ffffffffffffffffffffffffffffffffffffffff168173ffffffffffffffffffffffffffffffffffffffff161415610db0576040517f08c379a0000000000000000000000000000000000000000000000000000000008152600401610da790614435565b60405180910390fd5b80915050919050565b6060600660008381526020019081526020016000208054610dd9906148d9565b80601f0160208091040260200160405190810160405280929190818152602001828054610e05906148d9565b8015610e525780601f10610e2757610100808354040283529160200191610e52565b820191906000526020600020905b815481529060010190602001808311610e3557829003601f168201915b50505050509050919050565b7f59a1c48e5837ad7a7f3dcedcbe129bf3249ec4fbf651fd4f5e2600ead39fe2f581565b60008073ffffffffffffffffffffffffffffffffffffffff168273ffffffffffffffffffffffffffffffffffffffff161415610ef3576040517f08c379a0000000000000000000000000000000000000000000000000000000008152600401610eea90614415565b60405180910390fd5b600560008373ffffffffffffffffffffffffffffffffffffffff1673ffffffffffffffffffffffffffffffffffffffff168152602001908152602001600020549050919050565b610f6b7f65d7a28e3265b37a6474929f336521b332c1681b933f6cb9f3376673440d862a610f666118f5565b610fe3565b610faa576040517f08c379a0000000000000000000000000000000000000000000000000000000008152600401610fa190614355565b60405180910390fd5b610fb2611f7f565b565b6000610fdb826001600086815260200190815260200160002061202290919063ffffffff16565b905092915050565b600080600084815260200190815260200160002060000160008373ffffffffffffffffffffffffffffffffffffffff1673ffffffffffffffffffffffffffffffffffffffff16815260200190815260200160002060009054906101000a900460ff16905092915050565b60606003805461105c906148d9565b80601f0160208091040260200160405190810160405280929190818152602001828054611088906148d9565b80156110d55780601f106110aa576101008083540402835291602001916110d5565b820191906000526020600020905b8154815290600101906020018083116110b857829003601f168201915b5050505050905090565b6110f36000801b6110ee6118f5565b610fe3565b611132576040517f08c379a0000000000000000000000000000000000000000000000000000000008152600401611129906144d5565b60405180910390fd5b61115c7f9f2df0fed2c77648de5860a4cc508cd0818c85b8b8a1ab4ceeef8d981c8956a68261203c565b50565b6111907f262ba5fdd1dad9ccb8241da1a07fd1fd1c160e2ff97efc222645f94f62d5b43a61118b6118f5565b61203c565b80600f600061119d6118f5565b73ffffffffffffffffffffffffffffffffffffffff1673ffffffffffffffffffffffffffffffffffffffff16815260200190815260200160002090805190602001906111ea92919061367f565b5050565b6000801b81565b6111fd6118f5565b73ffffffffffffffffffffffffffffffffffffffff168273ffffffffffffffffffffffffffffffffffffffff16141561126b576040517f08c379a000000000000000000000000000000000000000000000000000000000815260040161126290614395565b60405180910390fd5b80600960006112786118f5565b73ffffffffffffffffffffffffffffffffffffffff1673ffffffffffffffffffffffffffffffffffffffff16815260200190815260200160002060008473ffffffffffffffffffffffffffffffffffffffff1673ffffffffffffffffffffffffffffffffffffffff16815260200190815260200160002060006101000a81548160ff0219169083151502179055508173ffffffffffffffffffffffffffffffffffffffff166113256118f5565b73ffffffffffffffffffffffffffffffffffffffff167f17307eab39ab6107e8899845ad3d59bd9653f200f220920489ca2b5937696c318360405161136a91906141fd565b60405180910390a35050565b60006004600083815260200190815260200160002060009054906101000a900473ffffffffffffffffffffffffffffffffffffffff169050919050565b3373ffffffffffffffffffffffffffffffffffffffff166004600084815260200190815260200160002060009054906101000a900473ffffffffffffffffffffffffffffffffffffffff1673ffffffffffffffffffffffffffffffffffffffff1614611454576040517f08c379a000000000000000000000000000000000000000000000000000000000815260040161144b90614335565b60405180910390fd5b426007600084815260200190815260200160002054116114a9576040517f08c379a00000000000000000000000000000000000000000000000000000000081526004016114a090614575565b60405180910390fd5b806006600084815260200190815260200160002090805190602001906114d092919061367f565b50817f164f7b2ab803097dab5e39f06d2e4f3c3ddc5d4171abbdcc3e76443b8359c7f560405160405180910390a25050565b61151361150d6118f5565b836119b6565b611552576040517f08c379a000000000000000000000000000000000000000000000000000000000815260040161154990614515565b60405180910390fd5b61155e84848484612070565b50505050565b606061156f82611889565b6115ae576040517f08c379a00000000000000000000000000000000000000000000000000000000081526004016115a5906144b5565b60405180910390fd5b60006115b86120cc565b905060008151116115d85760405180602001604052806000815250611603565b806115e28461215e565b6040516020016115f3929190614138565b6040516020818303038152906040525b915050919050565b60006116286001600084815260200190815260200160002061230b565b9050919050565b6116607f9f2df0fed2c77648de5860a4cc508cd0818c85b8b8a1ab4ceeef8d981c8956a661165b6118f5565b610fe3565b61169f576040517f08c379a000000000000000000000000000000000000000000000000000000000815260040161169690614555565b60405180910390fd5b6116b3826116ad6010612320565b8361232e565b6116bd6010612549565b5050565b7f9f2df0fed2c77648de5860a4cc508cd0818c85b8b8a1ab4ceeef8d981c8956a681565b6116ef828261255f565b6117148160016000858152602001908152602001600020611d9c90919063ffffffff16565b505050565b7f65d7a28e3265b37a6474929f336521b332c1681b933f6cb9f3376673440d862a81565b6000600960008473ffffffffffffffffffffffffffffffffffffffff1673ffffffffffffffffffffffffffffffffffffffff16815260200190815260200160002060008373ffffffffffffffffffffffffffffffffffffffff1673ffffffffffffffffffffffffffffffffffffffff16815260200190815260200160002060009054906101000a900460ff16905092915050565b6117db8282612588565b5050565b6000611807836000018373ffffffffffffffffffffffffffffffffffffffff1660001b612668565b905092915050565b60007f780e9d63000000000000000000000000000000000000000000000000000000007bffffffffffffffffffffffffffffffffffffffffffffffffffffffff1916827bffffffffffffffffffffffffffffffffffffffffffffffffffffffff191614806118825750611881826126d8565b5b9050919050565b60008073ffffffffffffffffffffffffffffffffffffffff166004600084815260200190815260200160002060009054906101000a900473ffffffffffffffffffffffffffffffffffffffff1673ffffffffffffffffffffffffffffffffffffffff1614159050919050565b600033905090565b816008600083815260200190815260200160002060006101000a81548173ffffffffffffffffffffffffffffffffffffffff021916908373ffffffffffffffffffffffffffffffffffffffff160217905550808273ffffffffffffffffffffffffffffffffffffffff1661197083610d07565b73ffffffffffffffffffffffffffffffffffffffff167f8c5be1e5ebec7d5bd14f71427d1e84f3dd0314c0f7b2291e5b200ac8c7c3b92560405160405180910390a45050565b60006119c182611889565b611a00576040517f08c379a00000000000000000000000000000000000000000000000000000000081526004016119f7906143b5565b60405180910390fd5b6000611a0b83610d07565b90508073ffffffffffffffffffffffffffffffffffffffff168473ffffffffffffffffffffffffffffffffffffffff161480611a7a57508373ffffffffffffffffffffffffffffffffffffffff16611a6284610809565b73ffffffffffffffffffffffffffffffffffffffff16145b80611a8b5750611a8a818561173d565b5b91505092915050565b8273ffffffffffffffffffffffffffffffffffffffff16611ab482610d07565b73ffffffffffffffffffffffffffffffffffffffff1614611b0a576040517f08c379a0000000000000000000000000000000000000000000000000000000008152600401611b0190614495565b60405180910390fd5b600073ffffffffffffffffffffffffffffffffffffffff168273ffffffffffffffffffffffffffffffffffffffff161415611b7a576040517f08c379a0000000000000000000000000000000000000000000000000000000008152600401611b7190614375565b60405180910390fd5b611b858383836127ba565b611b906000826118fd565b6001600560008573ffffffffffffffffffffffffffffffffffffffff1673ffffffffffffffffffffffffffffffffffffffff1681526020019081526020016000206000828254611be091906147bb565b925050819055506001600560008473ffffffffffffffffffffffffffffffffffffffff1673ffffffffffffffffffffffffffffffffffffffff1681526020019081526020016000206000828254611c3791906146da565b92505081905550816004600083815260200190815260200160002060006101000a81548173ffffffffffffffffffffffffffffffffffffffff021916908373ffffffffffffffffffffffffffffffffffffffff160217905550808273ffffffffffffffffffffffffffffffffffffffff168473ffffffffffffffffffffffffffffffffffffffff167fddf252ad1be2c89b69c2b068fc378daa952ba7f163c4a11628f55a4df523b3ef60405160405180910390a4505050565b611cf982610a13565b611d0a81611d056118f5565b6127ca565b611d148383612588565b505050565b611d216118f5565b73ffffffffffffffffffffffffffffffffffffffff168173ffffffffffffffffffffffffffffffffffffffff1614611d8e576040517f08c379a0000000000000000000000000000000000000000000000000000000008152600401611d85906145d5565b60405180910390fd5b611d988282612867565b5050565b6000611dc4836000018373ffffffffffffffffffffffffffffffffffffffff1660001b612948565b905092915050565b611dd4610ccc565b611e13576040517f08c379a0000000000000000000000000000000000000000000000000000000008152600401611e0a906142b5565b60405180910390fd5b6000600e60006101000a81548160ff0219169083151502179055507f5db9ee0a495bf2e6ff9c91a7834c1ba4fdd244a5e8aa4e537bd38aeae4b073aa611e576118f5565b604051611e649190614196565b60405180910390a1565b6000611e7982610d07565b9050611e87816000846127ba565b611e926000836118fd565b6001600560008373ffffffffffffffffffffffffffffffffffffffff1673ffffffffffffffffffffffffffffffffffffffff1681526020019081526020016000206000828254611ee291906147bb565b925050819055506004600083815260200190815260200160002060006101000a81549073ffffffffffffffffffffffffffffffffffffffff021916905581600073ffffffffffffffffffffffffffffffffffffffff168273ffffffffffffffffffffffffffffffffffffffff167fddf252ad1be2c89b69c2b068fc378daa952ba7f163c4a11628f55a4df523b3ef60405160405180910390a45050565b611f87610ccc565b15611fc7576040517f08c379a0000000000000000000000000000000000000000000000000000000008152600401611fbe906143d5565b60405180910390fd5b6001600e60006101000a81548160ff0219169083151502179055507f62e78cea01bee320cd4e420270b5ea74000d11b0c9f74754ebdbfc544b05a25861200b6118f5565b6040516120189190614196565b60405180910390a1565b60006120318360000183612ac6565b60001c905092915050565b61204682826117d1565b61206b81600160008581526020019081526020016000206117df90919063ffffffff16565b505050565b61207b848484611a94565b61208784848484612b60565b6120c6576040517f08c379a00000000000000000000000000000000000000000000000000000000081526004016120bd906142f5565b60405180910390fd5b50505050565b6060601180546120db906148d9565b80601f0160208091040260200160405190810160405280929190818152602001828054612107906148d9565b80156121545780601f1061212957610100808354040283529160200191612154565b820191906000526020600020905b81548152906001019060200180831161213757829003601f168201915b5050505050905090565b606060008214156121a6576040518060400160405280600181526020017f30000000000000000000000000000000000000000000000000000000000000008152509050612306565b600082905060005b600082146121d85780806121c19061493c565b915050600a826121d19190614730565b91506121ae565b60008167ffffffffffffffff81111561221a577f4e487b7100000000000000000000000000000000000000000000000000000000600052604160045260246000fd5b6040519080825280601f01601f19166020018201604052801561224c5781602001600182028036833780820191505090505b5090505b600085146122ff5760018261226591906147bb565b9150600a856122749190614985565b603061228091906146da565b60f81b8183815181106122bc577f4e487b7100000000000000000000000000000000000000000000000000000000600052603260045260246000fd5b60200101907effffffffffffffffffffffffffffffffffffffffffffffffffffffffffffff1916908160001a905350600a856122f89190614730565b9450612250565b8093505050505b919050565b600061231982600001612cf7565b9050919050565b600081600001549050919050565b600073ffffffffffffffffffffffffffffffffffffffff168373ffffffffffffffffffffffffffffffffffffffff16141561239e576040517f08c379a000000000000000000000000000000000000000000000000000000000815260040161239590614455565b60405180910390fd5b6123a782611889565b156123e7576040517f08c379a00000000000000000000000000000000000000000000000000000000081526004016123de90614315565b60405180910390fd5b6123f3600084846127ba565b6001600560008573ffffffffffffffffffffffffffffffffffffffff1673ffffffffffffffffffffffffffffffffffffffff168152602001908152602001600020600082825461244391906146da565b92505081905550336004600084815260200190815260200160002060006101000a81548173ffffffffffffffffffffffffffffffffffffffff021916908373ffffffffffffffffffffffffffffffffffffffff160217905550806006600084815260200190815260200160002090805190602001906124c392919061367f565b506078426124d191906146da565b6007600084815260200190815260200160002081905550818373ffffffffffffffffffffffffffffffffffffffff16600073ffffffffffffffffffffffffffffffffffffffff167fddf252ad1be2c89b69c2b068fc378daa952ba7f163c4a11628f55a4df523b3ef60405160405180910390a4505050565b6001816000016000828254019250508190555050565b61256882610a13565b612579816125746118f5565b6127ca565b6125838383612867565b505050565b6125928282610fe3565b61266457600160008084815260200190815260200160002060000160008373ffffffffffffffffffffffffffffffffffffffff1673ffffffffffffffffffffffffffffffffffffffff16815260200190815260200160002060006101000a81548160ff0219169083151502179055506126096118f5565b73ffffffffffffffffffffffffffffffffffffffff168173ffffffffffffffffffffffffffffffffffffffff16837f2f8788117e7eff1d82e926ec794901d17c78024a50270940304540a733656f0d60405160405180910390a45b5050565b60006126748383612d08565b6126cd5782600001829080600181540180825580915050600190039060005260206000200160009091909190915055826000018054905083600101600084815260200190815260200160002081905550600190506126d2565b600090505b92915050565b60007f80ac58cd000000000000000000000000000000000000000000000000000000007bffffffffffffffffffffffffffffffffffffffffffffffffffffffff1916827bffffffffffffffffffffffffffffffffffffffffffffffffffffffff191614806127a357507f5b5e139f000000000000000000000000000000000000000000000000000000007bffffffffffffffffffffffffffffffffffffffffffffffffffffffff1916827bffffffffffffffffffffffffffffffffffffffffffffffffffffffff1916145b806127b357506127b282612d2b565b5b9050919050565b6127c5838383612da5565b505050565b6127d48282610fe3565b612863576127f98173ffffffffffffffffffffffffffffffffffffffff166014612dfd565b6128078360001c6020612dfd565b60405160200161281892919061415c565b6040516020818303038152906040526040517f08c379a000000000000000000000000000000000000000000000000000000000815260040161285a9190614233565b60405180910390fd5b5050565b6128718282610fe3565b1561294457600080600084815260200190815260200160002060000160008373ffffffffffffffffffffffffffffffffffffffff1673ffffffffffffffffffffffffffffffffffffffff16815260200190815260200160002060006101000a81548160ff0219169083151502179055506128e96118f5565b73ffffffffffffffffffffffffffffffffffffffff168173ffffffffffffffffffffffffffffffffffffffff16837ff6391f5c32d9c69d2a47ea670b442974b53935d1edc7fd64eb21e047a839171b60405160405180910390a45b5050565b60008083600101600084815260200190815260200160002054905060008114612aba57600060018261297a91906147bb565b905060006001866000018054905061299291906147bb565b905060008660000182815481106129d2577f4e487b7100000000000000000000000000000000000000000000000000000000600052603260045260246000fd5b9060005260206000200154905080876000018481548110612a1c577f4e487b7100000000000000000000000000000000000000000000000000000000600052603260045260246000fd5b9060005260206000200181905550838760010160008381526020019081526020016000208190555086600001805480612a7e577f4e487b7100000000000000000000000000000000000000000000000000000000600052603160045260246000fd5b60019003818190600052602060002001600090559055866001016000878152602001908152602001600020600090556001945050505050612ac0565b60009150505b92915050565b600081836000018054905011612b11576040517f08c379a0000000000000000000000000000000000000000000000000000000008152600401612b0890614255565b60405180910390fd5b826000018281548110612b4d577f4e487b7100000000000000000000000000000000000000000000000000000000600052603260045260246000fd5b9060005260206000200154905092915050565b6000612b818473ffffffffffffffffffffffffffffffffffffffff166130f7565b15612cea578373ffffffffffffffffffffffffffffffffffffffff1663150b7a02612baa6118f5565b8786866040518563ffffffff1660e01b8152600401612bcc94939291906141b1565b602060405180830381600087803b158015612be657600080fd5b505af1925050508015612c1757506040513d601f19601f82011682018060405250810190612c149190613b35565b60015b612c9a573d8060008114612c47576040519150601f19603f3d011682016040523d82523d6000602084013e612c4c565b606091505b50600081511415612c92576040517f08c379a0000000000000000000000000000000000000000000000000000000008152600401612c89906142f5565b60405180910390fd5b805181602001fd5b63150b7a0260e01b7bffffffffffffffffffffffffffffffffffffffffffffffffffffffff1916817bffffffffffffffffffffffffffffffffffffffffffffffffffffffff191614915050612cef565b600190505b949350505050565b600081600001805490509050919050565b600080836001016000848152602001908152602001600020541415905092915050565b60007f5a05180f000000000000000000000000000000000000000000000000000000007bffffffffffffffffffffffffffffffffffffffffffffffffffffffff1916827bffffffffffffffffffffffffffffffffffffffffffffffffffffffff19161480612d9e5750612d9d8261310a565b5b9050919050565b612db0838383613184565b612db8610ccc565b15612df8576040517f08c379a0000000000000000000000000000000000000000000000000000000008152600401612def90614295565b60405180910390fd5b505050565b606060006002836002612e109190614761565b612e1a91906146da565b67ffffffffffffffff811115612e59577f4e487b7100000000000000000000000000000000000000000000000000000000600052604160045260246000fd5b6040519080825280601f01601f191660200182016040528015612e8b5781602001600182028036833780820191505090505b5090507f300000000000000000000000000000000000000000000000000000000000000081600081518110612ee9577f4e487b7100000000000000000000000000000000000000000000000000000000600052603260045260246000fd5b60200101907effffffffffffffffffffffffffffffffffffffffffffffffffffffffffffff1916908160001a9053507f780000000000000000000000000000000000000000000000000000000000000081600181518110612f73577f4e487b7100000000000000000000000000000000000000000000000000000000600052603260045260246000fd5b60200101907effffffffffffffffffffffffffffffffffffffffffffffffffffffffffffff1916908160001a90535060006001846002612fb39190614761565b612fbd91906146da565b90505b60018111156130a9577f3031323334353637383961626364656600000000000000000000000000000000600f861660108110613025577f4e487b7100000000000000000000000000000000000000000000000000000000600052603260045260246000fd5b1a60f81b828281518110613062577f4e487b7100000000000000000000000000000000000000000000000000000000600052603260045260246000fd5b60200101907effffffffffffffffffffffffffffffffffffffffffffffffffffffffffffff1916908160001a905350600485901c9450806130a2906148af565b9050612fc0565b50600084146130ed576040517f08c379a00000000000000000000000000000000000000000000000000000000081526004016130e490614275565b60405180910390fd5b8091505092915050565b600080823b905060008111915050919050565b60007f7965db0b000000000000000000000000000000000000000000000000000000007bffffffffffffffffffffffffffffffffffffffffffffffffffffffff1916827bffffffffffffffffffffffffffffffffffffffffffffffffffffffff1916148061317d575061317c82613298565b5b9050919050565b61318f838383613302565b600073ffffffffffffffffffffffffffffffffffffffff168373ffffffffffffffffffffffffffffffffffffffff1614156131d2576131cd81613307565b613211565b8173ffffffffffffffffffffffffffffffffffffffff168373ffffffffffffffffffffffffffffffffffffffff16146132105761320f8382613350565b5b5b600073ffffffffffffffffffffffffffffffffffffffff168273ffffffffffffffffffffffffffffffffffffffff1614156132545761324f816134bd565b613293565b8273ffffffffffffffffffffffffffffffffffffffff168273ffffffffffffffffffffffffffffffffffffffff1614613292576132918282613600565b5b5b505050565b60007f01ffc9a7000000000000000000000000000000000000000000000000000000007bffffffffffffffffffffffffffffffffffffffffffffffffffffffff1916827bffffffffffffffffffffffffffffffffffffffffffffffffffffffff1916149050919050565b505050565b600c80549050600d600083815260200190815260200160002081905550600c81908060018154018082558091505060019003906000526020600020016000909190919091505550565b6000600161335d84610e82565b61336791906147bb565b90506000600b600084815260200190815260200160002054905081811461344c576000600a60008673ffffffffffffffffffffffffffffffffffffffff1673ffffffffffffffffffffffffffffffffffffffff168152602001908152602001600020600084815260200190815260200160002054905080600a60008773ffffffffffffffffffffffffffffffffffffffff1673ffffffffffffffffffffffffffffffffffffffff16815260200190815260200160002060008481526020019081526020016000208190555081600b600083815260200190815260200160002081905550505b600b600084815260200190815260200160002060009055600a60008573ffffffffffffffffffffffffffffffffffffffff1673ffffffffffffffffffffffffffffffffffffffff16815260200190815260200160002060008381526020019081526020016000206000905550505050565b60006001600c805490506134d191906147bb565b90506000600d60008481526020019081526020016000205490506000600c8381548110613527577f4e487b7100000000000000000000000000000000000000000000000000000000600052603260045260246000fd5b9060005260206000200154905080600c838154811061356f577f4e487b7100000000000000000000000000000000000000000000000000000000600052603260045260246000fd5b906000526020600020018190555081600d600083815260200190815260200160002081905550600d600085815260200190815260200160002060009055600c8054806135e4577f4e487b7100000000000000000000000000000000000000000000000000000000600052603160045260246000fd5b6001900381819060005260206000200160009055905550505050565b600061360b83610e82565b905081600a60008573ffffffffffffffffffffffffffffffffffffffff1673ffffffffffffffffffffffffffffffffffffffff16815260200190815260200160002060008381526020019081526020016000208190555080600b600084815260200190815260200160002081905550505050565b82805461368b906148d9565b90600052602060002090601f0160209004810192826136ad57600085556136f4565b82601f106136c657805160ff19168380011785556136f4565b828001600101855582156136f4579182015b828111156136f35782518255916020019190600101906136d8565b5b5090506137019190613705565b5090565b5b8082111561371e576000816000905550600101613706565b5090565b600061373561373084614635565b614610565b90508281526020810184848401111561374d57600080fd5b61375884828561486d565b509392505050565b600061377361376e84614666565b614610565b90508281526020810184848401111561378b57600080fd5b61379684828561486d565b509392505050565b6000813590506137ad816152be565b92915050565b6000813590506137c2816152d5565b92915050565b6000813590506137d7816152ec565b92915050565b6000813590506137ec81615303565b92915050565b60008151905061380181615303565b92915050565b600082601f83011261381857600080fd5b8135613828848260208601613722565b91505092915050565b600082601f83011261384257600080fd5b8135613852848260208601613760565b91505092915050565b60008135905061386a8161531a565b92915050565b60006020828403121561388257600080fd5b60006138908482850161379e565b91505092915050565b600080604083850312156138ac57600080fd5b60006138ba8582860161379e565b92505060206138cb8582860161379e565b9150509250929050565b6000806000606084860312156138ea57600080fd5b60006138f88682870161379e565b93505060206139098682870161379e565b925050604061391a8682870161385b565b9150509250925092565b6000806000806080858703121561393a57600080fd5b60006139488782880161379e565b94505060206139598782880161379e565b935050604061396a8782880161385b565b925050606085013567ffffffffffffffff81111561398757600080fd5b61399387828801613807565b91505092959194509250565b600080604083850312156139b257600080fd5b60006139c08582860161379e565b92505060206139d1858286016137b3565b9150509250929050565b600080604083850312156139ee57600080fd5b60006139fc8582860161379e565b925050602083013567ffffffffffffffff811115613a1957600080fd5b613a2585828601613831565b9150509250929050565b60008060408385031215613a4257600080fd5b6000613a508582860161379e565b9250506020613a618582860161385b565b9150509250929050565b600060208284031215613a7d57600080fd5b6000613a8b848285016137c8565b91505092915050565b60008060408385031215613aa757600080fd5b6000613ab5858286016137c8565b9250506020613ac68582860161379e565b9150509250929050565b60008060408385031215613ae357600080fd5b6000613af1858286016137c8565b9250506020613b028582860161385b565b9150509250929050565b600060208284031215613b1e57600080fd5b6000613b2c848285016137dd565b91505092915050565b600060208284031215613b4757600080fd5b6000613b55848285016137f2565b91505092915050565b600060208284031215613b7057600080fd5b600082013567ffffffffffffffff811115613b8a57600080fd5b613b9684828501613831565b91505092915050565b600060208284031215613bb157600080fd5b6000613bbf8482850161385b565b91505092915050565b60008060408385031215613bdb57600080fd5b6000613be98582860161385b565b925050602083013567ffffffffffffffff811115613c0657600080fd5b613c1285828601613831565b9150509250929050565b613c25816147ef565b82525050565b613c3481614801565b82525050565b613c438161480d565b82525050565b6000613c5482614697565b613c5e81856146ad565b9350613c6e81856020860161487c565b613c7781614a72565b840191505092915050565b6000613c8d826146a2565b613c9781856146be565b9350613ca781856020860161487c565b613cb081614a72565b840191505092915050565b6000613cc6826146a2565b613cd081856146cf565b9350613ce081856020860161487c565b80840191505092915050565b6000613cf96022836146be565b9150613d0482614a83565b604082019050919050565b6000613d1c6020836146be565b9150613d2782614ad2565b602082019050919050565b6000613d3f602b836146be565b9150613d4a82614afb565b604082019050919050565b6000613d626014836146be565b9150613d6d82614b4a565b602082019050919050565b6000613d85602b836146be565b9150613d9082614b73565b604082019050919050565b6000613da86032836146be565b9150613db382614bc2565b604082019050919050565b6000613dcb601c836146be565b9150613dd682614c11565b602082019050919050565b6000613dee601f836146be565b9150613df982614c3a565b602082019050919050565b6000613e11603e836146be565b9150613e1c82614c63565b604082019050919050565b6000613e346024836146be565b9150613e3f82614cb2565b604082019050919050565b6000613e576019836146be565b9150613e6282614d01565b602082019050919050565b6000613e7a602c836146be565b9150613e8582614d2a565b604082019050919050565b6000613e9d6010836146be565b9150613ea882614d79565b602082019050919050565b6000613ec06038836146be565b9150613ecb82614da2565b604082019050919050565b6000613ee3602a836146be565b9150613eee82614df1565b604082019050919050565b6000613f066029836146be565b9150613f1182614e40565b604082019050919050565b6000613f296020836146be565b9150613f3482614e8f565b602082019050919050565b6000613f4c602c836146be565b9150613f5782614eb8565b604082019050919050565b6000613f6f6029836146be565b9150613f7a82614f07565b604082019050919050565b6000613f92602f836146be565b9150613f9d82614f56565b604082019050919050565b6000613fb5603d836146be565b9150613fc082614fa5565b604082019050919050565b6000613fd86021836146be565b9150613fe382614ff4565b604082019050919050565b6000613ffb6031836146be565b915061400682615043565b604082019050919050565b600061401e602c836146be565b915061402982615092565b604082019050919050565b60006140416017836146cf565b915061404c826150e1565b601782019050919050565b6000614064603d836146be565b915061406f8261510a565b604082019050919050565b60006140876029836146be565b915061409282615159565b604082019050919050565b60006140aa6030836146be565b91506140b5826151a8565b604082019050919050565b60006140cd6040836146be565b91506140d8826151f7565b604082019050919050565b60006140f06011836146cf565b91506140fb82615246565b601182019050919050565b6000614113602f836146be565b915061411e8261526f565b604082019050919050565b61413281614863565b82525050565b60006141448285613cbb565b91506141508284613cbb565b91508190509392505050565b600061416782614034565b91506141738285613cbb565b915061417e826140e3565b915061418a8284613cbb565b91508190509392505050565b60006020820190506141ab6000830184613c1c565b92915050565b60006080820190506141c66000830187613c1c565b6141d36020830186613c1c565b6141e06040830185614129565b81810360608301526141f28184613c49565b905095945050505050565b60006020820190506142126000830184613c2b565b92915050565b600060208201905061422d6000830184613c3a565b92915050565b6000602082019050818103600083015261424d8184613c82565b905092915050565b6000602082019050818103600083015261426e81613cec565b9050919050565b6000602082019050818103600083015261428e81613d0f565b9050919050565b600060208201905081810360008301526142ae81613d32565b9050919050565b600060208201905081810360008301526142ce81613d55565b9050919050565b600060208201905081810360008301526142ee81613d78565b9050919050565b6000602082019050818103600083015261430e81613d9b565b9050919050565b6000602082019050818103600083015261432e81613dbe565b9050919050565b6000602082019050818103600083015261434e81613de1565b9050919050565b6000602082019050818103600083015261436e81613e04565b9050919050565b6000602082019050818103600083015261438e81613e27565b9050919050565b600060208201905081810360008301526143ae81613e4a565b9050919050565b600060208201905081810360008301526143ce81613e6d565b9050919050565b600060208201905081810360008301526143ee81613e90565b9050919050565b6000602082019050818103600083015261440e81613eb3565b9050919050565b6000602082019050818103600083015261442e81613ed6565b9050919050565b6000602082019050818103600083015261444e81613ef9565b9050919050565b6000602082019050818103600083015261446e81613f1c565b9050919050565b6000602082019050818103600083015261448e81613f3f565b9050919050565b600060208201905081810360008301526144ae81613f62565b9050919050565b600060208201905081810360008301526144ce81613f85565b9050919050565b600060208201905081810360008301526144ee81613fa8565b9050919050565b6000602082019050818103600083015261450e81613fcb565b9050919050565b6000602082019050818103600083015261452e81613fee565b9050919050565b6000602082019050818103600083015261454e81614011565b9050919050565b6000602082019050818103600083015261456e81614057565b9050919050565b6000602082019050818103600083015261458e8161407a565b9050919050565b600060208201905081810360008301526145ae8161409d565b9050919050565b600060208201905081810360008301526145ce816140c0565b9050919050565b600060208201905081810360008301526145ee81614106565b9050919050565b600060208201905061460a6000830184614129565b92915050565b600061461a61462b565b9050614626828261490b565b919050565b6000604051905090565b600067ffffffffffffffff8211156146505761464f614a43565b5b61465982614a72565b9050602081019050919050565b600067ffffffffffffffff82111561468157614680614a43565b5b61468a82614a72565b9050602081019050919050565b600081519050919050565b600081519050919050565b600082825260208201905092915050565b600082825260208201905092915050565b600081905092915050565b60006146e582614863565b91506146f083614863565b9250827fffffffffffffffffffffffffffffffffffffffffffffffffffffffffffffffff03821115614725576147246149b6565b5b828201905092915050565b600061473b82614863565b915061474683614863565b925082614756576147556149e5565b5b828204905092915050565b600061476c82614863565b915061477783614863565b9250817fffffffffffffffffffffffffffffffffffffffffffffffffffffffffffffffff04831182151516156147b0576147af6149b6565b5b828202905092915050565b60006147c682614863565b91506147d183614863565b9250828210156147e4576147e36149b6565b5b828203905092915050565b60006147fa82614843565b9050919050565b60008115159050919050565b6000819050919050565b60007fffffffff0000000000000000000000000000000000000000000000000000000082169050919050565b600073ffffffffffffffffffffffffffffffffffffffff82169050919050565b6000819050919050565b82818337600083830152505050565b60005b8381101561489a57808201518184015260208101905061487f565b838111156148a9576000848401525b50505050565b60006148ba82614863565b915060008214156148ce576148cd6149b6565b5b600182039050919050565b600060028204905060018216806148f157607f821691505b6020821081141561490557614904614a14565b5b50919050565b61491482614a72565b810181811067ffffffffffffffff8211171561493357614932614a43565b5b80604052505050565b600061494782614863565b91507fffffffffffffffffffffffffffffffffffffffffffffffffffffffffffffffff82141561497a576149796149b6565b5b600182019050919050565b600061499082614863565b915061499b83614863565b9250826149ab576149aa6149e5565b5b828206905092915050565b7f4e487b7100000000000000000000000000000000000000000000000000000000600052601160045260246000fd5b7f4e487b7100000000000000000000000000000000000000000000000000000000600052601260045260246000fd5b7f4e487b7100000000000000000000000000000000000000000000000000000000600052602260045260246000fd5b7f4e487b7100000000000000000000000000000000000000000000000000000000600052604160045260246000fd5b6000601f19601f8301169050919050565b7f456e756d657261626c655365743a20696e646578206f7574206f6620626f756e60008201527f6473000000000000000000000000000000000000000000000000000000000000602082015250565b7f537472696e67733a20686578206c656e67746820696e73756666696369656e74600082015250565b7f4552433732315061757361626c653a20746f6b656e207472616e73666572207760008201527f68696c6520706175736564000000000000000000000000000000000000000000602082015250565b7f5061757361626c653a206e6f7420706175736564000000000000000000000000600082015250565b7f455243373231456e756d657261626c653a206f776e657220696e646578206f7560008201527f74206f6620626f756e6473000000000000000000000000000000000000000000602082015250565b7f4552433732313a207472616e7366657220746f206e6f6e20455243373231526560008201527f63656976657220696d706c656d656e7465720000000000000000000000000000602082015250565b7f4552433732313a20746f6b656e20616c7265616479206d696e74656400000000600082015250565b7f4e6f7420746865207075626c6973686572206f66207468697320746f6b656e00600082015250565b7f4552433732315072657365744d696e7465725061757365724175746f49643a2060008201527f6d75737420686176652070617573657220726f6c6520746f2070617573650000602082015250565b7f4552433732313a207472616e7366657220746f20746865207a65726f2061646460008201527f7265737300000000000000000000000000000000000000000000000000000000602082015250565b7f4552433732313a20617070726f766520746f2063616c6c657200000000000000600082015250565b7f4552433732313a206f70657261746f7220717565727920666f72206e6f6e657860008201527f697374656e7420746f6b656e0000000000000000000000000000000000000000602082015250565b7f5061757361626c653a2070617573656400000000000000000000000000000000600082015250565b7f4552433732313a20617070726f76652063616c6c6572206973206e6f74206f7760008201527f6e6572206e6f7220617070726f76656420666f7220616c6c0000000000000000602082015250565b7f4552433732313a2062616c616e636520717565727920666f7220746865207a6560008201527f726f206164647265737300000000000000000000000000000000000000000000602082015250565b7f4552433732313a206f776e657220717565727920666f72206e6f6e657869737460008201527f656e7420746f6b656e0000000000000000000000000000000000000000000000602082015250565b7f4552433732313a206d696e7420746f20746865207a65726f2061646472657373600082015250565b7f4552433732313a20617070726f76656420717565727920666f72206e6f6e657860008201527f697374656e7420746f6b656e0000000000000000000000000000000000000000602082015250565b7f4552433732313a207472616e73666572206f6620746f6b656e2074686174206960008201527f73206e6f74206f776e0000000000000000000000000000000000000000000000602082015250565b7f4552433732314d657461646174613a2055524920717565727920666f72206e6f60008201527f6e6578697374656e7420746f6b656e0000000000000000000000000000000000602082015250565b7f4552433732315072657365744d696e7465725061757365724175746f49643a2060008201527f6d75737420686176652061646d696e20726f6c6520746f206772616e74000000602082015250565b7f4552433732313a20617070726f76616c20746f2063757272656e74206f776e6560008201527f7200000000000000000000000000000000000000000000000000000000000000602082015250565b7f4552433732313a207472616e736665722063616c6c6572206973206e6f74206f60008201527f776e6572206e6f7220617070726f766564000000000000000000000000000000602082015250565b7f455243373231456e756d657261626c653a20676c6f62616c20696e646578206f60008201527f7574206f6620626f756e64730000000000000000000000000000000000000000602082015250565b7f416363657373436f6e74726f6c3a206163636f756e7420000000000000000000600082015250565b7f4552433732315072657365744d696e7465725061757365724175746f49643a2060008201527f6d7573742068617665206d696e74657220726f6c6520746f206d696e74000000602082015250565b7f546869732073636f726520746f6b656e2063616e206e6f206c6f6e676572206260008201527f6520656469747465640000000000000000000000000000000000000000000000602082015250565b7f4552433732314275726e61626c653a2063616c6c6572206973206e6f74206f7760008201527f6e6572206e6f7220617070726f76656400000000000000000000000000000000602082015250565b7f4552433732315072657365744d696e7465725061757365724175746f49643a2060008201527f6d75737420686176652070617573657220726f6c6520746f20756e7061757365602082015250565b7f206973206d697373696e6720726f6c6520000000000000000000000000000000600082015250565b7f416363657373436f6e74726f6c3a2063616e206f6e6c792072656e6f756e636560008201527f20726f6c657320666f722073656c660000000000000000000000000000000000602082015250565b6152c7816147ef565b81146152d257600080fd5b50565b6152de81614801565b81146152e957600080fd5b50565b6152f58161480d565b811461530057600080fd5b50565b61530c81614817565b811461531757600080fd5b50565b61532381614863565b811461532e57600080fd5b5056fea2646970667358221220a2d21c7248bbb2c09163df9e639ca1f5f468efc3cc9770e044aeab0a6ffb1fe364736f6c63430008030033",
  "immutableReferences": {},
  "source": "// SPDX-License-Identifier: MIT\n\npragma solidity ^0.8.0;\nimport \"../ERC721.sol\";\nimport \"../extensions/ERC721Enumerable.sol\";\n\nimport \"../extensions/ERC721Pausable.sol\";\nimport \"../extensions/ERC721Burnable.sol\";\nimport \"../../../access/AccessControlEnumerable.sol\";\nimport \"../../../utils/Context.sol\";\nimport \"../../../utils/Counters.sol\";\n\n/**\n * @dev {ERC721} token, including:\n *\n *  - ability for holders to burn (destroy) their tokens\n *  - a minter role that allows for token minting (creation)\n *  - a pauser role that allows to stop all token transfers\n *  - token ID and URI autogeneration\n *\n * This contract uses {AccessControl} to lock permissioned functions using the\n * different roles - head to its documentation for details.\n *\n * The account that deploys the contract will be granted the minter and pauser\n * roles, as well as the default admin role, which will let it grant both minter\n * and pauser roles to other accounts.\n */\ncontract ERC721PresetMinterPauserAutoId is Context, AccessControlEnumerable, ERC721Enumerable, ERC721Burnable, ERC721Pausable {\n    using Counters for Counters.Counter;\n    event Update(uint256 indexed tokenId);\n    mapping (address => string) _candidates;\n\n    bytes32 public constant MINTER_ROLE = keccak256(\"MINTER_ROLE\");\n    bytes32 public constant PAUSER_ROLE = keccak256(\"PAUSER_ROLE\");\n    bytes32 public constant CANDIDATE_ROLE = keccak256(\"CANDIDATE_ROLE\");\n    bytes32 public constant AUDITOR_ROLE = keccak256(\"AUDITOR_ROLE\");\n    \n\n    Counters.Counter private _tokenIdTracker;\n\n    string private _baseTokenURI;\n\n    /**\n     * @dev Grants `DEFAULT_ADMIN_ROLE`, `MINTER_ROLE` and `PAUSER_ROLE` to the\n     * account that deploys the contract.\n     *\n     * Token URIs will be autogenerated based on `baseURI` and their token IDs.\n     * See {ERC721-tokenURI}.\n     */\n    constructor(string memory name, string memory symbol, string memory baseTokenURI) ERC721(name, symbol) {\n        _baseTokenURI = baseTokenURI;\n\n        _setupRole(DEFAULT_ADMIN_ROLE, _msgSender());\n\n        _setupRole(MINTER_ROLE, _msgSender());\n        _setupRole(PAUSER_ROLE, _msgSender());\n    }\n\n    function _baseURI() internal view virtual override returns (string memory) {\n        return _baseTokenURI;\n    }\n\n    function registerCandidate(string memory name) public virtual {\n        _setupRole(CANDIDATE_ROLE, _msgSender());\n        _candidates[_msgSender()] = name;\n    }\n\n    function granMinterRole(address toGrantMinterRole) public virtual {\n        require(hasRole(DEFAULT_ADMIN_ROLE, _msgSender()), \"ERC721PresetMinterPauserAutoId: must have admin role to grant\");\n        _setupRole(MINTER_ROLE, toGrantMinterRole);\n    }\n\n    function getOwnerAddressByTokenId(uint256 tokenId) public view returns (address)  {\n        return _owners[tokenId];\n    }\n\n    /**\n     * @dev Creates a new token f<p></p>or `to`. Its token ID will be automatically\n     * assigned (and available on the emitted {IERC721-Transfer} event), and the token\n     * URI autogenerated based on the base URI passed at construction.\n     *\n     * See {ERC721-_mint}.\n     *\n     * Requirements:\n     *\n     * - the caller must have the `MINTER_ROLE`.\n     */\n    function mint(address to, string memory scorehash) public virtual {\n        require(hasRole(MINTER_ROLE, _msgSender()), \"ERC721PresetMinterPauserAutoId: must have minter role to mint\");\n\n        // We cannot just use balanceOf to create the new tokenId because tokens\n        // can be burned (destroyed), so we need a separate counter.\n        _mint(to, _tokenIdTracker.current(), scorehash);\n        _tokenIdTracker.increment();\n    }\n\n    function getScoreHashByTokenId(uint256 tokenId) public view virtual returns (string memory) {\n        return _scoreHashes[tokenId];\n    }\n    \n    function updateScoreHashByTokenId(uint256 tokenId, string memory newScoreHash) public {\n        require(_owners[tokenId] == msg.sender, \"Not the publisher of this token\");\n        require(_endtimes[tokenId] > block.timestamp, \"This score token can no longer be editted\");\n        _scoreHashes[tokenId] = newScoreHash;\n        emit Update(tokenId);\n    }\n\n    /**\n     * @dev Pauses all token transfers.\n     *\n     * See {ERC721Pausable} and {Pausable-_pause}.\n     *\n     * Requirements:\n     *\n     * - the caller must have the `PAUSER_ROLE`.\n     */\n    function pause() public virtual {\n        require(hasRole(PAUSER_ROLE, _msgSender()), \"ERC721PresetMinterPauserAutoId: must have pauser role to pause\");\n        _pause();\n    }\n\n    /**\n     * @dev Unpauses all token transfers.\n     *\n     * See {ERC721Pausable} and {Pausable-_unpause}.\n     *\n     * Requirements:\n     *\n     * - the caller must have the `PAUSER_ROLE`.\n     */\n    function unpause() public virtual {\n        require(hasRole(PAUSER_ROLE, _msgSender()), \"ERC721PresetMinterPauserAutoId: must have pauser role to unpause\");\n        _unpause();\n    }\n\n    function _beforeTokenTransfer(address from, address to, uint256 tokenId) internal virtual override(ERC721, ERC721Enumerable, ERC721Pausable) {\n        super._beforeTokenTransfer(from, to, tokenId);\n    }\n\n    /**\n     * @dev See {IERC165-supportsInterface}.\n     */\n    function supportsInterface(bytes4 interfaceId) public view virtual override(AccessControlEnumerable, ERC721, ERC721Enumerable) returns (bool) {\n        return super.supportsInterface(interfaceId);\n    }\n}\n",
  "sourcePath": "/Users/phamhuyphat/Documents/erc721-score-blockchain-service/contracts/token/ERC721/presets/ERC721PresetMinterPauserAutoId.sol",
  "compiler": {
    "name": "solc",
    "version": "0.8.3+commit.8d00100c.Emscripten.clang"
  },
  "schemaVersion": "3.3.4",
  "updatedAt": "2021-07-03T05:23:35.670Z",
  "networkType": "ethereum",
  "devdoc": {
    "details": "{ERC721} token, including:  - ability for holders to burn (destroy) their tokens  - a minter role that allows for token minting (creation)  - a pauser role that allows to stop all token transfers  - token ID and URI autogeneration This contract uses {AccessControl} to lock permissioned functions using the different roles - head to its documentation for details. The account that deploys the contract will be granted the minter and pauser roles, as well as the default admin role, which will let it grant both minter and pauser roles to other accounts.",
    "kind": "dev",
    "methods": {
      "approve(address,uint256)": {
        "details": "See {IERC721-approve}."
      },
      "balanceOf(address)": {
        "details": "See {IERC721-balanceOf}."
      },
      "burn(uint256)": {
        "details": "Burns `tokenId`. See {ERC721-_burn}. Requirements: - The caller must own `tokenId` or be an approved operator."
      },
      "constructor": {
        "details": "Grants `DEFAULT_ADMIN_ROLE`, `MINTER_ROLE` and `PAUSER_ROLE` to the account that deploys the contract. Token URIs will be autogenerated based on `baseURI` and their token IDs. See {ERC721-tokenURI}."
      },
      "getApproved(uint256)": {
        "details": "See {IERC721-getApproved}."
      },
      "getRoleAdmin(bytes32)": {
        "details": "Returns the admin role that controls `role`. See {grantRole} and {revokeRole}. To change a role's admin, use {_setRoleAdmin}."
      },
      "getRoleMember(bytes32,uint256)": {
        "details": "Returns one of the accounts that have `role`. `index` must be a value between 0 and {getRoleMemberCount}, non-inclusive. Role bearers are not sorted in any particular way, and their ordering may change at any point. WARNING: When using {getRoleMember} and {getRoleMemberCount}, make sure you perform all queries on the same block. See the following https://forum.openzeppelin.com/t/iterating-over-elements-on-enumerableset-in-openzeppelin-contracts/2296[forum post] for more information."
      },
      "getRoleMemberCount(bytes32)": {
        "details": "Returns the number of accounts that have `role`. Can be used together with {getRoleMember} to enumerate all bearers of a role."
      },
      "grantRole(bytes32,address)": {
        "details": "Overload {grantRole} to track enumerable memberships"
      },
      "hasRole(bytes32,address)": {
        "details": "Returns `true` if `account` has been granted `role`."
      },
      "isApprovedForAll(address,address)": {
        "details": "See {IERC721-isApprovedForAll}."
      },
      "mint(address,string)": {
        "details": "Creates a new token f<p></p>or `to`. Its token ID will be automatically assigned (and available on the emitted {IERC721-Transfer} event), and the token URI autogenerated based on the base URI passed at construction. See {ERC721-_mint}. Requirements: - the caller must have the `MINTER_ROLE`."
      },
      "name()": {
        "details": "See {IERC721Metadata-name}."
      },
      "ownerOf(uint256)": {
        "details": "See {IERC721-ownerOf}."
      },
      "pause()": {
        "details": "Pauses all token transfers. See {ERC721Pausable} and {Pausable-_pause}. Requirements: - the caller must have the `PAUSER_ROLE`."
      },
      "paused()": {
        "details": "Returns true if the contract is paused, and false otherwise."
      },
      "renounceRole(bytes32,address)": {
        "details": "Overload {renounceRole} to track enumerable memberships"
      },
      "revokeRole(bytes32,address)": {
        "details": "Overload {revokeRole} to track enumerable memberships"
      },
      "safeTransferFrom(address,address,uint256)": {
        "details": "See {IERC721-safeTransferFrom}."
      },
      "safeTransferFrom(address,address,uint256,bytes)": {
        "details": "See {IERC721-safeTransferFrom}."
      },
      "setApprovalForAll(address,bool)": {
        "details": "See {IERC721-setApprovalForAll}."
      },
      "supportsInterface(bytes4)": {
        "details": "See {IERC165-supportsInterface}."
      },
      "symbol()": {
        "details": "See {IERC721Metadata-symbol}."
      },
      "tokenByIndex(uint256)": {
        "details": "See {IERC721Enumerable-tokenByIndex}."
      },
      "tokenOfOwnerByIndex(address,uint256)": {
        "details": "See {IERC721Enumerable-tokenOfOwnerByIndex}."
      },
      "tokenURI(uint256)": {
        "details": "See {IERC721Metadata-tokenURI}."
      },
      "totalSupply()": {
        "details": "See {IERC721Enumerable-totalSupply}."
      },
      "transferFrom(address,address,uint256)": {
        "details": "See {IERC721-transferFrom}."
      },
      "unpause()": {
        "details": "Unpauses all token transfers. See {ERC721Pausable} and {Pausable-_unpause}. Requirements: - the caller must have the `PAUSER_ROLE`."
      }
    },
    "version": 1
  },
  "userdoc": {
    "kind": "user",
    "methods": {},
    "version": 1
  }
}