{
  "contractName": "ERC721PresetMinterPauserAutoId",
  "abi": [
    {
      "inputs": [
        {
          "internalType": "string",
          "name": "name",
          "type": "string"
        },
        {
          "internalType": "string",
          "name": "symbol",
          "type": "string"
        },
        {
          "internalType": "string",
          "name": "baseTokenURI",
          "type": "string"
        }
      ],
      "stateMutability": "nonpayable",
      "type": "constructor"
    },
    {
      "anonymous": false,
      "inputs": [
        {
          "indexed": true,
          "internalType": "address",
          "name": "owner",
          "type": "address"
        },
        {
          "indexed": true,
          "internalType": "address",
          "name": "approved",
          "type": "address"
        },
        {
          "indexed": true,
          "internalType": "uint256",
          "name": "tokenId",
          "type": "uint256"
        }
      ],
      "name": "Approval",
      "type": "event"
    },
    {
      "anonymous": false,
      "inputs": [
        {
          "indexed": true,
          "internalType": "address",
          "name": "owner",
          "type": "address"
        },
        {
          "indexed": true,
          "internalType": "address",
          "name": "operator",
          "type": "address"
        },
        {
          "indexed": false,
          "internalType": "bool",
          "name": "approved",
          "type": "bool"
        }
      ],
      "name": "ApprovalForAll",
      "type": "event"
    },
    {
      "anonymous": false,
      "inputs": [
        {
          "indexed": false,
          "internalType": "address",
          "name": "account",
          "type": "address"
        }
      ],
      "name": "Paused",
      "type": "event"
    },
    {
      "anonymous": false,
      "inputs": [
        {
          "indexed": true,
          "internalType": "bytes32",
          "name": "role",
          "type": "bytes32"
        },
        {
          "indexed": true,
          "internalType": "bytes32",
          "name": "previousAdminRole",
          "type": "bytes32"
        },
        {
          "indexed": true,
          "internalType": "bytes32",
          "name": "newAdminRole",
          "type": "bytes32"
        }
      ],
      "name": "RoleAdminChanged",
      "type": "event"
    },
    {
      "anonymous": false,
      "inputs": [
        {
          "indexed": true,
          "internalType": "bytes32",
          "name": "role",
          "type": "bytes32"
        },
        {
          "indexed": true,
          "internalType": "address",
          "name": "account",
          "type": "address"
        },
        {
          "indexed": true,
          "internalType": "address",
          "name": "sender",
          "type": "address"
        }
      ],
      "name": "RoleGranted",
      "type": "event"
    },
    {
      "anonymous": false,
      "inputs": [
        {
          "indexed": true,
          "internalType": "bytes32",
          "name": "role",
          "type": "bytes32"
        },
        {
          "indexed": true,
          "internalType": "address",
          "name": "account",
          "type": "address"
        },
        {
          "indexed": true,
          "internalType": "address",
          "name": "sender",
          "type": "address"
        }
      ],
      "name": "RoleRevoked",
      "type": "event"
    },
    {
      "anonymous": false,
      "inputs": [
        {
          "indexed": true,
          "internalType": "address",
          "name": "from",
          "type": "address"
        },
        {
          "indexed": true,
          "internalType": "address",
          "name": "to",
          "type": "address"
        },
        {
          "indexed": true,
          "internalType": "uint256",
          "name": "tokenId",
          "type": "uint256"
        }
      ],
      "name": "Transfer",
      "type": "event"
    },
    {
      "anonymous": false,
      "inputs": [
        {
          "indexed": false,
          "internalType": "address",
          "name": "account",
          "type": "address"
        }
      ],
      "name": "Unpaused",
      "type": "event"
    },
    {
      "anonymous": false,
      "inputs": [
        {
          "indexed": true,
          "internalType": "uint256",
          "name": "tokenId",
          "type": "uint256"
        }
      ],
      "name": "Update",
      "type": "event"
    },
    {
      "inputs": [],
      "name": "AUDITOR_ROLE",
      "outputs": [
        {
          "internalType": "bytes32",
          "name": "",
          "type": "bytes32"
        }
      ],
      "stateMutability": "view",
      "type": "function",
      "constant": true
    },
    {
      "inputs": [],
      "name": "CANDIDATE_ROLE",
      "outputs": [
        {
          "internalType": "bytes32",
          "name": "",
          "type": "bytes32"
        }
      ],
      "stateMutability": "view",
      "type": "function",
      "constant": true
    },
    {
      "inputs": [],
      "name": "DEFAULT_ADMIN_ROLE",
      "outputs": [
        {
          "internalType": "bytes32",
          "name": "",
          "type": "bytes32"
        }
      ],
      "stateMutability": "view",
      "type": "function",
      "constant": true
    },
    {
      "inputs": [],
      "name": "MINTER_ROLE",
      "outputs": [
        {
          "internalType": "bytes32",
          "name": "",
          "type": "bytes32"
        }
      ],
      "stateMutability": "view",
      "type": "function",
      "constant": true
    },
    {
      "inputs": [],
      "name": "PAUSER_ROLE",
      "outputs": [
        {
          "internalType": "bytes32",
          "name": "",
          "type": "bytes32"
        }
      ],
      "stateMutability": "view",
      "type": "function",
      "constant": true
    },
    {
      "inputs": [
        {
          "internalType": "address",
          "name": "to",
          "type": "address"
        },
        {
          "internalType": "uint256",
          "name": "tokenId",
          "type": "uint256"
        }
      ],
      "name": "approve",
      "outputs": [],
      "stateMutability": "nonpayable",
      "type": "function"
    },
    {
      "inputs": [
        {
          "internalType": "address",
          "name": "owner",
          "type": "address"
        }
      ],
      "name": "balanceOf",
      "outputs": [
        {
          "internalType": "uint256",
          "name": "",
          "type": "uint256"
        }
      ],
      "stateMutability": "view",
      "type": "function",
      "constant": true
    },
    {
      "inputs": [
        {
          "internalType": "uint256",
          "name": "tokenId",
          "type": "uint256"
        }
      ],
      "name": "burn",
      "outputs": [],
      "stateMutability": "nonpayable",
      "type": "function"
    },
    {
      "inputs": [
        {
          "internalType": "uint256",
          "name": "tokenId",
          "type": "uint256"
        }
      ],
      "name": "getApproved",
      "outputs": [
        {
          "internalType": "address",
          "name": "",
          "type": "address"
        }
      ],
      "stateMutability": "view",
      "type": "function",
      "constant": true
    },
    {
      "inputs": [
        {
          "internalType": "bytes32",
          "name": "role",
          "type": "bytes32"
        }
      ],
      "name": "getRoleAdmin",
      "outputs": [
        {
          "internalType": "bytes32",
          "name": "",
          "type": "bytes32"
        }
      ],
      "stateMutability": "view",
      "type": "function",
      "constant": true
    },
    {
      "inputs": [
        {
          "internalType": "bytes32",
          "name": "role",
          "type": "bytes32"
        },
        {
          "internalType": "uint256",
          "name": "index",
          "type": "uint256"
        }
      ],
      "name": "getRoleMember",
      "outputs": [
        {
          "internalType": "address",
          "name": "",
          "type": "address"
        }
      ],
      "stateMutability": "view",
      "type": "function",
      "constant": true
    },
    {
      "inputs": [
        {
          "internalType": "bytes32",
          "name": "role",
          "type": "bytes32"
        }
      ],
      "name": "getRoleMemberCount",
      "outputs": [
        {
          "internalType": "uint256",
          "name": "",
          "type": "uint256"
        }
      ],
      "stateMutability": "view",
      "type": "function",
      "constant": true
    },
    {
      "inputs": [
        {
          "internalType": "bytes32",
          "name": "role",
          "type": "bytes32"
        },
        {
          "internalType": "address",
          "name": "account",
          "type": "address"
        }
      ],
      "name": "grantRole",
      "outputs": [],
      "stateMutability": "nonpayable",
      "type": "function"
    },
    {
      "inputs": [
        {
          "internalType": "bytes32",
          "name": "role",
          "type": "bytes32"
        },
        {
          "internalType": "address",
          "name": "account",
          "type": "address"
        }
      ],
      "name": "hasRole",
      "outputs": [
        {
          "internalType": "bool",
          "name": "",
          "type": "bool"
        }
      ],
      "stateMutability": "view",
      "type": "function",
      "constant": true
    },
    {
      "inputs": [
        {
          "internalType": "address",
          "name": "owner",
          "type": "address"
        },
        {
          "internalType": "address",
          "name": "operator",
          "type": "address"
        }
      ],
      "name": "isApprovedForAll",
      "outputs": [
        {
          "internalType": "bool",
          "name": "",
          "type": "bool"
        }
      ],
      "stateMutability": "view",
      "type": "function",
      "constant": true
    },
    {
      "inputs": [],
      "name": "name",
      "outputs": [
        {
          "internalType": "string",
          "name": "",
          "type": "string"
        }
      ],
      "stateMutability": "view",
      "type": "function",
      "constant": true
    },
    {
      "inputs": [
        {
          "internalType": "uint256",
          "name": "tokenId",
          "type": "uint256"
        }
      ],
      "name": "ownerOf",
      "outputs": [
        {
          "internalType": "address",
          "name": "",
          "type": "address"
        }
      ],
      "stateMutability": "view",
      "type": "function",
      "constant": true
    },
    {
      "inputs": [],
      "name": "paused",
      "outputs": [
        {
          "internalType": "bool",
          "name": "",
          "type": "bool"
        }
      ],
      "stateMutability": "view",
      "type": "function",
      "constant": true
    },
    {
      "inputs": [
        {
          "internalType": "bytes32",
          "name": "role",
          "type": "bytes32"
        },
        {
          "internalType": "address",
          "name": "account",
          "type": "address"
        }
      ],
      "name": "renounceRole",
      "outputs": [],
      "stateMutability": "nonpayable",
      "type": "function"
    },
    {
      "inputs": [
        {
          "internalType": "bytes32",
          "name": "role",
          "type": "bytes32"
        },
        {
          "internalType": "address",
          "name": "account",
          "type": "address"
        }
      ],
      "name": "revokeRole",
      "outputs": [],
      "stateMutability": "nonpayable",
      "type": "function"
    },
    {
      "inputs": [
        {
          "internalType": "address",
          "name": "from",
          "type": "address"
        },
        {
          "internalType": "address",
          "name": "to",
          "type": "address"
        },
        {
          "internalType": "uint256",
          "name": "tokenId",
          "type": "uint256"
        }
      ],
      "name": "safeTransferFrom",
      "outputs": [],
      "stateMutability": "nonpayable",
      "type": "function"
    },
    {
      "inputs": [
        {
          "internalType": "address",
          "name": "from",
          "type": "address"
        },
        {
          "internalType": "address",
          "name": "to",
          "type": "address"
        },
        {
          "internalType": "uint256",
          "name": "tokenId",
          "type": "uint256"
        },
        {
          "internalType": "bytes",
          "name": "_data",
          "type": "bytes"
        }
      ],
      "name": "safeTransferFrom",
      "outputs": [],
      "stateMutability": "nonpayable",
      "type": "function"
    },
    {
      "inputs": [
        {
          "internalType": "address",
          "name": "operator",
          "type": "address"
        },
        {
          "internalType": "bool",
          "name": "approved",
          "type": "bool"
        }
      ],
      "name": "setApprovalForAll",
      "outputs": [],
      "stateMutability": "nonpayable",
      "type": "function"
    },
    {
      "inputs": [],
      "name": "symbol",
      "outputs": [
        {
          "internalType": "string",
          "name": "",
          "type": "string"
        }
      ],
      "stateMutability": "view",
      "type": "function",
      "constant": true
    },
    {
      "inputs": [
        {
          "internalType": "uint256",
          "name": "index",
          "type": "uint256"
        }
      ],
      "name": "tokenByIndex",
      "outputs": [
        {
          "internalType": "uint256",
          "name": "",
          "type": "uint256"
        }
      ],
      "stateMutability": "view",
      "type": "function",
      "constant": true
    },
    {
      "inputs": [
        {
          "internalType": "address",
          "name": "owner",
          "type": "address"
        },
        {
          "internalType": "uint256",
          "name": "index",
          "type": "uint256"
        }
      ],
      "name": "tokenOfOwnerByIndex",
      "outputs": [
        {
          "internalType": "uint256",
          "name": "",
          "type": "uint256"
        }
      ],
      "stateMutability": "view",
      "type": "function",
      "constant": true
    },
    {
      "inputs": [
        {
          "internalType": "uint256",
          "name": "tokenId",
          "type": "uint256"
        }
      ],
      "name": "tokenURI",
      "outputs": [
        {
          "internalType": "string",
          "name": "",
          "type": "string"
        }
      ],
      "stateMutability": "view",
      "type": "function",
      "constant": true
    },
    {
      "inputs": [],
      "name": "totalSupply",
      "outputs": [
        {
          "internalType": "uint256",
          "name": "",
          "type": "uint256"
        }
      ],
      "stateMutability": "view",
      "type": "function",
      "constant": true
    },
    {
      "inputs": [
        {
          "internalType": "address",
          "name": "from",
          "type": "address"
        },
        {
          "internalType": "address",
          "name": "to",
          "type": "address"
        },
        {
          "internalType": "uint256",
          "name": "tokenId",
          "type": "uint256"
        }
      ],
      "name": "transferFrom",
      "outputs": [],
      "stateMutability": "nonpayable",
      "type": "function"
    },
    {
      "inputs": [
        {
          "internalType": "string",
          "name": "name",
          "type": "string"
        }
      ],
      "name": "registerCandidate",
      "outputs": [],
      "stateMutability": "nonpayable",
      "type": "function"
    },
    {
      "inputs": [
        {
          "internalType": "address",
          "name": "toGrantMinterRole",
          "type": "address"
        }
      ],
      "name": "granMinterRole",
      "outputs": [],
      "stateMutability": "nonpayable",
      "type": "function"
    },
    {
      "inputs": [
        {
          "internalType": "uint256",
          "name": "tokenId",
          "type": "uint256"
        }
      ],
      "name": "getOwnerAddressByTokenId",
      "outputs": [
        {
          "internalType": "address",
          "name": "",
          "type": "address"
        }
      ],
      "stateMutability": "view",
      "type": "function",
      "constant": true
    },
    {
      "inputs": [
        {
          "internalType": "address",
          "name": "to",
          "type": "address"
        },
        {
          "internalType": "string",
          "name": "scorehash",
          "type": "string"
        }
      ],
      "name": "mint",
      "outputs": [],
      "stateMutability": "nonpayable",
      "type": "function"
    },
    {
      "inputs": [
        {
          "internalType": "uint256",
          "name": "tokenId",
          "type": "uint256"
        }
      ],
      "name": "getScoreHashByTokenId",
      "outputs": [
        {
          "internalType": "string",
          "name": "",
          "type": "string"
        }
      ],
      "stateMutability": "view",
      "type": "function",
      "constant": true
    },
    {
      "inputs": [
        {
          "internalType": "uint256",
          "name": "tokenId",
          "type": "uint256"
        },
        {
          "internalType": "string",
          "name": "newScoreHash",
          "type": "string"
        }
      ],
      "name": "updateScoreHashByTokenId",
      "outputs": [],
      "stateMutability": "nonpayable",
      "type": "function"
    },
    {
      "inputs": [],
      "name": "pause",
      "outputs": [],
      "stateMutability": "nonpayable",
      "type": "function"
    },
    {
      "inputs": [],
      "name": "unpause",
      "outputs": [],
      "stateMutability": "nonpayable",
      "type": "function"
    },
    {
      "inputs": [
        {
          "internalType": "bytes4",
          "name": "interfaceId",
          "type": "bytes4"
        }
      ],
      "name": "supportsInterface",
      "outputs": [
        {
          "internalType": "bool",
          "name": "",
          "type": "bool"
        }
      ],
      "stateMutability": "view",
      "type": "function",
      "constant": true
    }
  ],
  "bytecode": "0x60806040523480156200001157600080fd5b5060405162005c8a38038062005c8a833981810160405281019062000037919062000508565b8282816002908051906020019062000051929190620003e6565b5080600390805190602001906200006a929190620003e6565b5050506000600e60006101000a81548160ff0219169083151502179055508060119080519060200190620000a0929190620003e6565b50620000c56000801b620000b96200015060201b60201c565b6200015860201b60201c565b620001067f9f2df0fed2c77648de5860a4cc508cd0818c85b8b8a1ab4ceeef8d981c8956a6620000fa6200015060201b60201c565b6200015860201b60201c565b620001477f65d7a28e3265b37a6474929f336521b332c1681b933f6cb9f3376673440d862a6200013b6200015060201b60201c565b6200015860201b60201c565b50505062000719565b600033905090565b6200016f8282620001a060201b620018831760201c565b6200019b8160016000858152602001908152602001600020620001b660201b620018911790919060201c565b505050565b620001b28282620001ee60201b60201c565b5050565b6000620001e6836000018373ffffffffffffffffffffffffffffffffffffffff1660001b620002df60201b60201c565b905092915050565b6200020082826200035960201b60201c565b620002db57600160008084815260200190815260200160002060000160008373ffffffffffffffffffffffffffffffffffffffff1673ffffffffffffffffffffffffffffffffffffffff16815260200190815260200160002060006101000a81548160ff021916908315150217905550620002806200015060201b60201c565b73ffffffffffffffffffffffffffffffffffffffff168173ffffffffffffffffffffffffffffffffffffffff16837f2f8788117e7eff1d82e926ec794901d17c78024a50270940304540a733656f0d60405160405180910390a45b5050565b6000620002f38383620003c360201b60201c565b6200034e57826000018290806001815401808255809150506001900390600052602060002001600090919091909150558260000180549050836001016000848152602001908152602001600020819055506001905062000353565b600090505b92915050565b600080600084815260200190815260200160002060000160008373ffffffffffffffffffffffffffffffffffffffff1673ffffffffffffffffffffffffffffffffffffffff16815260200190815260200160002060009054906101000a900460ff16905092915050565b600080836001016000848152602001908152602001600020541415905092915050565b828054620003f4906200063e565b90600052602060002090601f01602090048101928262000418576000855562000464565b82601f106200043357805160ff191683800117855562000464565b8280016001018555821562000464579182015b828111156200046357825182559160200191906001019062000446565b5b50905062000473919062000477565b5090565b5b808211156200049257600081600090555060010162000478565b5090565b6000620004ad620004a784620005d2565b620005a9565b905082815260208101848484011115620004c657600080fd5b620004d384828562000608565b509392505050565b600082601f830112620004ed57600080fd5b8151620004ff84826020860162000496565b91505092915050565b6000806000606084860312156200051e57600080fd5b600084015167ffffffffffffffff8111156200053957600080fd5b6200054786828701620004db565b935050602084015167ffffffffffffffff8111156200056557600080fd5b6200057386828701620004db565b925050604084015167ffffffffffffffff8111156200059157600080fd5b6200059f86828701620004db565b9150509250925092565b6000620005b5620005c8565b9050620005c3828262000674565b919050565b6000604051905090565b600067ffffffffffffffff821115620005f057620005ef620006d9565b5b620005fb8262000708565b9050602081019050919050565b60005b83811015620006285780820151818401526020810190506200060b565b8381111562000638576000848401525b50505050565b600060028204905060018216806200065757607f821691505b602082108114156200066e576200066d620006aa565b5b50919050565b6200067f8262000708565b810181811067ffffffffffffffff82111715620006a157620006a0620006d9565b5b80604052505050565b7f4e487b7100000000000000000000000000000000000000000000000000000000600052602260045260246000fd5b7f4e487b7100000000000000000000000000000000000000000000000000000000600052604160045260246000fd5b6000601f19601f8301169050919050565b61556180620007296000396000f3fe608060405234801561001057600080fd5b50600436106102325760003560e01c806370a0823111610130578063b601ce24116100b8578063d0def5211161007c578063d0def521146106c1578063d5391393146106dd578063d547741f146106fb578063e63ab1e914610717578063e985e9c51461073557610232565b8063b601ce24146105f9578063b6227a6314610629578063b88d4fde14610645578063c87b56dd14610661578063ca15c8731461069157610232565b806395d89b41116100ff57806395d89b411461056957806398f63235146105875780639eb88db6146105a3578063a217fddf146105bf578063a22cb465146105dd57610232565b806370a08231146104cf5780638456cb59146104ff5780639010d07c1461050957806391d148541461053957610232565b806336568abe116101be5780635c975abb116101825780635c975abb14610415578063625339a5146104335780636352211e146104515780636779288f146104815780636e1d616e146104b157610232565b806336568abe146103875780633f4ba83a146103a357806342842e0e146103ad57806342966c68146103c95780634f6ccce7146103e557610232565b806318160ddd1161020557806318160ddd146102d157806323b872dd146102ef578063248a9ca31461030b5780632f2ff15d1461033b5780632f745c591461035757610232565b806301ffc9a71461023757806306fdde0314610267578063081812fc14610285578063095ea7b3146102b5575b600080fd5b610251600480360381019061024c9190613bbe565b610765565b60405161025e9190614368565b60405180910390f35b61026f610777565b60405161027c919061439e565b60405180910390f35b61029f600480360381019061029a9190613c51565b610809565b6040516102ac9190614301565b60405180910390f35b6102cf60048036038101906102ca9190613ae1565b61088e565b005b6102d96109a6565b6040516102e69190614780565b60405180910390f35b61030960048036038101906103049190613987565b6109b3565b005b61032560048036038101906103209190613b1d565b610a13565b6040516103329190614383565b60405180910390f35b61035560048036038101906103509190613b46565b610a32565b005b610371600480360381019061036c9190613ae1565b610a66565b60405161037e9190614780565b60405180910390f35b6103a1600480360381019061039c9190613b46565b610b0b565b005b6103ab610b3f565b005b6103c760048036038101906103c29190613987565b610bb9565b005b6103e360048036038101906103de9190613c51565b610bd9565b005b6103ff60048036038101906103fa9190613c51565b610c35565b60405161040c9190614780565b60405180910390f35b61041d610ccc565b60405161042a9190614368565b60405180910390f35b61043b610ce3565b6040516104489190614383565b60405180910390f35b61046b60048036038101906104669190613c51565b610d07565b6040516104789190614301565b60405180910390f35b61049b60048036038101906104969190613c51565b610db9565b6040516104a8919061439e565b60405180910390f35b6104b9610e5e565b6040516104c69190614383565b60405180910390f35b6104e960048036038101906104e49190613922565b610e82565b6040516104f69190614780565b60405180910390f35b610507610f3a565b005b610523600480360381019061051e9190613b82565b610fb4565b6040516105309190614301565b60405180910390f35b610553600480360381019061054e9190613b46565b610fe3565b6040516105609190614368565b60405180910390f35b61057161104d565b60405161057e919061439e565b60405180910390f35b6105a1600480360381019061059c9190613922565b6110df565b005b6105bd60048036038101906105b89190613c10565b61115f565b005b6105c76112a0565b6040516105d49190614383565b60405180910390f35b6105f760048036038101906105f29190613a51565b6112a7565b005b610613600480360381019061060e9190613c51565b611428565b6040516106209190614301565b60405180910390f35b610643600480360381019061063e9190613c7a565b611465565b005b61065f600480360381019061065a91906139d6565b6115b4565b005b61067b60048036038101906106769190613c51565b611616565b604051610688919061439e565b60405180910390f35b6106ab60048036038101906106a69190613b1d565b6116bd565b6040516106b89190614780565b60405180910390f35b6106db60048036038101906106d69190613a8d565b6116e1565b005b6106e5611773565b6040516106f29190614383565b60405180910390f35b61071560048036038101906107109190613b46565b611797565b005b61071f6117cb565b60405161072c9190614383565b60405180910390f35b61074f600480360381019061074a919061394b565b6117ef565b60405161075c9190614368565b60405180910390f35b6000610770826118c1565b9050919050565b60606002805461078690614a84565b80601f01602080910402602001604051908101604052809291908181526020018280546107b290614a84565b80156107ff5780601f106107d4576101008083540402835291602001916107ff565b820191906000526020600020905b8154815290600101906020018083116107e257829003601f168201915b5050505050905090565b60006108148261193b565b610853576040517f08c379a000000000000000000000000000000000000000000000000000000000815260040161084a90614600565b60405180910390fd5b6008600083815260200190815260200160002060009054906101000a900473ffffffffffffffffffffffffffffffffffffffff169050919050565b600061089982610d07565b90508073ffffffffffffffffffffffffffffffffffffffff168373ffffffffffffffffffffffffffffffffffffffff16141561090a576040517f08c379a000000000000000000000000000000000000000000000000000000000815260040161090190614680565b60405180910390fd5b8073ffffffffffffffffffffffffffffffffffffffff166109296119a7565b73ffffffffffffffffffffffffffffffffffffffff1614806109585750610957816109526119a7565b6117ef565b5b610997576040517f08c379a000000000000000000000000000000000000000000000000000000000815260040161098e90614580565b60405180910390fd5b6109a183836119af565b505050565b6000600c80549050905090565b6109c46109be6119a7565b82611a68565b610a03576040517f08c379a00000000000000000000000000000000000000000000000000000000081526004016109fa906146a0565b60405180910390fd5b610a0e838383611b46565b505050565b6000806000838152602001908152602001600020600101549050919050565b610a3c8282611da2565b610a61816001600085815260200190815260200160002061189190919063ffffffff16565b505050565b6000610a7183610e82565b8210610ab2576040517f08c379a0000000000000000000000000000000000000000000000000000000008152600401610aa990614460565b60405180910390fd5b600a60008473ffffffffffffffffffffffffffffffffffffffff1673ffffffffffffffffffffffffffffffffffffffff168152602001908152602001600020600083815260200190815260200160002054905092915050565b610b158282611dcb565b610b3a8160016000858152602001908152602001600020611e4e90919063ffffffff16565b505050565b610b707f65d7a28e3265b37a6474929f336521b332c1681b933f6cb9f3376673440d862a610b6b6119a7565b610fe3565b610baf576040517f08c379a0000000000000000000000000000000000000000000000000000000008152600401610ba690614740565b60405180910390fd5b610bb7611e7e565b565b610bd4838383604051806020016040528060008152506115b4565b505050565b610bea610be46119a7565b82611a68565b610c29576040517f08c379a0000000000000000000000000000000000000000000000000000000008152600401610c2090614720565b60405180910390fd5b610c3281611f20565b50565b6000610c3f6109a6565b8210610c80576040517f08c379a0000000000000000000000000000000000000000000000000000000008152600401610c77906146c0565b60405180910390fd5b600c8281548110610cba577f4e487b7100000000000000000000000000000000000000000000000000000000600052603260045260246000fd5b90600052602060002001549050919050565b6000600e60009054906101000a900460ff16905090565b7f262ba5fdd1dad9ccb8241da1a07fd1fd1c160e2ff97efc222645f94f62d5b43a81565b6000806004600084815260200190815260200160002060009054906101000a900473ffffffffffffffffffffffffffffffffffffffff169050600073ffffffffffffffffffffffffffffffffffffffff168173ffffffffffffffffffffffffffffffffffffffff161415610db0576040517f08c379a0000000000000000000000000000000000000000000000000000000008152600401610da7906145c0565b60405180910390fd5b80915050919050565b6060600660008381526020019081526020016000208054610dd990614a84565b80601f0160208091040260200160405190810160405280929190818152602001828054610e0590614a84565b8015610e525780601f10610e2757610100808354040283529160200191610e52565b820191906000526020600020905b815481529060010190602001808311610e3557829003601f168201915b50505050509050919050565b7f59a1c48e5837ad7a7f3dcedcbe129bf3249ec4fbf651fd4f5e2600ead39fe2f581565b60008073ffffffffffffffffffffffffffffffffffffffff168273ffffffffffffffffffffffffffffffffffffffff161415610ef3576040517f08c379a0000000000000000000000000000000000000000000000000000000008152600401610eea906145a0565b60405180910390fd5b600560008373ffffffffffffffffffffffffffffffffffffffff1673ffffffffffffffffffffffffffffffffffffffff168152602001908152602001600020549050919050565b610f6b7f65d7a28e3265b37a6474929f336521b332c1681b933f6cb9f3376673440d862a610f666119a7565b610fe3565b610faa576040517f08c379a0000000000000000000000000000000000000000000000000000000008152600401610fa1906144e0565b60405180910390fd5b610fb2612031565b565b6000610fdb82600160008681526020019081526020016000206120d490919063ffffffff16565b905092915050565b600080600084815260200190815260200160002060000160008373ffffffffffffffffffffffffffffffffffffffff1673ffffffffffffffffffffffffffffffffffffffff16815260200190815260200160002060009054906101000a900460ff16905092915050565b60606003805461105c90614a84565b80601f016020809104026020016040519081016040528092919081815260200182805461108890614a84565b80156110d55780601f106110aa576101008083540402835291602001916110d5565b820191906000526020600020905b8154815290600101906020018083116110b857829003601f168201915b5050505050905090565b6110f36000801b6110ee6119a7565b610fe3565b611132576040517f08c379a000000000000000000000000000000000000000000000000000000000815260040161112990614660565b60405180910390fd5b61115c7f9f2df0fed2c77648de5860a4cc508cd0818c85b8b8a1ab4ceeef8d981c8956a6826120ee565b50565b6040518060200160405280600081525080519060200120600f60006111826119a7565b73ffffffffffffffffffffffffffffffffffffffff1673ffffffffffffffffffffffffffffffffffffffff1681526020019081526020016000206040516111c9919061428c565b604051809103902014611211576040517f08c379a000000000000000000000000000000000000000000000000000000000815260040161120890614440565b60405180910390fd5b6112427f262ba5fdd1dad9ccb8241da1a07fd1fd1c160e2ff97efc222645f94f62d5b43a61123d6119a7565b6120ee565b80600f600061124f6119a7565b73ffffffffffffffffffffffffffffffffffffffff1673ffffffffffffffffffffffffffffffffffffffff168152602001908152602001600020908051906020019061129c929190613731565b5050565b6000801b81565b6112af6119a7565b73ffffffffffffffffffffffffffffffffffffffff168273ffffffffffffffffffffffffffffffffffffffff16141561131d576040517f08c379a000000000000000000000000000000000000000000000000000000000815260040161131490614520565b60405180910390fd5b806009600061132a6119a7565b73ffffffffffffffffffffffffffffffffffffffff1673ffffffffffffffffffffffffffffffffffffffff16815260200190815260200160002060008473ffffffffffffffffffffffffffffffffffffffff1673ffffffffffffffffffffffffffffffffffffffff16815260200190815260200160002060006101000a81548160ff0219169083151502179055508173ffffffffffffffffffffffffffffffffffffffff166113d76119a7565b73ffffffffffffffffffffffffffffffffffffffff167f17307eab39ab6107e8899845ad3d59bd9653f200f220920489ca2b5937696c318360405161141c9190614368565b60405180910390a35050565b60006004600083815260200190815260200160002060009054906101000a900473ffffffffffffffffffffffffffffffffffffffff169050919050565b3373ffffffffffffffffffffffffffffffffffffffff166004600084815260200190815260200160002060009054906101000a900473ffffffffffffffffffffffffffffffffffffffff1673ffffffffffffffffffffffffffffffffffffffff1614611506576040517f08c379a00000000000000000000000000000000000000000000000000000000081526004016114fd906144c0565b60405180910390fd5b4260076000848152602001908152602001600020541161155b576040517f08c379a000000000000000000000000000000000000000000000000000000000815260040161155290614700565b60405180910390fd5b80600660008481526020019081526020016000209080519060200190611582929190613731565b50817f164f7b2ab803097dab5e39f06d2e4f3c3ddc5d4171abbdcc3e76443b8359c7f560405160405180910390a25050565b6115c56115bf6119a7565b83611a68565b611604576040517f08c379a00000000000000000000000000000000000000000000000000000000081526004016115fb906146a0565b60405180910390fd5b61161084848484612122565b50505050565b60606116218261193b565b611660576040517f08c379a000000000000000000000000000000000000000000000000000000000815260040161165790614640565b60405180910390fd5b600061166a61217e565b9050600081511161168a57604051806020016040528060008152506116b5565b8061169484612210565b6040516020016116a59291906142a3565b6040516020818303038152906040525b915050919050565b60006116da600160008481526020019081526020016000206123bd565b9050919050565b6117127f9f2df0fed2c77648de5860a4cc508cd0818c85b8b8a1ab4ceeef8d981c8956a661170d6119a7565b610fe3565b611751576040517f08c379a0000000000000000000000000000000000000000000000000000000008152600401611748906146e0565b60405180910390fd5b6117658261175f60106123d2565b836123e0565b61176f60106125fb565b5050565b7f9f2df0fed2c77648de5860a4cc508cd0818c85b8b8a1ab4ceeef8d981c8956a681565b6117a18282612611565b6117c68160016000858152602001908152602001600020611e4e90919063ffffffff16565b505050565b7f65d7a28e3265b37a6474929f336521b332c1681b933f6cb9f3376673440d862a81565b6000600960008473ffffffffffffffffffffffffffffffffffffffff1673ffffffffffffffffffffffffffffffffffffffff16815260200190815260200160002060008373ffffffffffffffffffffffffffffffffffffffff1673ffffffffffffffffffffffffffffffffffffffff16815260200190815260200160002060009054906101000a900460ff16905092915050565b61188d828261263a565b5050565b60006118b9836000018373ffffffffffffffffffffffffffffffffffffffff1660001b61271a565b905092915050565b60007f780e9d63000000000000000000000000000000000000000000000000000000007bffffffffffffffffffffffffffffffffffffffffffffffffffffffff1916827bffffffffffffffffffffffffffffffffffffffffffffffffffffffff1916148061193457506119338261278a565b5b9050919050565b60008073ffffffffffffffffffffffffffffffffffffffff166004600084815260200190815260200160002060009054906101000a900473ffffffffffffffffffffffffffffffffffffffff1673ffffffffffffffffffffffffffffffffffffffff1614159050919050565b600033905090565b816008600083815260200190815260200160002060006101000a81548173ffffffffffffffffffffffffffffffffffffffff021916908373ffffffffffffffffffffffffffffffffffffffff160217905550808273ffffffffffffffffffffffffffffffffffffffff16611a2283610d07565b73ffffffffffffffffffffffffffffffffffffffff167f8c5be1e5ebec7d5bd14f71427d1e84f3dd0314c0f7b2291e5b200ac8c7c3b92560405160405180910390a45050565b6000611a738261193b565b611ab2576040517f08c379a0000000000000000000000000000000000000000000000000000000008152600401611aa990614540565b60405180910390fd5b6000611abd83610d07565b90508073ffffffffffffffffffffffffffffffffffffffff168473ffffffffffffffffffffffffffffffffffffffff161480611b2c57508373ffffffffffffffffffffffffffffffffffffffff16611b1484610809565b73ffffffffffffffffffffffffffffffffffffffff16145b80611b3d5750611b3c81856117ef565b5b91505092915050565b8273ffffffffffffffffffffffffffffffffffffffff16611b6682610d07565b73ffffffffffffffffffffffffffffffffffffffff1614611bbc576040517f08c379a0000000000000000000000000000000000000000000000000000000008152600401611bb390614620565b60405180910390fd5b600073ffffffffffffffffffffffffffffffffffffffff168273ffffffffffffffffffffffffffffffffffffffff161415611c2c576040517f08c379a0000000000000000000000000000000000000000000000000000000008152600401611c2390614500565b60405180910390fd5b611c3783838361286c565b611c426000826119af565b6001600560008573ffffffffffffffffffffffffffffffffffffffff1673ffffffffffffffffffffffffffffffffffffffff1681526020019081526020016000206000828254611c929190614966565b925050819055506001600560008473ffffffffffffffffffffffffffffffffffffffff1673ffffffffffffffffffffffffffffffffffffffff1681526020019081526020016000206000828254611ce99190614885565b92505081905550816004600083815260200190815260200160002060006101000a81548173ffffffffffffffffffffffffffffffffffffffff021916908373ffffffffffffffffffffffffffffffffffffffff160217905550808273ffffffffffffffffffffffffffffffffffffffff168473ffffffffffffffffffffffffffffffffffffffff167fddf252ad1be2c89b69c2b068fc378daa952ba7f163c4a11628f55a4df523b3ef60405160405180910390a4505050565b611dab82610a13565b611dbc81611db76119a7565b61287c565b611dc6838361263a565b505050565b611dd36119a7565b73ffffffffffffffffffffffffffffffffffffffff168173ffffffffffffffffffffffffffffffffffffffff1614611e40576040517f08c379a0000000000000000000000000000000000000000000000000000000008152600401611e3790614760565b60405180910390fd5b611e4a8282612919565b5050565b6000611e76836000018373ffffffffffffffffffffffffffffffffffffffff1660001b6129fa565b905092915050565b611e86610ccc565b611ec5576040517f08c379a0000000000000000000000000000000000000000000000000000000008152600401611ebc90614420565b60405180910390fd5b6000600e60006101000a81548160ff0219169083151502179055507f5db9ee0a495bf2e6ff9c91a7834c1ba4fdd244a5e8aa4e537bd38aeae4b073aa611f096119a7565b604051611f169190614301565b60405180910390a1565b6000611f2b82610d07565b9050611f398160008461286c565b611f446000836119af565b6001600560008373ffffffffffffffffffffffffffffffffffffffff1673ffffffffffffffffffffffffffffffffffffffff1681526020019081526020016000206000828254611f949190614966565b925050819055506004600083815260200190815260200160002060006101000a81549073ffffffffffffffffffffffffffffffffffffffff021916905581600073ffffffffffffffffffffffffffffffffffffffff168273ffffffffffffffffffffffffffffffffffffffff167fddf252ad1be2c89b69c2b068fc378daa952ba7f163c4a11628f55a4df523b3ef60405160405180910390a45050565b612039610ccc565b15612079576040517f08c379a000000000000000000000000000000000000000000000000000000000815260040161207090614560565b60405180910390fd5b6001600e60006101000a81548160ff0219169083151502179055507f62e78cea01bee320cd4e420270b5ea74000d11b0c9f74754ebdbfc544b05a2586120bd6119a7565b6040516120ca9190614301565b60405180910390a1565b60006120e38360000183612b78565b60001c905092915050565b6120f88282611883565b61211d816001600085815260200190815260200160002061189190919063ffffffff16565b505050565b61212d848484611b46565b61213984848484612c12565b612178576040517f08c379a000000000000000000000000000000000000000000000000000000000815260040161216f90614480565b60405180910390fd5b50505050565b60606011805461218d90614a84565b80601f01602080910402602001604051908101604052809291908181526020018280546121b990614a84565b80156122065780601f106121db57610100808354040283529160200191612206565b820191906000526020600020905b8154815290600101906020018083116121e957829003601f168201915b5050505050905090565b60606000821415612258576040518060400160405280600181526020017f300000000000000000000000000000000000000000000000000000000000000081525090506123b8565b600082905060005b6000821461228a57808061227390614ae7565b915050600a8261228391906148db565b9150612260565b60008167ffffffffffffffff8111156122cc577f4e487b7100000000000000000000000000000000000000000000000000000000600052604160045260246000fd5b6040519080825280601f01601f1916602001820160405280156122fe5781602001600182028036833780820191505090505b5090505b600085146123b1576001826123179190614966565b9150600a856123269190614b30565b60306123329190614885565b60f81b81838151811061236e577f4e487b7100000000000000000000000000000000000000000000000000000000600052603260045260246000fd5b60200101907effffffffffffffffffffffffffffffffffffffffffffffffffffffffffffff1916908160001a905350600a856123aa91906148db565b9450612302565b8093505050505b919050565b60006123cb82600001612da9565b9050919050565b600081600001549050919050565b600073ffffffffffffffffffffffffffffffffffffffff168373ffffffffffffffffffffffffffffffffffffffff161415612450576040517f08c379a0000000000000000000000000000000000000000000000000000000008152600401612447906145e0565b60405180910390fd5b6124598261193b565b15612499576040517f08c379a0000000000000000000000000000000000000000000000000000000008152600401612490906144a0565b60405180910390fd5b6124a56000848461286c565b6001600560008573ffffffffffffffffffffffffffffffffffffffff1673ffffffffffffffffffffffffffffffffffffffff16815260200190815260200160002060008282546124f59190614885565b92505081905550336004600084815260200190815260200160002060006101000a81548173ffffffffffffffffffffffffffffffffffffffff021916908373ffffffffffffffffffffffffffffffffffffffff16021790555080600660008481526020019081526020016000209080519060200190612575929190613731565b506078426125839190614885565b6007600084815260200190815260200160002081905550818373ffffffffffffffffffffffffffffffffffffffff16600073ffffffffffffffffffffffffffffffffffffffff167fddf252ad1be2c89b69c2b068fc378daa952ba7f163c4a11628f55a4df523b3ef60405160405180910390a4505050565b6001816000016000828254019250508190555050565b61261a82610a13565b61262b816126266119a7565b61287c565b6126358383612919565b505050565b6126448282610fe3565b61271657600160008084815260200190815260200160002060000160008373ffffffffffffffffffffffffffffffffffffffff1673ffffffffffffffffffffffffffffffffffffffff16815260200190815260200160002060006101000a81548160ff0219169083151502179055506126bb6119a7565b73ffffffffffffffffffffffffffffffffffffffff168173ffffffffffffffffffffffffffffffffffffffff16837f2f8788117e7eff1d82e926ec794901d17c78024a50270940304540a733656f0d60405160405180910390a45b5050565b60006127268383612dba565b61277f578260000182908060018154018082558091505060019003906000526020600020016000909190919091505582600001805490508360010160008481526020019081526020016000208190555060019050612784565b600090505b92915050565b60007f80ac58cd000000000000000000000000000000000000000000000000000000007bffffffffffffffffffffffffffffffffffffffffffffffffffffffff1916827bffffffffffffffffffffffffffffffffffffffffffffffffffffffff1916148061285557507f5b5e139f000000000000000000000000000000000000000000000000000000007bffffffffffffffffffffffffffffffffffffffffffffffffffffffff1916827bffffffffffffffffffffffffffffffffffffffffffffffffffffffff1916145b80612865575061286482612ddd565b5b9050919050565b612877838383612e57565b505050565b6128868282610fe3565b612915576128ab8173ffffffffffffffffffffffffffffffffffffffff166014612eaf565b6128b98360001c6020612eaf565b6040516020016128ca9291906142c7565b6040516020818303038152906040526040517f08c379a000000000000000000000000000000000000000000000000000000000815260040161290c919061439e565b60405180910390fd5b5050565b6129238282610fe3565b156129f657600080600084815260200190815260200160002060000160008373ffffffffffffffffffffffffffffffffffffffff1673ffffffffffffffffffffffffffffffffffffffff16815260200190815260200160002060006101000a81548160ff02191690831515021790555061299b6119a7565b73ffffffffffffffffffffffffffffffffffffffff168173ffffffffffffffffffffffffffffffffffffffff16837ff6391f5c32d9c69d2a47ea670b442974b53935d1edc7fd64eb21e047a839171b60405160405180910390a45b5050565b60008083600101600084815260200190815260200160002054905060008114612b6c576000600182612a2c9190614966565b9050600060018660000180549050612a449190614966565b90506000866000018281548110612a84577f4e487b7100000000000000000000000000000000000000000000000000000000600052603260045260246000fd5b9060005260206000200154905080876000018481548110612ace577f4e487b7100000000000000000000000000000000000000000000000000000000600052603260045260246000fd5b9060005260206000200181905550838760010160008381526020019081526020016000208190555086600001805480612b30577f4e487b7100000000000000000000000000000000000000000000000000000000600052603160045260246000fd5b60019003818190600052602060002001600090559055866001016000878152602001908152602001600020600090556001945050505050612b72565b60009150505b92915050565b600081836000018054905011612bc3576040517f08c379a0000000000000000000000000000000000000000000000000000000008152600401612bba906143c0565b60405180910390fd5b826000018281548110612bff577f4e487b7100000000000000000000000000000000000000000000000000000000600052603260045260246000fd5b9060005260206000200154905092915050565b6000612c338473ffffffffffffffffffffffffffffffffffffffff166131a9565b15612d9c578373ffffffffffffffffffffffffffffffffffffffff1663150b7a02612c5c6119a7565b8786866040518563ffffffff1660e01b8152600401612c7e949392919061431c565b602060405180830381600087803b158015612c9857600080fd5b505af1925050508015612cc957506040513d601f19601f82011682018060405250810190612cc69190613be7565b60015b612d4c573d8060008114612cf9576040519150601f19603f3d011682016040523d82523d6000602084013e612cfe565b606091505b50600081511415612d44576040517f08c379a0000000000000000000000000000000000000000000000000000000008152600401612d3b90614480565b60405180910390fd5b805181602001fd5b63150b7a0260e01b7bffffffffffffffffffffffffffffffffffffffffffffffffffffffff1916817bffffffffffffffffffffffffffffffffffffffffffffffffffffffff191614915050612da1565b600190505b949350505050565b600081600001805490509050919050565b600080836001016000848152602001908152602001600020541415905092915050565b60007f5a05180f000000000000000000000000000000000000000000000000000000007bffffffffffffffffffffffffffffffffffffffffffffffffffffffff1916827bffffffffffffffffffffffffffffffffffffffffffffffffffffffff19161480612e505750612e4f826131bc565b5b9050919050565b612e62838383613236565b612e6a610ccc565b15612eaa576040517f08c379a0000000000000000000000000000000000000000000000000000000008152600401612ea190614400565b60405180910390fd5b505050565b606060006002836002612ec2919061490c565b612ecc9190614885565b67ffffffffffffffff811115612f0b577f4e487b7100000000000000000000000000000000000000000000000000000000600052604160045260246000fd5b6040519080825280601f01601f191660200182016040528015612f3d5781602001600182028036833780820191505090505b5090507f300000000000000000000000000000000000000000000000000000000000000081600081518110612f9b577f4e487b7100000000000000000000000000000000000000000000000000000000600052603260045260246000fd5b60200101907effffffffffffffffffffffffffffffffffffffffffffffffffffffffffffff1916908160001a9053507f780000000000000000000000000000000000000000000000000000000000000081600181518110613025577f4e487b7100000000000000000000000000000000000000000000000000000000600052603260045260246000fd5b60200101907effffffffffffffffffffffffffffffffffffffffffffffffffffffffffffff1916908160001a90535060006001846002613065919061490c565b61306f9190614885565b90505b600181111561315b577f3031323334353637383961626364656600000000000000000000000000000000600f8616601081106130d7577f4e487b7100000000000000000000000000000000000000000000000000000000600052603260045260246000fd5b1a60f81b828281518110613114577f4e487b7100000000000000000000000000000000000000000000000000000000600052603260045260246000fd5b60200101907effffffffffffffffffffffffffffffffffffffffffffffffffffffffffffff1916908160001a905350600485901c94508061315490614a5a565b9050613072565b506000841461319f576040517f08c379a0000000000000000000000000000000000000000000000000000000008152600401613196906143e0565b60405180910390fd5b8091505092915050565b600080823b905060008111915050919050565b60007f7965db0b000000000000000000000000000000000000000000000000000000007bffffffffffffffffffffffffffffffffffffffffffffffffffffffff1916827bffffffffffffffffffffffffffffffffffffffffffffffffffffffff1916148061322f575061322e8261334a565b5b9050919050565b6132418383836133b4565b600073ffffffffffffffffffffffffffffffffffffffff168373ffffffffffffffffffffffffffffffffffffffff1614156132845761327f816133b9565b6132c3565b8173ffffffffffffffffffffffffffffffffffffffff168373ffffffffffffffffffffffffffffffffffffffff16146132c2576132c18382613402565b5b5b600073ffffffffffffffffffffffffffffffffffffffff168273ffffffffffffffffffffffffffffffffffffffff161415613306576133018161356f565b613345565b8273ffffffffffffffffffffffffffffffffffffffff168273ffffffffffffffffffffffffffffffffffffffff16146133445761334382826136b2565b5b5b505050565b60007f01ffc9a7000000000000000000000000000000000000000000000000000000007bffffffffffffffffffffffffffffffffffffffffffffffffffffffff1916827bffffffffffffffffffffffffffffffffffffffffffffffffffffffff1916149050919050565b505050565b600c80549050600d600083815260200190815260200160002081905550600c81908060018154018082558091505060019003906000526020600020016000909190919091505550565b6000600161340f84610e82565b6134199190614966565b90506000600b60008481526020019081526020016000205490508181146134fe576000600a60008673ffffffffffffffffffffffffffffffffffffffff1673ffffffffffffffffffffffffffffffffffffffff168152602001908152602001600020600084815260200190815260200160002054905080600a60008773ffffffffffffffffffffffffffffffffffffffff1673ffffffffffffffffffffffffffffffffffffffff16815260200190815260200160002060008481526020019081526020016000208190555081600b600083815260200190815260200160002081905550505b600b600084815260200190815260200160002060009055600a60008573ffffffffffffffffffffffffffffffffffffffff1673ffffffffffffffffffffffffffffffffffffffff16815260200190815260200160002060008381526020019081526020016000206000905550505050565b60006001600c805490506135839190614966565b90506000600d60008481526020019081526020016000205490506000600c83815481106135d9577f4e487b7100000000000000000000000000000000000000000000000000000000600052603260045260246000fd5b9060005260206000200154905080600c8381548110613621577f4e487b7100000000000000000000000000000000000000000000000000000000600052603260045260246000fd5b906000526020600020018190555081600d600083815260200190815260200160002081905550600d600085815260200190815260200160002060009055600c805480613696577f4e487b7100000000000000000000000000000000000000000000000000000000600052603160045260246000fd5b6001900381819060005260206000200160009055905550505050565b60006136bd83610e82565b905081600a60008573ffffffffffffffffffffffffffffffffffffffff1673ffffffffffffffffffffffffffffffffffffffff16815260200190815260200160002060008381526020019081526020016000208190555080600b600084815260200190815260200160002081905550505050565b82805461373d90614a84565b90600052602060002090601f01602090048101928261375f57600085556137a6565b82601f1061377857805160ff19168380011785556137a6565b828001600101855582156137a6579182015b828111156137a557825182559160200191906001019061378a565b5b5090506137b391906137b7565b5090565b5b808211156137d05760008160009055506001016137b8565b5090565b60006137e76137e2846147c0565b61479b565b9050828152602081018484840111156137ff57600080fd5b61380a848285614a18565b509392505050565b6000613825613820846147f1565b61479b565b90508281526020810184848401111561383d57600080fd5b613848848285614a18565b509392505050565b60008135905061385f816154b8565b92915050565b600081359050613874816154cf565b92915050565b600081359050613889816154e6565b92915050565b60008135905061389e816154fd565b92915050565b6000815190506138b3816154fd565b92915050565b600082601f8301126138ca57600080fd5b81356138da8482602086016137d4565b91505092915050565b600082601f8301126138f457600080fd5b8135613904848260208601613812565b91505092915050565b60008135905061391c81615514565b92915050565b60006020828403121561393457600080fd5b600061394284828501613850565b91505092915050565b6000806040838503121561395e57600080fd5b600061396c85828601613850565b925050602061397d85828601613850565b9150509250929050565b60008060006060848603121561399c57600080fd5b60006139aa86828701613850565b93505060206139bb86828701613850565b92505060406139cc8682870161390d565b9150509250925092565b600080600080608085870312156139ec57600080fd5b60006139fa87828801613850565b9450506020613a0b87828801613850565b9350506040613a1c8782880161390d565b925050606085013567ffffffffffffffff811115613a3957600080fd5b613a45878288016138b9565b91505092959194509250565b60008060408385031215613a6457600080fd5b6000613a7285828601613850565b9250506020613a8385828601613865565b9150509250929050565b60008060408385031215613aa057600080fd5b6000613aae85828601613850565b925050602083013567ffffffffffffffff811115613acb57600080fd5b613ad7858286016138e3565b9150509250929050565b60008060408385031215613af457600080fd5b6000613b0285828601613850565b9250506020613b138582860161390d565b9150509250929050565b600060208284031215613b2f57600080fd5b6000613b3d8482850161387a565b91505092915050565b60008060408385031215613b5957600080fd5b6000613b678582860161387a565b9250506020613b7885828601613850565b9150509250929050565b60008060408385031215613b9557600080fd5b6000613ba38582860161387a565b9250506020613bb48582860161390d565b9150509250929050565b600060208284031215613bd057600080fd5b6000613bde8482850161388f565b91505092915050565b600060208284031215613bf957600080fd5b6000613c07848285016138a4565b91505092915050565b600060208284031215613c2257600080fd5b600082013567ffffffffffffffff811115613c3c57600080fd5b613c48848285016138e3565b91505092915050565b600060208284031215613c6357600080fd5b6000613c718482850161390d565b91505092915050565b60008060408385031215613c8d57600080fd5b6000613c9b8582860161390d565b925050602083013567ffffffffffffffff811115613cb857600080fd5b613cc4858286016138e3565b9150509250929050565b613cd78161499a565b82525050565b613ce6816149ac565b82525050565b613cf5816149b8565b82525050565b6000613d0682614837565b613d10818561484d565b9350613d20818560208601614a27565b613d2981614c1d565b840191505092915050565b60008154613d4181614a84565b613d4b818661485e565b94506001821660008114613d665760018114613d7757613daa565b60ff19831686528186019350613daa565b613d8085614822565b60005b83811015613da257815481890152600182019150602081019050613d83565b838801955050505b50505092915050565b6000613dbe82614842565b613dc88185614869565b9350613dd8818560208601614a27565b613de181614c1d565b840191505092915050565b6000613df782614842565b613e01818561487a565b9350613e11818560208601614a27565b80840191505092915050565b6000613e2a602283614869565b9150613e3582614c2e565b604082019050919050565b6000613e4d602083614869565b9150613e5882614c7d565b602082019050919050565b6000613e70602b83614869565b9150613e7b82614ca6565b604082019050919050565b6000613e93601483614869565b9150613e9e82614cf5565b602082019050919050565b6000613eb6602883614869565b9150613ec182614d1e565b604082019050919050565b6000613ed9602b83614869565b9150613ee482614d6d565b604082019050919050565b6000613efc603283614869565b9150613f0782614dbc565b604082019050919050565b6000613f1f601c83614869565b9150613f2a82614e0b565b602082019050919050565b6000613f42601f83614869565b9150613f4d82614e34565b602082019050919050565b6000613f65603e83614869565b9150613f7082614e5d565b604082019050919050565b6000613f88602483614869565b9150613f9382614eac565b604082019050919050565b6000613fab601983614869565b9150613fb682614efb565b602082019050919050565b6000613fce602c83614869565b9150613fd982614f24565b604082019050919050565b6000613ff1601083614869565b9150613ffc82614f73565b602082019050919050565b6000614014603883614869565b915061401f82614f9c565b604082019050919050565b6000614037602a83614869565b915061404282614feb565b604082019050919050565b600061405a602983614869565b91506140658261503a565b604082019050919050565b600061407d602083614869565b915061408882615089565b602082019050919050565b60006140a0602c83614869565b91506140ab826150b2565b604082019050919050565b60006140c3602983614869565b91506140ce82615101565b604082019050919050565b60006140e6602f83614869565b91506140f182615150565b604082019050919050565b6000614109603d83614869565b91506141148261519f565b604082019050919050565b600061412c602183614869565b9150614137826151ee565b604082019050919050565b600061414f603183614869565b915061415a8261523d565b604082019050919050565b6000614172602c83614869565b915061417d8261528c565b604082019050919050565b600061419560178361487a565b91506141a0826152db565b601782019050919050565b60006141b8603d83614869565b91506141c382615304565b604082019050919050565b60006141db602983614869565b91506141e682615353565b604082019050919050565b60006141fe603083614869565b9150614209826153a2565b604082019050919050565b6000614221604083614869565b915061422c826153f1565b604082019050919050565b600061424460118361487a565b915061424f82615440565b601182019050919050565b6000614267602f83614869565b915061427282615469565b604082019050919050565b61428681614a0e565b82525050565b60006142988284613d34565b915081905092915050565b60006142af8285613dec565b91506142bb8284613dec565b91508190509392505050565b60006142d282614188565b91506142de8285613dec565b91506142e982614237565b91506142f58284613dec565b91508190509392505050565b60006020820190506143166000830184613cce565b92915050565b60006080820190506143316000830187613cce565b61433e6020830186613cce565b61434b604083018561427d565b818103606083015261435d8184613cfb565b905095945050505050565b600060208201905061437d6000830184613cdd565b92915050565b60006020820190506143986000830184613cec565b92915050565b600060208201905081810360008301526143b88184613db3565b905092915050565b600060208201905081810360008301526143d981613e1d565b9050919050565b600060208201905081810360008301526143f981613e40565b9050919050565b6000602082019050818103600083015261441981613e63565b9050919050565b6000602082019050818103600083015261443981613e86565b9050919050565b6000602082019050818103600083015261445981613ea9565b9050919050565b6000602082019050818103600083015261447981613ecc565b9050919050565b6000602082019050818103600083015261449981613eef565b9050919050565b600060208201905081810360008301526144b981613f12565b9050919050565b600060208201905081810360008301526144d981613f35565b9050919050565b600060208201905081810360008301526144f981613f58565b9050919050565b6000602082019050818103600083015261451981613f7b565b9050919050565b6000602082019050818103600083015261453981613f9e565b9050919050565b6000602082019050818103600083015261455981613fc1565b9050919050565b6000602082019050818103600083015261457981613fe4565b9050919050565b6000602082019050818103600083015261459981614007565b9050919050565b600060208201905081810360008301526145b98161402a565b9050919050565b600060208201905081810360008301526145d98161404d565b9050919050565b600060208201905081810360008301526145f981614070565b9050919050565b6000602082019050818103600083015261461981614093565b9050919050565b60006020820190508181036000830152614639816140b6565b9050919050565b60006020820190508181036000830152614659816140d9565b9050919050565b60006020820190508181036000830152614679816140fc565b9050919050565b600060208201905081810360008301526146998161411f565b9050919050565b600060208201905081810360008301526146b981614142565b9050919050565b600060208201905081810360008301526146d981614165565b9050919050565b600060208201905081810360008301526146f9816141ab565b9050919050565b60006020820190508181036000830152614719816141ce565b9050919050565b60006020820190508181036000830152614739816141f1565b9050919050565b6000602082019050818103600083015261475981614214565b9050919050565b600060208201905081810360008301526147798161425a565b9050919050565b6000602082019050614795600083018461427d565b92915050565b60006147a56147b6565b90506147b18282614ab6565b919050565b6000604051905090565b600067ffffffffffffffff8211156147db576147da614bee565b5b6147e482614c1d565b9050602081019050919050565b600067ffffffffffffffff82111561480c5761480b614bee565b5b61481582614c1d565b9050602081019050919050565b60008190508160005260206000209050919050565b600081519050919050565b600081519050919050565b600082825260208201905092915050565b600081905092915050565b600082825260208201905092915050565b600081905092915050565b600061489082614a0e565b915061489b83614a0e565b9250827fffffffffffffffffffffffffffffffffffffffffffffffffffffffffffffffff038211156148d0576148cf614b61565b5b828201905092915050565b60006148e682614a0e565b91506148f183614a0e565b92508261490157614900614b90565b5b828204905092915050565b600061491782614a0e565b915061492283614a0e565b9250817fffffffffffffffffffffffffffffffffffffffffffffffffffffffffffffffff048311821515161561495b5761495a614b61565b5b828202905092915050565b600061497182614a0e565b915061497c83614a0e565b92508282101561498f5761498e614b61565b5b828203905092915050565b60006149a5826149ee565b9050919050565b60008115159050919050565b6000819050919050565b60007fffffffff0000000000000000000000000000000000000000000000000000000082169050919050565b600073ffffffffffffffffffffffffffffffffffffffff82169050919050565b6000819050919050565b82818337600083830152505050565b60005b83811015614a45578082015181840152602081019050614a2a565b83811115614a54576000848401525b50505050565b6000614a6582614a0e565b91506000821415614a7957614a78614b61565b5b600182039050919050565b60006002820490506001821680614a9c57607f821691505b60208210811415614ab057614aaf614bbf565b5b50919050565b614abf82614c1d565b810181811067ffffffffffffffff82111715614ade57614add614bee565b5b80604052505050565b6000614af282614a0e565b91507fffffffffffffffffffffffffffffffffffffffffffffffffffffffffffffffff821415614b2557614b24614b61565b5b600182019050919050565b6000614b3b82614a0e565b9150614b4683614a0e565b925082614b5657614b55614b90565b5b828206905092915050565b7f4e487b7100000000000000000000000000000000000000000000000000000000600052601160045260246000fd5b7f4e487b7100000000000000000000000000000000000000000000000000000000600052601260045260246000fd5b7f4e487b7100000000000000000000000000000000000000000000000000000000600052602260045260246000fd5b7f4e487b7100000000000000000000000000000000000000000000000000000000600052604160045260246000fd5b6000601f19601f8301169050919050565b7f456e756d657261626c655365743a20696e646578206f7574206f6620626f756e60008201527f6473000000000000000000000000000000000000000000000000000000000000602082015250565b7f537472696e67733a20686578206c656e67746820696e73756666696369656e74600082015250565b7f4552433732315061757361626c653a20746f6b656e207472616e73666572207760008201527f68696c6520706175736564000000000000000000000000000000000000000000602082015250565b7f5061757361626c653a206e6f7420706175736564000000000000000000000000600082015250565b7f5468697320616464726573732068617320616c7265616479206265656e20726560008201527f6769737465726564000000000000000000000000000000000000000000000000602082015250565b7f455243373231456e756d657261626c653a206f776e657220696e646578206f7560008201527f74206f6620626f756e6473000000000000000000000000000000000000000000602082015250565b7f4552433732313a207472616e7366657220746f206e6f6e20455243373231526560008201527f63656976657220696d706c656d656e7465720000000000000000000000000000602082015250565b7f4552433732313a20746f6b656e20616c7265616479206d696e74656400000000600082015250565b7f4e6f7420746865207075626c6973686572206f66207468697320746f6b656e00600082015250565b7f4552433732315072657365744d696e7465725061757365724175746f49643a2060008201527f6d75737420686176652070617573657220726f6c6520746f2070617573650000602082015250565b7f4552433732313a207472616e7366657220746f20746865207a65726f2061646460008201527f7265737300000000000000000000000000000000000000000000000000000000602082015250565b7f4552433732313a20617070726f766520746f2063616c6c657200000000000000600082015250565b7f4552433732313a206f70657261746f7220717565727920666f72206e6f6e657860008201527f697374656e7420746f6b656e0000000000000000000000000000000000000000602082015250565b7f5061757361626c653a2070617573656400000000000000000000000000000000600082015250565b7f4552433732313a20617070726f76652063616c6c6572206973206e6f74206f7760008201527f6e6572206e6f7220617070726f76656420666f7220616c6c0000000000000000602082015250565b7f4552433732313a2062616c616e636520717565727920666f7220746865207a6560008201527f726f206164647265737300000000000000000000000000000000000000000000602082015250565b7f4552433732313a206f776e657220717565727920666f72206e6f6e657869737460008201527f656e7420746f6b656e0000000000000000000000000000000000000000000000602082015250565b7f4552433732313a206d696e7420746f20746865207a65726f2061646472657373600082015250565b7f4552433732313a20617070726f76656420717565727920666f72206e6f6e657860008201527f697374656e7420746f6b656e0000000000000000000000000000000000000000602082015250565b7f4552433732313a207472616e73666572206f6620746f6b656e2074686174206960008201527f73206e6f74206f776e0000000000000000000000000000000000000000000000602082015250565b7f4552433732314d657461646174613a2055524920717565727920666f72206e6f60008201527f6e6578697374656e7420746f6b656e0000000000000000000000000000000000602082015250565b7f4552433732315072657365744d696e7465725061757365724175746f49643a2060008201527f6d75737420686176652061646d696e20726f6c6520746f206772616e74000000602082015250565b7f4552433732313a20617070726f76616c20746f2063757272656e74206f776e6560008201527f7200000000000000000000000000000000000000000000000000000000000000602082015250565b7f4552433732313a207472616e736665722063616c6c6572206973206e6f74206f60008201527f776e6572206e6f7220617070726f766564000000000000000000000000000000602082015250565b7f455243373231456e756d657261626c653a20676c6f62616c20696e646578206f60008201527f7574206f6620626f756e64730000000000000000000000000000000000000000602082015250565b7f416363657373436f6e74726f6c3a206163636f756e7420000000000000000000600082015250565b7f4552433732315072657365744d696e7465725061757365724175746f49643a2060008201527f6d7573742068617665206d696e74657220726f6c6520746f206d696e74000000602082015250565b7f546869732073636f726520746f6b656e2063616e206e6f206c6f6e676572206260008201527f6520656469747465640000000000000000000000000000000000000000000000602082015250565b7f4552433732314275726e61626c653a2063616c6c6572206973206e6f74206f7760008201527f6e6572206e6f7220617070726f76656400000000000000000000000000000000602082015250565b7f4552433732315072657365744d696e7465725061757365724175746f49643a2060008201527f6d75737420686176652070617573657220726f6c6520746f20756e7061757365602082015250565b7f206973206d697373696e6720726f6c6520000000000000000000000000000000600082015250565b7f416363657373436f6e74726f6c3a2063616e206f6e6c792072656e6f756e636560008201527f20726f6c657320666f722073656c660000000000000000000000000000000000602082015250565b6154c18161499a565b81146154cc57600080fd5b50565b6154d8816149ac565b81146154e357600080fd5b50565b6154ef816149b8565b81146154fa57600080fd5b50565b615506816149c2565b811461551157600080fd5b50565b61551d81614a0e565b811461552857600080fd5b5056fea2646970667358221220b7a133e9589c28b4d4b94b0861544f0a0a2b2b88804badd556d95c7855157c9064736f6c63430008030033",
  "immutableReferences": {},
  "source": "// SPDX-License-Identifier: MIT\n\npragma solidity ^0.8.0;\nimport \"../ERC721.sol\";\nimport \"../extensions/ERC721Enumerable.sol\";\n\nimport \"../extensions/ERC721Pausable.sol\";\nimport \"../extensions/ERC721Burnable.sol\";\nimport \"../../../access/AccessControlEnumerable.sol\";\nimport \"../../../utils/Context.sol\";\nimport \"../../../utils/Counters.sol\";\n\n/**\n * @dev {ERC721} token, including:\n *\n *  - ability for holders to burn (destroy) their tokens\n *  - a minter role that allows for token minting (creation)\n *  - a pauser role that allows to stop all token transfers\n *  - token ID and URI autogeneration\n *\n * This contract uses {AccessControl} to lock permissioned functions using the\n * different roles - head to its documentation for details.\n *\n * The account that deploys the contract will be granted the minter and pauser\n * roles, as well as the default admin role, which will let it grant both minter\n * and pauser roles to other accounts.\n */\ncontract ERC721PresetMinterPauserAutoId is Context, AccessControlEnumerable, ERC721Enumerable, ERC721Burnable, ERC721Pausable {\n    using Counters for Counters.Counter;\n    event Update(uint256 indexed tokenId);\n    mapping (address => string) _candidates;\n\n    bytes32 public constant MINTER_ROLE = keccak256(\"MINTER_ROLE\");\n    bytes32 public constant PAUSER_ROLE = keccak256(\"PAUSER_ROLE\");\n    bytes32 public constant CANDIDATE_ROLE = keccak256(\"CANDIDATE_ROLE\");\n    bytes32 public constant AUDITOR_ROLE = keccak256(\"AUDITOR_ROLE\");\n    \n\n    Counters.Counter private _tokenIdTracker;\n\n    string private _baseTokenURI;\n\n    /**\n     * @dev Grants `DEFAULT_ADMIN_ROLE`, `MINTER_ROLE` and `PAUSER_ROLE` to the\n     * account that deploys the contract.\n     *\n     * Token URIs will be autogenerated based on `baseURI` and their token IDs.\n     * See {ERC721-tokenURI}.\n     */\n    constructor(string memory name, string memory symbol, string memory baseTokenURI) ERC721(name, symbol) {\n        _baseTokenURI = baseTokenURI;\n\n        _setupRole(DEFAULT_ADMIN_ROLE, _msgSender());\n\n        _setupRole(MINTER_ROLE, _msgSender());\n        _setupRole(PAUSER_ROLE, _msgSender());\n    }\n\n    function _baseURI() internal view virtual override returns (string memory) {\n        return _baseTokenURI;\n    }\n\n    function registerCandidate(string memory name) public virtual {\n        require(keccak256(bytes(_candidates[_msgSender()])) == keccak256(bytes(\"\")), \"This address has already been registered\");\n        _setupRole(CANDIDATE_ROLE, _msgSender());\n        _candidates[_msgSender()] = name;\n    }\n\n    function granMinterRole(address toGrantMinterRole) public virtual {\n        require(hasRole(DEFAULT_ADMIN_ROLE, _msgSender()), \"ERC721PresetMinterPauserAutoId: must have admin role to grant\");\n        _setupRole(MINTER_ROLE, toGrantMinterRole);\n    }\n\n    function getOwnerAddressByTokenId(uint256 tokenId) public view returns (address)  {\n        return _owners[tokenId];\n    }\n\n    /**\n     * @dev Creates a new token f<p></p>or `to`. Its token ID will be automatically\n     * assigned (and available on the emitted {IERC721-Transfer} event), and the token\n     * URI autogenerated based on the base URI passed at construction.\n     *\n     * See {ERC721-_mint}.\n     *\n     * Requirements:\n     *\n     * - the caller must have the `MINTER_ROLE`.\n     */\n    function mint(address to, string memory scorehash) public virtual {\n        require(hasRole(MINTER_ROLE, _msgSender()), \"ERC721PresetMinterPauserAutoId: must have minter role to mint\");\n\n        // We cannot just use balanceOf to create the new tokenId because tokens\n        // can be burned (destroyed), so we need a separate counter.\n        _mint(to, _tokenIdTracker.current(), scorehash);\n        _tokenIdTracker.increment();\n    }\n\n    function getScoreHashByTokenId(uint256 tokenId) public view virtual returns (string memory) {\n        return _scoreHashes[tokenId];\n    }\n    \n    function updateScoreHashByTokenId(uint256 tokenId, string memory newScoreHash) public {\n        require(_owners[tokenId] == msg.sender, \"Not the publisher of this token\");\n        require(_endtimes[tokenId] > block.timestamp, \"This score token can no longer be editted\");\n        _scoreHashes[tokenId] = newScoreHash;\n        emit Update(tokenId);\n    }\n\n    /**\n     * @dev Pauses all token transfers.\n     *\n     * See {ERC721Pausable} and {Pausable-_pause}.\n     *\n     * Requirements:\n     *\n     * - the caller must have the `PAUSER_ROLE`.\n     */\n    function pause() public virtual {\n        require(hasRole(PAUSER_ROLE, _msgSender()), \"ERC721PresetMinterPauserAutoId: must have pauser role to pause\");\n        _pause();\n    }\n\n    /**\n     * @dev Unpauses all token transfers.\n     *\n     * See {ERC721Pausable} and {Pausable-_unpause}.\n     *\n     * Requirements:\n     *\n     * - the caller must have the `PAUSER_ROLE`.\n     */\n    function unpause() public virtual {\n        require(hasRole(PAUSER_ROLE, _msgSender()), \"ERC721PresetMinterPauserAutoId: must have pauser role to unpause\");\n        _unpause();\n    }\n\n    function _beforeTokenTransfer(address from, address to, uint256 tokenId) internal virtual override(ERC721, ERC721Enumerable, ERC721Pausable) {\n        super._beforeTokenTransfer(from, to, tokenId);\n    }\n\n    /**\n     * @dev See {IERC165-supportsInterface}.\n     */\n    function supportsInterface(bytes4 interfaceId) public view virtual override(AccessControlEnumerable, ERC721, ERC721Enumerable) returns (bool) {\n        return super.supportsInterface(interfaceId);\n    }\n}\n",
  "sourcePath": "/Users/phamhuyphat/Documents/erc721-score-blockchain-service/contracts/token/ERC721/presets/ERC721PresetMinterPauserAutoId.sol",
  "compiler": {
    "name": "solc",
    "version": "0.8.3+commit.8d00100c.Emscripten.clang"
  },
  "schemaVersion": "3.3.4",
  "updatedAt": "2021-07-04T08:58:02.849Z",
  "networkType": "ethereum",
  "devdoc": {
    "details": "{ERC721} token, including:  - ability for holders to burn (destroy) their tokens  - a minter role that allows for token minting (creation)  - a pauser role that allows to stop all token transfers  - token ID and URI autogeneration This contract uses {AccessControl} to lock permissioned functions using the different roles - head to its documentation for details. The account that deploys the contract will be granted the minter and pauser roles, as well as the default admin role, which will let it grant both minter and pauser roles to other accounts.",
    "kind": "dev",
    "methods": {
      "approve(address,uint256)": {
        "details": "See {IERC721-approve}."
      },
      "balanceOf(address)": {
        "details": "See {IERC721-balanceOf}."
      },
      "burn(uint256)": {
        "details": "Burns `tokenId`. See {ERC721-_burn}. Requirements: - The caller must own `tokenId` or be an approved operator."
      },
      "constructor": {
        "details": "Grants `DEFAULT_ADMIN_ROLE`, `MINTER_ROLE` and `PAUSER_ROLE` to the account that deploys the contract. Token URIs will be autogenerated based on `baseURI` and their token IDs. See {ERC721-tokenURI}."
      },
      "getApproved(uint256)": {
        "details": "See {IERC721-getApproved}."
      },
      "getRoleAdmin(bytes32)": {
        "details": "Returns the admin role that controls `role`. See {grantRole} and {revokeRole}. To change a role's admin, use {_setRoleAdmin}."
      },
      "getRoleMember(bytes32,uint256)": {
        "details": "Returns one of the accounts that have `role`. `index` must be a value between 0 and {getRoleMemberCount}, non-inclusive. Role bearers are not sorted in any particular way, and their ordering may change at any point. WARNING: When using {getRoleMember} and {getRoleMemberCount}, make sure you perform all queries on the same block. See the following https://forum.openzeppelin.com/t/iterating-over-elements-on-enumerableset-in-openzeppelin-contracts/2296[forum post] for more information."
      },
      "getRoleMemberCount(bytes32)": {
        "details": "Returns the number of accounts that have `role`. Can be used together with {getRoleMember} to enumerate all bearers of a role."
      },
      "grantRole(bytes32,address)": {
        "details": "Overload {grantRole} to track enumerable memberships"
      },
      "hasRole(bytes32,address)": {
        "details": "Returns `true` if `account` has been granted `role`."
      },
      "isApprovedForAll(address,address)": {
        "details": "See {IERC721-isApprovedForAll}."
      },
      "mint(address,string)": {
        "details": "Creates a new token f<p></p>or `to`. Its token ID will be automatically assigned (and available on the emitted {IERC721-Transfer} event), and the token URI autogenerated based on the base URI passed at construction. See {ERC721-_mint}. Requirements: - the caller must have the `MINTER_ROLE`."
      },
      "name()": {
        "details": "See {IERC721Metadata-name}."
      },
      "ownerOf(uint256)": {
        "details": "See {IERC721-ownerOf}."
      },
      "pause()": {
        "details": "Pauses all token transfers. See {ERC721Pausable} and {Pausable-_pause}. Requirements: - the caller must have the `PAUSER_ROLE`."
      },
      "paused()": {
        "details": "Returns true if the contract is paused, and false otherwise."
      },
      "renounceRole(bytes32,address)": {
        "details": "Overload {renounceRole} to track enumerable memberships"
      },
      "revokeRole(bytes32,address)": {
        "details": "Overload {revokeRole} to track enumerable memberships"
      },
      "safeTransferFrom(address,address,uint256)": {
        "details": "See {IERC721-safeTransferFrom}."
      },
      "safeTransferFrom(address,address,uint256,bytes)": {
        "details": "See {IERC721-safeTransferFrom}."
      },
      "setApprovalForAll(address,bool)": {
        "details": "See {IERC721-setApprovalForAll}."
      },
      "supportsInterface(bytes4)": {
        "details": "See {IERC165-supportsInterface}."
      },
      "symbol()": {
        "details": "See {IERC721Metadata-symbol}."
      },
      "tokenByIndex(uint256)": {
        "details": "See {IERC721Enumerable-tokenByIndex}."
      },
      "tokenOfOwnerByIndex(address,uint256)": {
        "details": "See {IERC721Enumerable-tokenOfOwnerByIndex}."
      },
      "tokenURI(uint256)": {
        "details": "See {IERC721Metadata-tokenURI}."
      },
      "totalSupply()": {
        "details": "See {IERC721Enumerable-totalSupply}."
      },
      "transferFrom(address,address,uint256)": {
        "details": "See {IERC721-transferFrom}."
      },
      "unpause()": {
        "details": "Unpauses all token transfers. See {ERC721Pausable} and {Pausable-_unpause}. Requirements: - the caller must have the `PAUSER_ROLE`."
      }
    },
    "version": 1
  },
  "userdoc": {
    "kind": "user",
    "methods": {},
    "version": 1
  }
}